:100000000C9417010C9438010C9438010C943801AD
:100010000C9438010C9438010C9438010C9438017C
:100020000C9438010C9438010C9438010C9438016C
:100030000C9438010C9438010C9438010C9438015C
:100040000C9438010C9438010C9438010C9438014C
:100050000C9438010C9438010C9438010C94EB0189
:100060000C9438010C9438010C9438010C9438012C
:100070000C9438010C9438010C9438010C9438011C
:100080000C9438010C9438010C9438010C9438010C
:100090000C9438010C9438010C9438010C943801FC
:1000A0000C9438010C9438010C9438010C943801EC
:1000B0000C9438010C9438010C9438010C943801DC
:1000C0000C9438010C9438010C9438010C943801CC
:1000D0000C9438010C9438010C9438010C943801BC
:1000E0000C9438010C94B2010C946A010C948901AF
:1000F0000C94B6010C948D010C9496010C9485011E
:100100000C949A010C94AE010C94C0010C94A001C3
:100110000C9481010C94A8010C94A4010C946F011F
:100120000C94BC010C94900100000A0B02090C0D08
:100130000E0807030401000000000000000000009A
:1001400000000000000000000000000000000000AF
:10015000000000001211100000000000000000006C
:10016000000000000000000000000000000000008F
:100170002200250028002B002E003100340002014F
:100180000000050108010B010000210024002700E8
:100190002A002D0030003300010100000401070196
:1001A0000A010505050507050808080802020202FC
:1001B0000A0A080804040404010101010101010103
:1001C0000303030303030303040707070C0C0C0CCE
:1001D0000C0C0C0C020202020606060606060606B7
:1001E0000B0B0B0B0B0B0B0B010210202008081044
:1001F0002040102040800201020108040201010297
:10020000040810204080804020100804020180046F
:1002100002018040201008040201080402010102CA
:10022000040810204080010204081020408011249E
:100230001FBECFEFD1E2DEBFCDBF00E00CBF12E0AA
:10024000A0E0B2E0EEE9F8E000E00BBF02C00790EA
:100250000D92AE30B107D9F722E0AEE0B2E001C0B6
:100260001D92A731B207E1F70E9435020C944D04AC
:100270000C940000282F30E0F901E85DFE4F9491C6
:10028000F901E851FE4F44912E553E4FF90124915A
:10029000222309F435C0992311F191509231F8F4D9
:1002A000E92FF0E08827E85AFE4F8F4F0C94450461
:1002B00089018D016A01810185016F01900196011B
:1002C0009A01A001A401A801AE01B2016F01B6011B
:1002D000BC01C001809180008F7780938000E22F65
:1002E000F0E0EE0FFF1FE259FE4FA591B4918FB7DA
:1002F000F894EC91611148C040954E234C938FBF08
:100300000895809180008F7DE8CF80918000877F65
:10031000E4CF84B58F7784BDE2CF84B58F7DFBCFEA
:100320008091B0008F778093B000D9CF8091B000DA
:100330008F7DF9CF809190008F7780939000CFCF01
:10034000809190008F7DF9CF80919000877FF5CFCD
:100350008091A0008F778093A000C1CF8091A000F2
:100360008F7DF9CF8091A000877FF5CF809120010C
:100370008F7780932001B3CF809120018F7DF9CFBB
:1003800080912001877FF5CF4E2BB8CF3FB7F894EF
:100390008091130290911402A0911502B09116025F
:1003A00026B5A89B05C02F3F19F00196A11DB11DD0
:1003B0003FBFBA2FA92F982F8827BC01CD01620F0C
:1003C000711D811D911D42E0660F771F881F991FC7
:1003D0004A95D1F708951F920F920FB60F921124EC
:1003E0002F933F938F939F93AF93BF9380910F026F
:1003F00090911002A0911102B091120230910E0260
:1004000023E0230F2D3758F50196A11DB11D209330
:100410000E0280930F0290931002A0931102B093EA
:1004200012028091130290911402A0911502B091D2
:1004300016020196A11DB11D809313029093140220
:10044000A0931502B0931602BF91AF919F918F9127
:100450003F912F910F900FBE0F901F90189526E897
:10046000230F0296A11DB11DD2CF789484B582606E
:1004700084BD84B5816084BD85B5826085BD85B548
:10048000816085BD80916E00816080936E001092C6
:100490008100809181008260809381008091810041
:1004A00081608093810080918000816080938000D2
:1004B0008091B10084608093B1008091B000816030
:1004C0008093B00080919100826080939100809130
:1004D0009100816080939100809190008160809371
:1004E00090008091A10082608093A1008091A10082
:1004F00081608093A1008091A00081608093A00022
:10050000809121018260809321018091210181608D
:10051000809321018091200181608093200180914E
:100520007A00846080937A0080917A008260809360
:100530007A0080917A00816080937A0080917A00BD
:10054000806880937A001092C100C4E0D2E0899163
:1005500099919927FC01E851FE4F24918E559E4FA9
:10056000FC018491882399F090E0880F991FFC0189
:10057000E857FE4FA591B491FC01E259FE4F8591D9
:1005800094918FB7F894EC91E22BEC938FBFF2E04B
:10059000CE30DF07E1F680917B00877F80937B0080
:1005A00080E480937C0080917A00806480937A005C
:1005B00080917A0086FDFCCF80917800609179006F
:1005C000762F682F072E000C880B990B611571058B
:1005D0008105910511F00E94D90325E0822E912C0E
:1005E000A12CB12C30E0232E30E0332E0E948A0360
:1005F000A50194010E94E2036B0104E012E0F801FE
:1006000080810E5F1F4F60E00E943A01C017D10742
:10061000B1F7F601EE0FFF1FEC5FFD4F61E0808147
:100620000E943A010E94C6016B017C0190ED492EA7
:1006300097E0592E612C712C0E94C6016C197D091E
:100640008E099F09683E734081059105A8F3F1E08A
:100650004F1A51086108710828EEC20E23E0D21E1D
:10066000E11CF11C411451046104710429F72114A7
:10067000310409F4BBCF0E940000B8CF8F929F9243
:10068000AF92BF92CF92DF92EF92FF92CF93DF9320
:10069000EC01688179818A819B81611571058105F1
:1006A000910521F464E279ED8BE597E02DE133EFDC
:1006B00041E050E00E94E20349015A019B01AC0174
:1006C000A7EAB1E40E9401046B017C01ACEEB4EF37
:1006D000A50194010E940F04C60ED71EE81EF91E44
:1006E000F7FE06C081E0C81AD108E10880E8F80AE0
:1006F000C882D982EA82FB82C701B6019F77DF9167
:10070000CF91FF90EF90DF90CF90BF90AF909F90F0
:100710008F9008958F929F92AF92BF92CF92DF9267
:10072000EF92FF92609100027091010280910202AB
:1007300090910302611571058105910521F464E230
:1007400079ED8BE597E02DE133EF41E050E00E9439
:10075000E20349015A019B01AC01A7EAB1E40E94FE
:1007600001046B017C01ACEEB4EFA50194010E9481
:100770000F04C60ED71EE81EF91EF7FE06C081E064
:10078000C81AD108E10880E8F80AC0920002D092A5
:100790000102E0920202F0920302C701B6019F77C4
:1007A000FF90EF90DF90CF90BF90AF909F908F9091
:1007B0000895609300027093010280930202909367
:1007C00003020895052E97FB1EF400940E94F9037E
:1007D00057FD07D00E94140407FC03D04EF40C947C
:1007E000F90350954095309521953F4F4F4F5F4FFE
:1007F000089590958095709561957F4F8F4F9F4F8D
:1008000008950E943604A59F900DB49F900DA49F5B
:10081000800D911D11240895B7FF0C9401040E94CE
:100820000104821B930B0895A1E21A2EAA1BBB1B85
:10083000FD010DC0AA1FBB1FEE1FFF1FA217B307AC
:10084000E407F50720F0A21BB30BE40BF50B661FC2
:10085000771F881F991F1A9469F760957095809586
:1008600090959B01AC01BD01CF010895A29FB001FD
:10087000B39FC001A39F700D811D1124911DB29FD4
:10088000700D811D1124911D0895EE0FFF1F881F0B
:0E0890008BBF0790F691E02D1994F894FFCFDE
:0E089E000100000009000A000B000C000D0014
:00000001FF
