:100000000C9486000C94B7000C94B7000C94B700C5
:100010000C94B7000C94B7000C94B7000C94B70084
:100020000C94B7000C94B7000C94B7000C94B70074
:100030000C94B7000C94B7000C94B7000C94B70064
:100040000C94B7000C94B7000C94B7000C94B70054
:100050000C94B7000C94B7000C94B7000C94ED010D
:100060000C94B7000C9461020C9437020C94B70006
:100070000C94B7000C94B7000C94B7000C94B70024
:100080000C94B7000C94B7000C94B7000C94B70014
:100090000C94B7000C94B7000C94B7000C94B70004
:1000A0000C94B7000C94B7000C94B7000C94B700F4
:1000B0000C94B7000C94B7000C94B7000C94B700E4
:1000C0000C94B7000C94B7000C94B7000C94B700D4
:1000D0000C94B7000C94B7000C94B7000C94B700C4
:1000E0000C94B7000C9438040C944F010C949C01B0
:1000F0000C9417010C9409010C9497020C94F500D0
:100100000C94E6000C94B9009702380411241FBE29
:10011000CFEFD1E2DEBFCDBF00E00CBF22E0ACE10B
:10012000B2E001C01D92AE3CB207E1F712E0A0E0E0
:10013000B2E0E6E2FDE000E00BBF02C007900D92E6
:10014000AC31B107D9F710E0C5E8D0E000E006C057
:1001500021970109802FFE010E946304C438D10752
:1001600080E00807A9F70E941E030C9481060C94F6
:100170000000AF92BF92CF92DF92EF92FF920F9367
:100180001F93CF93DF936C017B018B01040F151F2D
:10019000EB015E01AE18BF08C017D10759F0699195
:1001A000D601ED91FC910190F081E02DC6011995E9
:1001B000892B79F7C501DF91CF911F910F91FF90A6
:1001C000EF90DF90CF90BF90AF900895FC01538DDA
:1001D000448D252F30E0842F90E0821B930B541721
:1001E00010F0CF96089501970895FC01918D828DAE
:1001F000981761F0A28DAE0FBF2FB11D5D968C9147
:10020000928D9F5F9F73928F90E008958FEF9FEF85
:100210000895FC01918D828D981731F0828DE80F41
:10022000F11D858D90E008958FEF9FEF0895FC01FB
:10023000918D228D892F90E0805C9F4F821B9109C8
:100240008F739927089587E292E00E94170121E0B9
:10025000892B09F420E0822F0895FC01A48DA80FBA
:10026000B92FB11DA35ABF4F2C91848D90E00196F8
:100270008F739927848FA689B7892C93A089B18918
:100280008C91837080648C93938D848D981306C0B9
:100290000288F389E02D80818F7D80830895EF921D
:1002A000FF920F931F93CF93DF93EC0181E0888F30
:1002B0009B8D8C8D98131AC0E889F989808185FF00
:1002C00015C09FB7F894EE89FF896083E889F989A2
:1002D00080818370806480839FBF81E090E0DF91A4
:1002E000CF911F910F91FF90EF900895F62E0B8DF7
:1002F00010E00F5F1F4F0F731127E02E8C8D8E11B2
:100300000CC00FB607FCFACFE889F989808185FF18
:10031000F5CFCE010E942D01F1CFEB8DEC0FFD2F1B
:10032000F11DE35AFF4FF0829FB7F8940B8FEA89D3
:10033000FB8980818062CFCFCF93DF93EC01888DE2
:100340008823B9F0AA89BB89E889F9898C9185FD50
:1003500003C0808186FD0DC00FB607FCF7CF8C91DE
:1003600085FFF2CF808185FFEDCFCE010E942D0168
:10037000E9CFDF91CF91089580E090E0892B29F0BB
:100380000E94230181110E94000080E090E0892BEF
:1003900049F080E090E0892B29F00E940000811153
:1003A0000E94000080E090E0892B49F080E090E01E
:1003B000892B29F00E94000081110E94000080E03A
:1003C00090E0892B49F080E090E0892B29F00E9491
:1003D000000081110C94000008951F920F920FB637
:1003E0000F9211242F933F938F939F93AF93BF93BB
:1003F0008091230290912402A0912502B0912602BF
:100400003091220223E0230F2D3758F50196A11DCC
:10041000B11D209322028093230290932402A09383
:100420002502B093260280911E0290911F02A09196
:100430002002B09121020196A11DB11D80931E02E0
:1004400090931F02A0932002B0932102BF91AF911D
:100450009F918F913F912F910F900FBE0F901F9002
:10046000189526E8230F0296A11DB11DD2CF1F9229
:100470000F920FB60F9211240BB60F922F933F934A
:100480004F935F936F937F938F939F93AF93BF939C
:10049000EF93FF9387E292E00E942D01FF91EF918D
:1004A000BF91AF919F918F917F916F915F914F918C
:1004B0003F912F910F900BBE0F900FBE0F901F908A
:1004C00018951F920F920FB60F9211240BB60F9230
:1004D0002F938F939F93EF93FF93E0913702F091C7
:1004E00038028081E0913D02F0913E0282FD1DC004
:1004F0009081809140028F5F8F732091410282171B
:1005000041F0E0914002F0E0E95DFD4F958F80936E
:100510004002FF91EF919F918F912F910F900BBE11
:100520000F900FBE0F901F9018958081F2CF109200
:100530002A021092290288EE93E0A0E0B0E08093B6
:100540002B0290932C02A0932D02B0932E028AE0EE
:1005500092E0909328028093270285EC90E090939C
:1005600034028093330284EC90E0909336028093BF
:10057000350280EC90E0909338028093370281EC52
:1005800090E090933A028093390282EC90E090934D
:100590003C0280933B0286EC90E090933E02809375
:1005A0003D021092400210924102109242021092BB
:1005B00043021092C5021092C4021092C702109218
:1005C000C6021092C9021092C80261E070E090E089
:1005D00080E00E9490050097E1F09093C50280931F
:1005E000C4021092C7021092C6022091C802309134
:1005F000C902232B11F4FC0110821092C90210923F
:10060000C8026AE172E08091C4029091C5020C9424
:100610007A068091C4029091C502009711F00E9461
:1006200007051092C5021092C4021092C9021092DE
:10063000C8021092C7021092C6020895CF93DF93AA
:10064000CDB7DEB7A1970FB6F894DEBF0FBECDBF12
:10065000789484B5826084BD84B5816084BD85B59D
:10066000826085BD85B5816085BD80916E008160A9
:1006700080936E001092810080918100826080934F
:100680008100809181008160809381008091800051
:100690008160809380008091B10084608093B1007C
:1006A0008091B00081608093B00080919100826061
:1006B000809391008091910081608093910080915E
:1006C00090008160809390008091A100826080936F
:1006D000A1008091A10081608093A1008091A00081
:1006E00081608093A000809121018260809321012C
:1006F000809121018160809321018091200181609E
:100700008093200180917A00846080937A008091A8
:100710007A00826080937A0080917A008160809371
:100720007A0080917A00806880937A001092C100EC
:1007300010921D0210921C02E0913702F0913802D3
:1007400082E08083E0913302F09134021082E091E4
:100750003502F09136028FEC808310923F02E091D7
:100760003B02F0913C0286E08083E0913902F091F7
:100770003A02808180618083E0913902F0913A02EF
:10078000808188608083E0913902F0913A02808113
:1007900080688083E0913902F0913A0280818F7DF8
:1007A00080838AE0882E912CA12CB12CC0901C0251
:1007B000D0901D020D2C000CEE08FF08F7FE42C081
:1007C0006DE287E292E00E944F0122273327A901C0
:1007D0002C193D094E095F0919A2CE0181967C01B1
:1007E000CA01B901A50194010E944104605DF701AD
:1007F00062937F01211531054105510589F7E11407
:10080000F10461F001900020E9F73197AF014E1932
:100810005F09B70187E292E00E94B90042E050E030
:1008200068E172E087E292E00E94B90080911C02C8
:1008300090911D02019690931D0280931C020E94CC
:10084000BC01B4CFA701960119A2CE0181967C010B
:10085000CA01B901A50194010E944104605DF7013C
:1008600062937F01211531054105510589F7C7CFF5
:100870008091C4029091C502009711F00C94070575
:100880000895A1E21A2EAA1BBB1BFD010DC0AA1FD1
:10089000BB1FEE1FFF1FA217B307E407F50720F0E9
:1008A000A21BB30BE40BF50B661F771F881F991F64
:1008B0001A9469F760957095809590959B01AC01AD
:1008C000BD01CF010895EE0FFF1F881F8BBF07905A
:1008D000F691E02D19940F931F93CF93DF938230FD
:1008E000910510F482E090E0E091CC02F091CD020D
:1008F00030E020E0B0E0A0E0309799F42115310518
:1009000009F44AC0281B390B24303105D8F58A81F7
:100910009B816115710589F1FB0193838283FE013F
:1009200011C0408151810281138148175907E0F0BD
:100930004817590799F4109761F012960C93129783
:1009400013961C933296CF01DF91CF911F910F9197
:1009500008950093CC021093CD02F4CF21153105F8
:1009600051F04217530738F0A901DB019A01BD018C
:10097000DF01F801C1CFEF01F9CF9093CD02809351
:10098000CC02CDCFFE01E20FF31F81939193225051
:10099000310939832883D7CF2091CA023091CB0205
:1009A000232B41F420910202309103023093CB02B9
:1009B0002093CA02209100023091010221153105D5
:1009C00041F42DB73EB74091040250910502241B1B
:1009D000350BE091CA02F091CB02E217F307A0F4C5
:1009E0002E1B3F0B2817390778F0AC014E5F5F4F85
:1009F0002417350748F04E0F5F1F5093CB024093EA
:100A0000CA02819391939FCFF0E0E0E09CCFCF9317
:100A1000DF930097E9F0FC01329713821282A091D4
:100A2000CC02B091CD02ED0130E020E01097A1F4AE
:100A300020813181820F931F2091CA023091CB0215
:100A40002817390709F061C0F093CB02E093CA027E
:100A5000DF91CF910895EA01CE17DF07E8F54A81CB
:100A60005B819E0141155105B1F7E901FB83EA83E2
:100A700049915991C40FD51FEC17FD0761F480818E
:100A800091810296840F951FE90199838883828161
:100A900093819B838A83F0E0E0E012968D919C9194
:100AA00013970097B9F52D913C911197CD010296BE
:100AB000820F931F2091CA023091CB022817390769
:100AC00039F6309751F51092CD021092CC02B093C6
:100AD000CB02A093CA02BCCFD383C2834081518191
:100AE000840F951FC817D90761F44E5F5F4F888147
:100AF0009981480F591F518340838A819B81938339
:100B000082832115310509F0B0CFF093CD02E09337
:100B1000CC029ECFFD01DC01C0CF13821282D7CF61
:100B20004F925F926F927F928F929F92AF92BF92FD
:100B3000CF92DF92EF92FF920F931F93CF93DF93A9
:100B40008C01009799F4CB01DF91CF911F910F9108
:100B5000FF90EF90DF90CF90BF90AF909F908F90DD
:100B60007F906F905F904F900C946B04FC01E60FA8
:100B7000F71F9C0122503109E217F30708F4AEC0B9
:100B8000D901CD91DC911197C617D70720F1C53057
:100B9000D10578F0CE0104978617970750F0C61B51
:100BA000D70B2297C193D1936D937C93CF010E9471
:100BB0000705C801DF91CF911F910F91FF90EF9032
:100BC000DF90CF90BF90AF909F908F907F906F906D
:100BD0005F904F9008955B01AC1ABD0A4C018C0EDA
:100BE0009D1EA091CC02B091CD02512C412CF12C34
:100BF000E12C109731F58091CA029091CB028815B3
:100C0000990509F05CC04616570608F058C0809157
:100C1000000290910102009741F48DB79EB7409178
:100C2000040250910502841B950BE817F90708F0A0
:100C300055C0F093CB02E093CA02F901718360833F
:100C4000B8CF8D919C91119712966C901297139634
:100C50007C901397A815B90559F56C0142E0C40EB4
:100C6000D11CCA14DB0420F1AC014A195B09DA017A
:100C70001296159780F06282738251834083D90166
:100C80006D937C93E114F10471F0D7011396FC93FA
:100C9000EE9312978ECF22968C0F9D1FF9019183B0
:100CA0008083F301EFCFF093CD02E093CC0281CFAC
:100CB0004816590608F42C017D01D3019ACFCB01C7
:100CC0000E946B047C01009749F0AE01B8010E94BC
:100CD0007106C8010E94070587016BCF10E000E094
:100CE00068CFFB01DC0102C001900D9241505040E1
:100CF000D8F70895FB01DC0101900D920020E1F787
:100D0000089510E0C5E8D0E000E006C0802FFE01A5
:100D10000E9463042196011DC638D10780E00807B0
:060D2000A9F7F894FFCFD3
:100D26000000CE028000000000004F01B900E6007E
:0C0D36009C011701F50009010D0A0000E6
:00000001FF
