:100000000C94A1000C94D2000C94D2000C94D20059
:100010000C94D2000C94D2000C94D2000C94D20018
:100020000C94D2000C94D2000C94D2000C94D20008
:100030000C94D2000C94D2000C94D2000C94D200F8
:100040000C94D2000C94D2000C94D2000C94D200E8
:100050000C94D2000C94D2000C94D2000C94460361
:100060000C94D2000C9410030C94E6020C94D20071
:100070000C94D2000C94D2000C94D2000C94D200B8
:100080000C94D2000C94D2000C94D2000C94D200A8
:100090000C94D2000C94D2000C94D2000C94D20098
:1000A0000C94D2000C94D2000C94D2000C94D20088
:1000B0000C94D2000C94D2000C94D2000C94D20078
:1000C0000C94D2000C94D2000C94D2000C94D20068
:1000D0000C94D2000C94D2000C94D2000C94D20058
:1000E0000C94D2000C946B050C9410010C947201CA
:1000F0000C94D4000C94F7010C94AA010C94010107
:100100000C9464014E414E494E495459494E46CDD6
:10011000CCCC3D0AD7233C17B7D13877CC2B3295BE
:1001200095E6241FB14F0A000020410000C842009C
:10013000401C4620BCBE4CCA1B0E5AAEC59D740066
:100140006B0511241FBECFEFD1E2DEBFCDBF00E0B3
:100150000CBF22E0A8E2B2E001C01D92A83DB207A8
:10016000E1F712E0A0E0B2E0E8E8F6E100E00BBF62
:1001700002C007900D92A832B107D9F710E0C1EA8A
:10018000D0E000E006C021970109802FFE010E9407
:100190002409C03AD10780E00807A9F70E9490031C
:1001A0000C94420B0C940000AF92BF92CF92DF925E
:1001B000EF92FF920F931F93CF93DF936C017B011C
:1001C0008B01040F151FEB015E01AE18BF08C017AD
:1001D000D10759F06991D601ED91FC910190F08120
:1001E000E02DC6011995892B79F7C501DF91CF91D3
:1001F0001F910F91FF90EF90DF90CF90BF90AF9045
:100200000895FC01538D448D252F30E0842F90E01C
:10021000821B930B541710F0CF9608950197089501
:10022000FC01918D828D981761F0A28DAE0FBF2FCA
:10023000B11D5D968C91928D9F5F9F73928F90E020
:1002400008958FEF9FEF08952FB7F89480913102B2
:1002500090913202A0913302B09134022FBF80936B
:100260003D0290933E02A0933F02B093400285E38B
:1002700092E00E94100197FF26C02FB7F89480915A
:10028000310290913202A0913302B09134022FBF1B
:1002900040913D0250913E0260913F0270914002B8
:1002A000841B950BA60BB70B4091390250913A0273
:1002B00060913B0270913C0284179507A607B7072F
:1002C000B0F28FEF9FEF0895FC01918D828D98170A
:1002D00031F0828DE80FF11D858D90E008958FEF4C
:1002E0009FEF0895FC01918D228D892F90E0805C15
:1002F0009F4F821B91098F739927089585E392E0A0
:100300000E94720121E0892B09F420E0822F0895D8
:10031000FC01A48DA80FB92FB11DA35ABF4F2C917A
:10032000848D90E001968F739927848FA689B78971
:100330002C93A089B1898C91837080648C93938D68
:10034000848D981306C00288F389E02D80818F7D0B
:1003500080830895EF92FF920F931F93CF93DF93C3
:10036000EC0181E0888F9B8D8C8D98131AC0E889F1
:10037000F989808185FF15C09FB7F894EE89FF89C0
:100380006083E889F98980818370806480839FBF5E
:1003900081E090E0DF91CF911F910F91FF90EF905E
:1003A0000895F62E0B8D10E00F5F1F4F0F7311276E
:1003B000E02E8C8D8E110CC00FB607FCFACFE889A9
:1003C000F989808185FFF5CFCE010E948801F1CFA8
:1003D000EB8DEC0FFD2FF11DE35AFF4FF0829FB71D
:1003E000F8940B8FEA89FB8980818062CFCFCF930D
:1003F000DF93EC01888D8823B9F0AA89BB89E8894D
:10040000F9898C9185FD03C0808186FD0DC00FB6F2
:1004100007FCF7CF8C9185FFF2CF808185FFEDCF70
:10042000CE010E948801E9CFDF91CF91089580E04D
:1004300090E0892B29F00E947E0181110E9400002A
:1004400080E090E0892B49F080E090E0892B29F052
:100450000E94000081110E94000080E090E0892B42
:1004600049F080E090E0892B29F00E940000811182
:100470000E94000080E090E0892B49F080E090E04D
:10048000892B29F00E94000081110C94000008952E
:100490003FB7F8948091290290912A02A0912B02F3
:1004A000B0912C0226B5A89B05C02F3F19F00196EC
:1004B000A11DB11D3FBFBA2FA92F982F8827BC01BE
:1004C000CD01620F711D811D911D42E0660F771FE6
:1004D000881F991F4A95D1F70895FC0101900020CB
:1004E000E9F73197AF01481B590BBC0185E392E056
:1004F0000C94D4008F929F92AF92BF920F931F9350
:10050000CF93DF93CDB7DEB7A1970FB6F894DEBFD8
:100510000FBECDBF19A2423008F44AE08E010F5D34
:100520001F4F842E912CB12CA12CA50194010E9467
:100530000209E62FB901CA01EA30F4F4E05DD801FE
:10054000EE938D01232B242B252B79F790E080E06F
:10055000109719F0CD010E946D02A1960FB6F89484
:10056000DEBF0FBECDBFDF91CF911F910F91BF9026
:10057000AF909F908F900895E95CE1CF0F931F9308
:10058000CF93DF93EC0188819981009759F02A81FC
:100590003B812617370730F081E0DF91CF911F9123
:1005A0000F9108958B016F5F7F4F0E94510A009752
:1005B00059F0998388831B830A832C813D81232BE7
:1005C00059F7FC011082E8CF80E0E7CF1F920F922D
:1005D0000FB60F9211240BB60F922F933F934F93A8
:1005E0005F936F937F938F939F93AF93BF93EF939B
:1005F000FF9385E392E00E948801FF91EF91BF9104
:10060000AF919F918F917F916F915F914F913F91AA
:100610002F910F900BBE0F900FBE0F901F9018954B
:100620001F920F920FB60F9211240BB60F922F93B9
:100630008F939F93EF93FF93E0914502F0914602D1
:100640008081E0914B02F0914C0282FD1DC09081AF
:1006500080914E028F5F8F7320914F02821741F07D
:10066000E0914E02F0E0EB5CFD4F958F80934E02DF
:10067000FF91EF919F918F912F910F900BBE0F9053
:100680000FBE0F901F9018958081F2CF1F920F928E
:100690000FB60F9211242F933F938F939F93AF9395
:1006A000BF938091310290913202A0913302B091B8
:1006B00034023091280223E0230F2D3758F501969C
:1006C000A11DB11D20932802809331029093320224
:1006D000A0933302B09334028091290290912A02B0
:1006E000A0912B02B0912C020196A11DB11D809307
:1006F000290290932A02A0932B02B0932C02BF915F
:10070000AF919F918F913F912F910F900FBE0F90BE
:100710001F90189526E8230F0296A11DB11DD2CF78
:10072000CF93DF9300D000D01F921F92CDB7DEB7DA
:10073000789484B5826084BD84B5816084BD85B5BC
:10074000826085BD85B5816085BD80916E008160C8
:1007500080936E001092810080918100826080936E
:100760008100809181008160809381008091800070
:100770008160809380008091B10084608093B1009B
:100780008091B00081608093B00080919100826080
:10079000809391008091910081608093910080917D
:1007A00090008160809390008091A100826080938E
:1007B000A1008091A10081608093A1008091A000A0
:1007C00081608093A000809121018260809321014B
:1007D00080912101816080932101809120018160BD
:1007E0008093200180917A00846080937A008091C8
:1007F0007A00826080937A0080917A008160809391
:100800007A0080917A00806880937A001092C1000B
:10081000E0914502F091460282E08083E09141023E
:10082000F09142021082E0914302F09144028FEC79
:10083000808310924D02E0914902F0914A0286E0D5
:100840008083E0914702F09148028081806180833B
:10085000E0914702F0914802808188608083E091B6
:100860004702F0914802808180688083E0914702CE
:10087000F091480280818F7D808385E392E00E9421
:100880007201181619060CF06DC01A8219821C82AA
:100890001B821E821D8270E060E0CE0101960E94E4
:1008A000BE0229813A8181112CC02115310519F030
:1008B000C9010E94C8091A8219821E821D821C82E7
:1008C0001B820E94240197FD24C08F831886ED802F
:1008D000FE802FEFE21AF20AB701CE0101960E94C4
:1008E000BE02882371F329813A818D819E81BE01E8
:1008F000695F7F4F820F931F0E943B0BFE82ED8248
:10090000E0CF1E821D8266E272E0C9010E943B0BAD
:10091000D8CF89819A81C12CD12C7601009721F002
:100920000E9498056B017C01C0922D02D0922E028C
:10093000E0922F02F092300289819A81009711F0A3
:100940000E94C809A7019601C701B6010E94FD08CF
:10095000882379F188E192E00E946D0284E292E0BE
:100960000E946D020E9448024B015C0184E6C82E81
:10097000D12CE12CF12C0E944802681979098A09CE
:100980009B09683E734081059105A8F381E0C81A70
:10099000D108E108F10828EE820E23E0921EA11C86
:1009A000B11CC114D104E104F10429F70E9417021B
:1009B00064CF46015701E894B7F82FEF3FEF4FE7B8
:1009C0005FE7C501B4010E94FD0881110DC02FEF42
:1009D0003FEF4FE75FE7C501B4010E941B07181600
:1009E0001CF48CE192E0B8CF2FEF3FEF4FE75FE4CC
:1009F000C701B6010E94F80818161CF480E292E0C4
:100A0000ABCF2FEF3FEF4FE75FECC701B6010E947E
:100A10001B0787FDF3CF20E030E0A901C701B60135
:100A20000E941B0787FF09C06DE285E392E00E94E8
:100A3000AA01F7FAF094F7F8F0942AE037ED43EAC8
:100A40005BE3C701B6010E945D084B015C010E9497
:100A5000C9086B017C010E9420079B01AC01C50104
:100A6000B4010E945C084B015C014AE0C701B60179
:100A70000E947A026EE285E392E00E94AA0120E0E1
:100A800030E040E251E4C501B4010E9481074B010E
:100A90005C010E94C9086B01F12CE12C4AE0C701FE
:100AA000B6010E947A02C701B6010E9420079B018D
:100AB000AC01C501B4010E945C0820E030E040E2D6
:100AC00051E40E9481070E94C90890E080E04AE05A
:100AD0000E947A0243CFE5E3F2E01382128288EEAD
:100AE00093E0A0E0B0E084839583A683B7838AE097
:100AF00092E09183808385EC90E09587848784ECF5
:100B000090E09787868780EC90E0918B808B81ECDA
:100B100090E0938B828B82EC90E0958B848B86ECBB
:100B200090E0978B868B118E128E138E148E089503
:100B3000662777270C949C058F929F92AF92BF9265
:100B4000CF92DF92EF92FF920F931F93CF93DF9399
:100B50005C017B016115710519F0DB018D939C939C
:100B600085010F5F1F4FF501D0818D2F90E00E940E
:100B7000FA066C01892BB9F5DD32B9F50F5F1F4F0D
:100B8000D5011196DC91C1E05801F1E0AF1AB1082E
:100B900043E050E06CE071E0C5010E940307892B3F
:100BA00069F5680182E0C80ED11C45E050E067E0BD
:100BB00071E0C6010E940307892B21F4680197E0C8
:100BC000C90ED11CE114F10419F0D701CD92DC92C9
:100BD00060E070E080E89FEFC111FFC060E070E06E
:100BE00080E89FE7FAC05801BBCFDB3229F48501CA
:100BF0000E5F1F4FF501D181C0E0C6CF43E050E04A
:100C000064E071E0C5010E940307892BE9F0F80157
:100C100010E000E020E030E0A9015F01B0ED8B2E94
:100C20008D0E89E08815C8F19C2E689491F88C2F60
:100C30008870C2FF16C0811102C00F5F1F4F31962E
:100C4000D501DC91C92DE9CFE114F10429F00E5F43
:100C50001F4FF7011183008360E070E080EC9FE795
:100C6000BCC0882311F001501109A5E0B0E00E943A
:100C700042089B01AC01220F331F441F551F280D52
:100C8000311D411D511D283999E93907490799E15D
:100C90005907A8F2C6609C2ED2CFAEEF8A1206C0CA
:100CA000C3FD3CC09C2E689493F8C9CFDF7DD5343A
:100CB000A9F580818D3239F4C061DF0112968181FE
:100CC00062E070E006C0DF018B32C1F3119661E093
:100CD00070E080535D01A61AB70A8A30F8F4E0E8A4
:100CE000CE16ECE0DE065CF4B601660F771F660FE9
:100CF000771FC60ED71ECC0CDD1CC80ED11C5D01A3
:100D0000FFEFAF1ABF0A8C9180538A30A8F1C4FF5D
:100D100003C0D194C194D1080C0D1D1DC1FF09C0A1
:100D2000E114F10431F081E0A81AB108D701AD92C5
:100D3000BC92CA01B9010E942007C370C33009F4F4
:100D400090584B015C0120E030E0A9010E941B0794
:100D5000882309F440C0CBE3D1E017FF05C011950B
:100D600001951109C3E2D1E06E01B8E1CB1AD108B7
:100D700080E2E82EF12C0FC0D501B1CFFE01259104
:100D80003591459154910E191F09C501B4010E9476
:100D900081074B015C01D501C4010E151F0574F7D5
:100DA0002497F594E794CC16DD06A9F78A2F880FCF
:100DB0008B2F881F8F3F49F020E030E0A901C5014B
:100DC000B4010E941B07811106C082E290E090935B
:100DD000D3028093D202C501B401DF91CF911F915C
:100DE0000F91FF90EF90DF90CF90BF90AF909F90CA
:100DF0008F90089591110C94EE07803219F089506C
:100E00008550C8F70895FB01DC014150504088F03F
:100E10008D9181341CF08B350CF4805E65916134CA
:100E20001CF06B350CF4605E861B611171F3990B3D
:100E30000895881BFCCF0E945D0708F481E00895A7
:100E4000E89409C097FB3EF4909580957095619564
:100E50007F4F8F4F9F4F9923A9F0F92F96E9BB271A
:100E60009395F695879577956795B795F111F8CF96
:100E7000FAF4BB0F11F460FF1BC06F5F7F4F8F4F01
:100E80009F4F16C0882311F096E911C0772321F0F7
:100E90009EE8872F762F05C0662371F096E8862F8F
:100EA00070E060E02AF09A95660F771F881FDAF7E6
:100EB000880F9695879597F90895990F0008550F13
:100EC000AA0BE0E8FEEF16161706E807F907C0F0D0
:100ED00012161306E407F50798F0621B730B840BD8
:100EE000950B39F40A2661F0232B242B252B21F4B2
:100EF00008950A2609F4A140A6958FEF811D811D52
:100F000008950E9494070C9408080E94FA0738F08C
:100F10000E94010820F0952311F00C94F1070C9425
:100F2000F70711240C943C080E94190870F3959F50
:100F3000C1F3950F50E0551F629FF001729FBB27D0
:100F4000F00DB11D639FAA27F00DB11DAA1F649F6C
:100F50006627B00DA11D661F829F2227B00DA11D1F
:100F6000621F739FB00DA11D621F839FA00D611DA5
:100F7000221F749F3327A00D611D231F849F600DC6
:100F8000211D822F762F6A2F11249F5750409AF0EF
:100F9000F1F088234AF0EE0FFF1FBB1F661F771F7B
:100FA000881F91505040A9F79E3F510580F00C9446
:100FB000F1070C943C085F3FE4F3983ED4F3869528
:100FC00077956795B795F795E7959F5FC1F7FE2BE6
:100FD000880F911D9695879597F9089599278827E9
:100FE000089597F99F6780E870E060E008959FEFAB
:100FF00080EC089500240A941616170618060906B0
:10100000089500240A94121613061406050608957E
:10101000092E0394000C11F4882352F0BB0F40F406
:10102000BF2B11F460FF04C06F5F7F4F8F4F9F4F46
:10103000089557FD9058440F551F59F05F3F71F0C8
:101040004795880F97FB991F61F09F3F79F087952F
:101050000895121613061406551FF2CF4695F1DFB8
:1010600008C0161617061806991FF1CF8695710548
:10107000610508940895E894BB2766277727CB017C
:1010800097F908950E944D08A59F900DB49F900D6B
:10109000A49F800D911D11240895A29FB001B39FBC
:1010A000C001A39F700D811D1124911DB29F700D71
:1010B000811D1124911D08955058BB27AA270E9415
:1010C00074080C9408080E94FA0738F00E9401087E
:1010D00020F039F49F3F19F426F40C94F7070EF42E
:1010E000E095E7FB0C94F107E92F0E94190858F3EB
:1010F000BA17620773078407950720F079F4A6F5FD
:101100000C943B080EF4E0950B2EBA2FA02D0B018A
:10111000B90190010C01CA01A0011124FF27591B3C
:1011200099F0593F50F4503E68F11A16F040A22F42
:10113000232F342F4427585FF3CF469537952795B3
:10114000A795F0405395C9F77EF41F16BA0B620BB2
:10115000730B840BBAF09150A1F0FF0FBB1F661FF9
:10116000771F881FC2F70EC0BA0F621F731F841F3C
:1011700048F4879577956795B795F7959E3F08F062
:10118000B0CF9395880F08F09927EE0F9795879524
:1011900008950E94210888F09F5798F0B92F992749
:1011A000B751B0F0E1F0660F771F881F991F1AF052
:1011B000BA95C9F714C0B13091F00E943B08B1E074
:1011C00008950C943B08672F782F8827B85F39F073
:1011D000B93FCCF3869577956795B395D9F73EF4EB
:1011E00090958095709561957F4F8F4F9F4F089593
:1011F0000E945D0708F48FEF08950E945D07880B39
:10120000990B0895A1E21A2EAA1BBB1BFD010DC06C
:10121000AA1FBB1FEE1FFF1FA217B307E407F507A6
:1012200020F0A21BB30BE40BF50B661F771F881F82
:10123000991F1A9469F760957095809590959B0118
:10124000AC01BD01CF010895EE0FFF1F881F8BBFBA
:101250000790F691E02D19940F931F93CF93DF938E
:101260008230910510F482E090E0E091D602F09196
:10127000D70230E020E0B0E0A0E0309799F42115EB
:10128000310509F44AC0281B390B24303105D8F543
:101290008A819B816115710589F1FB0193838283AA
:1012A000FE0111C040815181028113814817590705
:1012B000E0F04817590799F4109761F012960C93D3
:1012C000129713961C933296CF01DF91CF911F9105
:1012D0000F9108950093D6021093D702F4CF2115F1
:1012E000310551F04217530738F0A901DB019A018B
:1012F000BD01DF01F801C1CFEF01F9CF9093D70213
:101300008093D602CDCFFE01E20FF31F819391931C
:101310002250310939832883D7CF2091D4023091CC
:10132000D502232B41F42091020230910302309325
:10133000D5022093D40220910002309101022115A0
:10134000310541F42DB73EB740910402509105029A
:10135000241B350BE091D402F091D502E217F3077C
:10136000A0F42E1B3F0B2817390778F0AC014E5F15
:101370005F4F2417350748F04E0F5F1F5093D5027B
:101380004093D402819391939FCFF0E0E0E09CCF13
:10139000CF93DF930097E9F0FC013297138212821A
:1013A000A091D602B091D702ED0130E020E0109775
:1013B000A1F420813181820F931F2091D4023091BA
:1013C000D5022817390709F061C0F093D502E093E0
:1013D000D402DF91CF910895EA01CE17DF07E8F537
:1013E0004A815B819E0141155105B1F7E901FB83FB
:1013F000EA8349915991C40FD51FEC17FD0761F499
:10140000808191810296840F951FE90199838883D9
:10141000828193819B838A83F0E0E0E012968D9134
:101420009C9113970097B9F52D913C911197CD019F
:101430000296820F931F2091D4023091D502281773
:10144000390739F6309751F51092D7021092D6022B
:10145000B093D502A093D402BCCFD383C283408182
:101460005181840F951FC817D90761F44E5F5F4FF4
:1014700088819981480F591F518340838A819B81BC
:10148000938382832115310509F0B0CFF093D70201
:10149000E093D6029ECFFD01DC01C0CF1382128201
:1014A000D7CF4F925F926F927F928F929F92AF921F
:1014B000BF92CF92DF92EF92FF920F931F93CF9341
:1014C000DF938C01009799F4CB01DF91CF911F91AD
:1014D0000F91FF90EF90DF90CF90BF90AF909F90D3
:1014E0008F907F906F905F904F900C942C09FC012F
:1014F000E60FF71F9C0122503109E217F30708F4A9
:10150000AEC0D901CD91DC911197C617D70720F154
:10151000C530D10578F0CE0104978617970750F0B3
:10152000C61BD70B2297C193D1936D937C93CF01A8
:101530000E94C809C801DF91CF911F910F91FF90C0
:10154000EF90DF90CF90BF90AF909F908F907F9063
:101550006F905F904F9008955B01AC1ABD0A4C01EB
:101560008C0E9D1EA091D602B091D702512C412C19
:10157000F12CE12C109731F58091D4029091D50295
:101580008815990509F05CC04616570608F058C042
:101590008091000290910102009741F48DB79EB7AF
:1015A0004091040250910502841B950BE817F9073E
:1015B00008F055C0F093D502E093D402F90171838D
:1015C0006083B8CF8D919C91119712966C90129771
:1015D00013967C901397A815B90559F56C0142E054
:1015E000C40ED11CCA14DB0420F1AC014A195B09FA
:1015F000DA011296159780F06282738251834083DC
:10160000D9016D937C93E114F10471F0D701139625
:10161000FC93EE9312978ECF22968C0F9D1FF901AB
:1016200091838083F301EFCFF093D702E093D6024A
:1016300081CF4816590608F42C017D01D3019ACFB9
:10164000CB010E942C097C01009749F0AE01B80142
:101650000E94320BC8010E94C80987016BCF10E0BD
:1016600000E068CFFB01DC0102C001900D92415007
:101670005040D8F70895FB01DC0101900D92002045
:08168000E1F70895F894FFCF93
:101688000000D802800000000000AA01D400010177
:10169800F7017201100164016E616E00696E6600E7
:0816A8006F7666000D0A0000D8
:00000001FF
