:100000000C9486000C94B7000C94B7000C94B700C5
:100010000C94B7000C94B7000C94B7000C94B70084
:100020000C94B7000C94B7000C94B7000C94B70074
:100030000C94B7000C94B7000C94B7000C94B70064
:100040000C94B7000C94B7000C94B7000C94B70054
:100050000C94B7000C94B7000C94B7000C94DB021E
:100060000C94B7000C94A5020C947B020C94B7007E
:100070000C94B7000C94B7000C94B7000C94B70024
:100080000C94B7000C94B7000C94B7000C94B70014
:100090000C94B7000C94B7000C94B7000C94B70004
:1000A0000C94B7000C94B7000C94B7000C94B700F4
:1000B0000C94B7000C94B7000C94B7000C94B700E4
:1000C0000C94B7000C94B7000C94B7000C94B700D4
:1000D0000C94B7000C94B7000C94B7000C94B700C4
:1000E0000C94B7000C94E7000C9490010C94BA00A7
:1000F0000C94F6000C94DD010C9458010C9425032B
:100100000C940E050C944A0125030E0511241FBE04
:10011000CFEFD1E2DEBFCDBF00E00CBF22E0ACE10B
:10012000B2E001C01D92AC3CB207E1F712E0A0E0E2
:10013000B2E0EEE8FEE000E00BBF02C007900D92D7
:10014000AC31B107D9F710E0C5E8D0E000E006C057
:1001500021970109802FFE010E941705C438D1079D
:1001600080E00807A9F70E949B030C9435070C94C4
:1001700000000895AF92BF92CF92DF92EF92FF926C
:100180000F931F93CF93DF936C017B018B01040FBF
:10019000151FEB015E01AE18BF08C017D10759F05B
:1001A0006991D601ED91FC910190F081E02DC6019D
:1001B0001995892B79F7C501DF91CF911F910F9187
:1001C000FF90EF90DF90CF90BF90AF900895FC012B
:1001D000538D448D252F30E0842F90E0821B930BAC
:1001E000541710F0CF96089501970895FC01918D52
:1001F000828D981761F0A28DAE0FBF2FB11D5D9655
:100200008C91928D9F5F9F73928F90E008958FEFF6
:100210009FEF08952FB7F8948091210290912202C8
:10022000A0912302B09124022FBF80932D029093BE
:100230002E02A0932F02B093300285E292E00E943A
:10024000F60097FF26C02FB7F89480912102909175
:100250002202A0912302B09124022FBF40912D02CF
:1002600050912E0260912F0270913002841B950BE9
:10027000A60BB70B4091290250912A0260912B02E4
:1002800070912C0284179507A607B707B0F28FEF7D
:100290009FEF0895FC01918D828D981731F0828D2A
:1002A000E80FF11D858D90E008958FEF9FEF089581
:1002B000FC01918D228D892F90E0805C9F4F821BE5
:1002C00091098F739927089585E292E00E94580161
:1002D00021E0892B09F420E0822F0895FC01A48DF0
:1002E000A80FB92FB11DA35ABF4F2C91848D90E058
:1002F00001968F739927848FA689B7892C93A0893B
:10030000B1898C91837080648C93938D848D9813C4
:1003100006C00288F389E02D80818F7D8083089557
:10032000EF92FF920F931F93CF93DF93EC0181E045
:10033000888F9B8D8C8D98131AC0E889F9898081EC
:1003400085FF15C09FB7F894EE89FF896083E8891F
:10035000F98980818370806480839FBF81E090E011
:10036000DF91CF911F910F91FF90EF900895F62E9E
:100370000B8D10E00F5F1F4F0F731127E02E8C8D38
:100380008E110CC00FB607FCFACFE889F98980817D
:1003900085FFF5CFCE010E946E01F1CFEB8DEC0F02
:1003A000FD2FF11DE35AFF4FF0829FB7F8940B8F9A
:1003B000EA89FB8980818062CFCFCF93DF93EC0104
:1003C000888D8823B9F0AA89BB89E889F9898C913D
:1003D00085FD03C0808186FD0DC00FB607FCF7CFF9
:1003E0008C9185FFF2CF808185FFEDCFCE010E94F9
:1003F0006E01E9CFDF91CF91089580E090E0892BE5
:1004000029F00E94640181110E94000080E090E0C8
:10041000892B49F080E090E0892B29F00E940000B0
:1004200081110E94000080E090E0892B49F080E07B
:1004300090E0892B29F00E94000081110E940000A9
:1004400080E090E0892B49F080E090E0892B29F052
:100450000E94000081110C94000008953FB7F894A9
:1004600080911D0290911E02A0911F02B091200266
:1004700026B5A89B05C02F3F19F00196A11DB11DFF
:100480003FBFBA2FA92F982F8827BC01CD01620F3B
:10049000711D811D911D42E0660F771F881F991FF6
:1004A0004A95D1F708950F931F93CF93DF93EC01F3
:1004B00088819981009759F02A813B812617370757
:1004C00030F081E0DF91CF911F910F9108958B0162
:1004D0006F5F7F4F0E944406009759F0998388838D
:1004E0001B830A832C813D81232B59F7FC01108249
:1004F000E8CF80E0E7CF1F920F920FB60F92112442
:100500000BB60F922F933F934F935F936F937F930D
:100510008F939F93AF93BF93EF93FF9385E292E006
:100520000E946E01FF91EF91BF91AF919F918F91CA
:100530007F916F915F914F913F912F910F900BBEE3
:100540000F900FBE0F901F9018951F920F920FB62D
:100550000F9211240BB60F922F938F939F93EF93CB
:10056000FF93E0913502F09136028081E0913B02E9
:10057000F0913C0282FD1DC0908180913E028F5F10
:100580008F7320913F02821741F0E0913E02F0E02C
:10059000EB5DFD4F958F80933E02FF91EF919F9110
:1005A0008F912F910F900BBE0F900FBE0F901F9049
:1005B00018958081F2CF1F920F920FB60F921124DF
:1005C0002F933F938F939F93AF93BF93809121027B
:1005D00090912202A0912302B091240230911C023A
:1005E00023E0230F2D3758F50196A11DB11D20934F
:1005F0001C028093210290932202A0932302B093C5
:10060000240280911D0290911E02A0911F02B091C0
:1006100020020196A11DB11D80931D0290931E0220
:10062000A0931F02B0932002BF91AF919F918F9131
:100630003F912F910F900FBE0F901F90189526E8B5
:10064000230F0296A11DB11DD2CF10922802109245
:10065000270288EE93E0A0E0B0E080932902909317
:100660002A02A0932B02B0932C028AE092E090938E
:1006700026028093250285EC90E0909332028093CD
:10068000310284EC90E0909334028093330280EC4A
:1006900090E0909336028093350281EC90E0909345
:1006A00038028093370282EC90E090933A02809374
:1006B000390286EC90E090933C0280933B021092CA
:1006C0003E0210923F02109240021092410210929C
:1006D000C3021092C2021092C5021092C40210927C
:1006E000C7021092C60270E060E082EC92E00E94C5
:1006F00053022091C2023091C302811113C021150F
:10070000310519F0C9010E94BB051092C302109275
:10071000C2021092C7021092C6021092C502109235
:10072000C40208951092C7021092C6026AE172E0F4
:10073000C9010C942E07CF93DF9300D000D01F92F5
:100740001F92CDB7DEB7789484B5826084BD84B53E
:10075000816084BD85B5826085BD85B5816085BDBC
:1007600080916E00816080936E0010928100809174
:1007700081008260809381008091810081608093FC
:100780008100809180008160809380008091B10021
:1007900084608093B1008091B00081608093B0004C
:1007A000809191008260809391008091910081609E
:1007B000809391008091900081608093900080915F
:1007C000A10082608093A1008091A100816080934C
:1007D000A1008091A00081608093A0008091210100
:1007E00082608093210180912101816080932101A9
:1007F0008091200181608093200180917A00846043
:1008000080937A0080917A00826080937A00809150
:100810007A00816080937A0080917A00806880936A
:100820007A001092C100E0913502F091360282E028
:100830008083E0913102F09132021082E091330224
:10084000F09134028FEC808310923D02E0913902E6
:10085000F0913A0286E08083E0913702F09138020D
:10086000808180618083E0913702F091380280813D
:1008700088608083E0913702F0913802808180683F
:100880008083E0913702F091380280818F7D8083F0
:1008900085E292E00E945801181619060CF07EC0FD
:1008A0001A8219821C821B821E821D8270E060E007
:1008B000CE0101960E94530229813A8181112BC0F9
:1008C0002115310519F0C9010E94BB051A82198250
:1008D0001E821D821C821B820E940A0197FD23C07A
:1008E0008F8318860D811E810F5F1F4FB801CE01C7
:1008F00001960E945302882379F329813A818D81E0
:100900009E81BE01695F7F4F820F931F0E942E0759
:100910001E830D83E1CF1E821D826AE172E0C90150
:100920000E942E07D9CF8091C2029091C3020097F6
:1009300009F45DC069817A816115710509F455C0BA
:100940004091C4025091C5022D813E814217530748
:1009500008F44BC00E942E078D819E819093C702A0
:100960008093C6021E821D8289819A81009711F0B0
:100970000E94BB054091C6025091C7026091C2021D
:100980007091C30285E292E00E94BA0042E050E01A
:1009900068E172E085E292E00E94BA000E942E02B5
:1009A0004B015C0184E6C82ED12CE12CF12C0E9475
:1009B0002E02681979098A099B09683E73408105EE
:1009C0009105A8F321E0C21AD108E108F10888EEE8
:1009D000880E83E0981EA11CB11CC114D104E1044F
:1009E000F10429F70E94FD0153CF0E94BB058981C4
:1009F0009A819093C3028093C2028B819C819093D1
:100A0000C5028093C4028D819E819093C70280931A
:100A1000C6021A8219821C821B82A4CF8091C20254
:100A20009091C302009711F00C94BB050895EE0F4E
:100A3000FF1F881F8BBF0790F691E02D19940F932D
:100A40001F93CF93DF938230910510F482E090E002
:100A5000E091CA02F091CB0230E020E0B0E0A0E0EB
:100A6000309799F42115310509F44AC0281B390B38
:100A700024303105D8F58A819B816115710589F192
:100A8000FB0193838283FE0111C040815181028169
:100A9000138148175907E0F04817590799F4109740
:100AA00061F012960C93129713961C933296CF0115
:100AB000DF91CF911F910F9108950093CA02109377
:100AC000CB02F4CF2115310551F04217530738F00E
:100AD000A901DB019A01BD01DF01F801C1CFEF01DE
:100AE000F9CF9093CB028093CA02CDCFFE01E20FE3
:100AF000F31F819391932250310939832883D7CFF3
:100B00002091C8023091C902232B41F420910202A6
:100B1000309103023093C9022093C8022091000251
:100B2000309101022115310541F42DB73EB74091B6
:100B3000040250910502241B350BE091C802F0918C
:100B4000C902E217F307A0F42E1B3F0B2817390741
:100B500078F0AC014E5F5F4F2417350748F04E0F19
:100B60005F1F5093C9024093C802819391939FCF16
:100B7000F0E0E0E09CCFCF93DF930097E9F0FC0139
:100B8000329713821282A091CA02B091CB02ED017A
:100B900030E020E01097A1F420813181820F931F73
:100BA0002091C8023091C9022817390709F061C0A5
:100BB000F093C902E093C802DF91CF910895EA0152
:100BC000CE17DF07E8F54A815B819E01411551058B
:100BD000B1F7E901FB83EA8349915991C40FD51F0D
:100BE000EC17FD0761F4808191810296840F951FB7
:100BF000E90199838883828193819B838A83F0E0D2
:100C0000E0E012968D919C9113970097B9F52D9184
:100C10003C911197CD010296820F931F2091C8023B
:100C20003091C9022817390739F6309751F51092DB
:100C3000CB021092CA02B093C902A093C802BCCFE3
:100C4000D383C28340815181840F951FC817D90770
:100C500061F44E5F5F4F88819981480F591F51831E
:100C600040838A819B81938382832115310509F01A
:100C7000B0CFF093CB02E093CA029ECFFD01DC011E
:100C8000C0CF13821282D7CF4F925F926F927F9222
:100C90008F929F92AF92BF92CF92DF92EF92FF928C
:100CA0000F931F93CF93DF938C01009799F4CB019F
:100CB000DF91CF911F910F91FF90EF90DF90CF9038
:100CC000BF90AF909F908F907F906F905F904F906C
:100CD0000C941F05FC01E60FF71F9C0122503109FF
:100CE000E217F30708F4AEC0D901CD91DC9111975A
:100CF000C617D70720F1C530D10578F0CE0104978B
:100D00008617970750F0C61BD70B2297C193D19334
:100D10006D937C93CF010E94BB05C801DF91CF91F9
:100D20001F910F91FF90EF90DF90CF90BF90AF9009
:100D30009F908F907F906F905F904F9008955B0190
:100D4000AC1ABD0A4C018C0E9D1EA091CA02B09136
:100D5000CB02512C412CF12CE12C109731F58091D4
:100D6000C8029091C9028815990509F05CC0461621
:100D7000570608F058C08091000290910102009738
:100D800041F48DB79EB74091040250910502841B37
:100D9000950BE817F90708F055C0F093C902E093E6
:100DA000C802F90171836083B8CF8D919C9111972E
:100DB00012966C90129713967C901397A815B9050C
:100DC00059F56C0142E0C40ED11CCA14DB0420F1B9
:100DD000AC014A195B09DA011296159780F062821C
:100DE000738251834083D9016D937C93E114F104A4
:100DF00071F0D7011396FC93EE9312978ECF229643
:100E00008C0F9D1FF90191838083F301EFCFF09345
:100E1000CB02E093CA0281CF4816590608F42C0190
:100E20007D01D3019ACFCB010E941F057C01009761
:100E300049F0AE01B8010E942507C8010E94BB0518
:100E400087016BCF10E000E068CFFB01DC0102C03E
:100E500001900D9241505040D8F70895FB01DC01FC
:100E600001900D920020E1F7089510E0C5E8D0E070
:100E700000E006C0802FFE010E9417052196011D8B
:0E0E8000C638D10780E00807A9F7F894FFCF25
:100E8E000000CC028000000000009001BA00E700D4
:0C0E9E00DD015801F6004A010D0A0000B9
:00000001FF
