:100000000C9483000C94B4000C94B4000C94B400D1
:100010000C94B4000C94B4000C94B4000C94B40090
:100020000C94B4000C94B4000C94B4000C94B40080
:100030000C94B4000C94B4000C94B4000C94B40070
:100040000C94B4000C94B4000C94B4000C94B40060
:100050000C94B4000C94B4000C94B4000C942503DC
:100060000C94B4000C94EF020C94C5020C94B400F0
:100070000C94B4000C94B4000C94B4000C94B40030
:100080000C94B4000C94B4000C94B4000C94B40020
:100090000C94B4000C94B4000C94B4000C94B40010
:1000A0000C94B4000C94B4000C94B4000C94B40000
:1000B0000C94B4000C94B4000C94B4000C94B400F0
:1000C0000C94B4000C94B4000C94B4000C94B400E0
:1000D0000C94B4000C94B4000C94B4000C94B400D0
:1000E0000C94B4000C94F2000C9454010C94B600DF
:1000F0000C94D9010C94E3040C948C010C94E3004F
:100100000C944601E30411241FBECFEFD1E2DEBF01
:10011000CDBF00E00CBF22E0ACE1B2E001C01D9217
:10012000AB3CB207E1F712E0A0E0B2E0ECE1FFE0A7
:1001300000E00BBF02C007900D92AC31B107D9F7B8
:1001400010E0C3E8D0E000E006C021970109802F4D
:10015000FE010E946E05C238D10780E00807A9F7AA
:100160000E946F030C948C070C940000AF92BF9216
:10017000CF92DF92EF92FF920F931F93CF93DF9373
:100180006C017B018B01040F151FEB015E01AE18A2
:10019000BF08C017D10759F06991D601ED91FC91C4
:1001A0000190F081E02DC6011995892B79F7C501E1
:1001B000DF91CF911F910F91FF90EF90DF90CF9043
:1001C000BF90AF900895FC01538D448D252F30E0F2
:1001D000842F90E0821B930B541710F0CF96089554
:1001E00001970895FC01918D828D981761F0A28D81
:1001F000AE0FBF2FB11D5D968C91928D9F5F9F7347
:10020000928F90E008958FEF9FEF08952FB7F894A5
:100210008091260290912702A0912802B091290294
:100220002FBF8093320290933302A0933402B09395
:1002300035028AE292E00E94F20097FF26C02FB7B3
:10024000F8948091260290912702A0912802B09103
:1002500029022FBF40913202509133026091340243
:1002600070913502841B950BA60BB70B40912E02A3
:1002700050912F02609130027091310284179507DE
:10028000A607B707B0F28FEF9FEF0895FC01918D9D
:10029000828D981731F0828DE80FF11D858D90E0E9
:1002A00008958FEF9FEF0895FC01918D228D892F86
:1002B00090E0805C9F4F821B91098F73992708956E
:1002C0008AE292E00E94540121E0892B09F420E0A7
:1002D000822F0895FC01A48DA80FB92FB11DA35A38
:1002E000BF4F2C91848D90E001968F739927848F56
:1002F000A689B7892C93A089B1898C918370806479
:100300008C93938D848D981306C00288F389E02D19
:1003100080818F7D80830895EF92FF920F931F93CA
:10032000CF93DF93EC0181E0888F9B8D8C8D9813A8
:100330001AC0E889F989808185FF15C09FB7F894B4
:10034000EE89FF896083E889F98980818370806400
:1003500080839FBF81E090E0DF91CF911F910F914B
:10036000FF90EF900895F62E0B8D10E00F5F1F4F5A
:100370000F731127E02E8C8D8E110CC00FB607FC69
:10038000FACFE889F989808185FFF5CFCE010E94F7
:100390006A01F1CFEB8DEC0FFD2FF11DE35AFF4FFA
:1003A000F0829FB7F8940B8FEA89FB898081806285
:1003B000CFCFCF93DF93EC01888D8823B9F0AA8942
:1003C000BB89E889F9898C9185FD03C0808186FD10
:1003D0000DC00FB607FCF7CF8C9185FFF2CF80815F
:1003E00085FFEDCFCE010E946A01E9CFDF91CF9169
:1003F000089580E090E0892B29F00E94600181112E
:100400000E94000080E090E0892B49F080E090E0BD
:10041000892B29F00E94000081110E94000080E0D9
:1004200090E0892B49F080E090E0892B29F00E9430
:10043000000081110E94000080E090E0892B49F0CB
:1004400080E090E0892B29F00E94000081110C943B
:10045000000008953FB7F89480911D0290911E020C
:10046000A0911F02B091200226B5A89B05C02F3F86
:1004700019F00196A11DB11D3FBFBA2FA92F982FCA
:100480008827BC01CD01620F711D811D911D42E0C5
:10049000660F771F881F991F4A95D1F708958F928D
:1004A0009F92AF92BF920F931F93CF93DF93CDB7DD
:1004B000DEB7A1970FB6F894DEBF0FBECDBF19A26D
:1004C000423008F44AE08E010F5D1F4F842E912CBC
:1004D000B12CA12CA50194010E944C05E62FB90175
:1004E000CA01EA3044F5E05DD801EE938D01232B7B
:1004F000242B252B79F790E080E0109769F0FD011F
:1005000001900020E9F73197AF014A1B5B0BBD0159
:100510008AE292E00E94B600A1960FB6F894DEBF80
:100520000FBECDBFDF91CF911F910F91BF90AF90C4
:100530009F908F900895E95CD7CF0F931F93CF932F
:10054000DF93EC0188819981009759F02A813B81E2
:100550002617370730F081E0DF91CF911F910F917F
:1005600008958B016F5F7F4F0E949B06009759F0A3
:10057000998388831B830A832C813D81232B59F720
:10058000FC011082E8CF80E0E7CF1F920F920FB6F8
:100590000F9211240BB60F922F933F934F935F93BB
:1005A0006F937F938F939F93AF93BF93EF93FF933B
:1005B0008AE292E00E946A01FF91EF91BF91AF91B0
:1005C0009F918F917F916F915F914F913F912F916B
:1005D0000F900BBE0F900FBE0F901F9018951F929B
:1005E0000F920FB60F9211240BB60F922F938F9389
:1005F0009F93EF93FF93E0913A02F0913B02808149
:10060000E0914002F091410282FD1DC090818091F5
:1006100043028F5F8F7320914402821741F0E09173
:100620004302F0E0E65DFD4F958F80934302FF911A
:10063000EF919F918F912F910F900BBE0F900FBE56
:100640000F901F9018958081F2CF1F920F920FB6D6
:100650000F9211242F933F938F939F93AF93BF9348
:100660008091260290912702A0912802B091290240
:1006700030911C0223E0230F2D3758F50196A11D60
:10068000B11D20931C028093260290932702A09311
:100690002802B093290280911D0290911E02A09120
:1006A0001F02B09120020196A11DB11D80931D0271
:1006B00090931E02A0931F02B0932002BF91AF91AE
:1006C0009F918F913F912F910F900FBE0F901F9090
:1006D000189526E8230F0296A11DB11DD2CFCF9306
:1006E000DF9300D000D01F921F92CDB7DEB7789471
:1006F00084B5826084BD84B5816084BD85B5826027
:1007000085BD85B5816085BD80916E0081608093D7
:100710006E00109281008091810082608093810040
:100720008091810081608093810080918000816050
:10073000809380008091B10084608093B1008091AB
:10074000B00081608093B0008091910082608093BE
:100750009100809191008160809391008091900040
:100760008160809390008091A10082608093A100BD
:100770008091A10081608093A1008091A0008160A0
:100780008093A0008091210182608093210180915B
:1007900021018160809321018091200181608093FB
:1007A000200180917A00846080937A0080917A00A1
:1007B000826080937A0080917A00816080937A00D1
:1007C00080917A00806880937A001092C100E09155
:1007D0003A02F0913B0282E08083E0913602F09190
:1007E00037021082E0913802F09139028FEC808359
:1007F00010924202E0913E02F0913F0286E0808337
:10080000E0913C02F0913D02808180618083E09123
:100810003C02F0913D02808188608083E0913C023F
:10082000F0913D02808180688083E0913C02F091EC
:100830003D0280818F7D80831092230210922202DC
:100840001092210211E08AE292E00E9454011816EF
:1008500019060CF064C01A8219821C821B821E8247
:100860001D8270E060E0CE0101960E949D02298108
:100870003A8181112CC02115310519F0C9010E945E
:1008800012061A8219821E821D821C821B820E94FD
:10089000060197FD24C08F831886ED80FE802FEF20
:1008A000E21AF20AB701CE0101960E949D02882346
:1008B00071F329813A818D819E81BE01695F7F4FED
:1008C000820F931F0E948507FE82ED82E0CF1E8279
:1008D0001D826AE172E0C9010E948507D8CFE980D4
:1008E000FA8060E070E0CB01E114F10419F0C70177
:1008F0000E9410056B017093250260932402E1149D
:10090000F10419F0C7010E9412068091230281119F
:100910002DC0D0922202C0922102109323020E9485
:100920002A024B015C0184E6C82ED12CE12CF12C6B
:100930000E942A02681979098A099B09683E734056
:1009400081059105A8F381E0C81AD108E108F108F2
:1009500028EE820E23E0921EA11CB11CC114D1040A
:10096000E104F10429F70E94F9016DCF60912102A1
:1009700070912202C60ED71ED0922202C09221028E
:10098000109223020D2C000CEE08FF084AE0C7016C
:10099000B601F7FE0DC06DE28AE292E00E948C0182
:1009A00066277727CB016C197D098E099F094AE0DC
:1009B0000E944F0242E050E068E172E08AE292E079
:1009C0000E94B600ACCFEAE2F2E01382128288EE17
:1009D00093E0A0E0B0E084839583A683B7838AE0A8
:1009E00092E09183808385EC90E09587848784EC06
:1009F00090E09787868780EC90E0918B808B81ECEC
:100A000090E0938B828B82EC90E0958B848B86ECCC
:100A100090E0978B868B118E128E138E148E089514
:100A20001F93FC0199278827BC01E894119110328B
:100A3000E9F3193010F01E30C8F31B3251F01D32AB
:100A400049F4689406C00E943705610F711D811D2D
:100A5000911D119110531A30B0F33EF4909580958A
:100A6000709561957F4F8F4F9F4F1F910895592F1C
:100A7000482F372F262F660F771F881F991F660F65
:100A8000771F881F991F620F731F841F951F660FA2
:100A9000771F881F991F0895A1E21A2EAA1BBB1B5E
:100AA000FD010DC0AA1FBB1FEE1FFF1FA217B3073A
:100AB000E407F50720F0A21BB30BE40BF50B661F50
:100AC000771F881F991F1A9469F760957095809514
:100AD00090959B01AC01BD01CF010895EE0FFF1F62
:100AE000881F8BBF0790F691E02D19940F931F93E9
:100AF000CF93DF938230910510F482E090E0E09193
:100B0000C902F091CA0230E020E0B0E0A0E03097E6
:100B100099F42115310509F44AC0281B390B2430FA
:100B20003105D8F58A819B816115710589F1FB0139
:100B300093838283FE0111C0408151810281138120
:100B400048175907E0F04817590799F4109761F0D2
:100B500012960C93129713961C933296CF01DF9145
:100B6000CF911F910F9108950093C9021093CA026B
:100B7000F4CF2115310551F04217530738F0A90180
:100B8000DB019A01BD01DF01F801C1CFEF01F9CF0F
:100B90009093CA028093C902CDCFFE01E20FF31FEA
:100BA000819391932250310939832883D7CF2091A3
:100BB000C7023091C802232B41F4209102023091E8
:100BC00003023093C8022093C702209100023091A3
:100BD00001022115310541F42DB73EB740910402C1
:100BE00050910502241B350BE091C702F091C80219
:100BF000E217F307A0F42E1B3F0B2817390778F0F4
:100C0000AC014E5F5F4F2417350748F04E0F5F1F52
:100C10005093C8024093C702819391939FCFF0E015
:100C2000E0E09CCFCF93DF930097E9F0FC0132978F
:100C300013821282A091C902B091CA02ED0130E084
:100C400020E01097A1F420813181820F931F209121
:100C5000C7023091C8022817390709F061C0F09324
:100C6000C802E093C702DF91CF910895EA01CE1741
:100C7000DF07E8F54A815B819E0141155105B1F717
:100C8000E901FB83EA8349915991C40FD51FEC1701
:100C9000FD0761F4808191810296840F951FE9011F
:100CA00099838883828193819B838A83F0E0E0E04B
:100CB00012968D919C9113970097B9F52D913C91C7
:100CC0001197CD010296820F931F2091C702309198
:100CD000C8022817390739F6309751F51092CA0221
:100CE0001092C902B093C802A093C702BCCFD383AD
:100CF000C28340815181840F951FC817D90761F4C1
:100D00004E5F5F4F88819981480F591F51834083FF
:100D10008A819B81938382832115310509F0B0CFAD
:100D2000F093CA02E093C9029ECFFD01DC01C0CF5F
:100D300013821282D7CF4F925F926F927F928F92DF
:100D40009F92AF92BF92CF92DF92EF92FF920F935A
:100D50001F93CF93DF938C01009799F4CB01DF9120
:100D6000CF911F910F91FF90EF90DF90CF90BF90A8
:100D7000AF909F908F907F906F905F904F900C946A
:100D80007605FC01E60FF71F9C0122503109E2179E
:100D9000F30708F4AEC0D901CD91DC911197C617C5
:100DA000D70720F1C530D10578F0CE01049786171A
:100DB000970750F0C61BD70B2297C193D1936D9321
:100DC0007C93CF010E941206C801DF91CF911F9141
:100DD0000F91FF90EF90DF90CF90BF90AF909F90DA
:100DE0008F907F906F905F904F9008955B01AC1A49
:100DF000BD0A4C018C0E9D1EA091C902B091CA0281
:100E0000512C412CF12CE12C109731F58091C70227
:100E10009091C8028815990509F05CC046165706DE
:100E200008F058C08091000290910102009741F4AF
:100E30008DB79EB74091040250910502841B950B1B
:100E4000E817F90708F055C0F093C802E093C7020D
:100E5000F90171836083B8CF8D919C91119712969F
:100E60006C90129713967C901397A815B90559F5B5
:100E70006C0142E0C40ED11CCA14DB0420F1AC01A9
:100E80004A195B09DA011296159780F06282738223
:100E900051834083D9016D937C93E114F10471F087
:100EA000D7011396FC93EE9312978ECF22968C0F58
:100EB0009D1FF90191838083F301EFCFF093CA0264
:100EC000E093C90281CF4816590608F42C017D0130
:100ED000D3019ACFCB010E9476057C01009749F09F
:100EE000AE01B8010E947C07C8010E94120687016A
:100EF0006BCF10E000E068CFFB01DC0102C0019085
:100F00000D9241505040D8F70895FB01DC0101904B
:0C0F10000D920020E1F70895F894FFCF47
:100F1C000000CB028000000000008C01B600E30052
:0C0F2C00D9015401F20046010D0A00003A
:00000001FF
