:100000000C9483000C94B4000C94B4000C94B400D1
:100010000C94B4000C94B4000C94B4000C94B40090
:100020000C94B4000C94B4000C94B4000C94B40080
:100030000C94B4000C94B4000C94B4000C94B40070
:100040000C94B4000C94B4000C94B4000C94B40060
:100050000C94B4000C94B4000C94B4000C942903D8
:100060000C94B4000C94F3020C94C9020C94B400E8
:100070000C94B4000C94B4000C94B4000C94B40030
:100080000C94B4000C94B4000C94B4000C94B40020
:100090000C94B4000C94B4000C94B4000C94B40010
:1000A0000C94B4000C94B4000C94B4000C94B40000
:1000B0000C94B4000C94B4000C94B4000C94B400F0
:1000C0000C94B4000C94B4000C94B4000C94B400E0
:1000D0000C94B4000C94B4000C94B4000C94B400D0
:1000E0000C94B4000C94F2000C9454010C94B600DF
:1000F0000C94D9010C948C010C94E3000C944601EF
:100100000C945405540511241FBECFEFD1E2DEBF7D
:10011000CDBF00E00CBF23E0A4E5B2E001C01D921A
:10012000A430B207E1F712E0A0E0B2E0E4E2F0E1CF
:1001300000E00BBF02C007900D92A435B107D9F7BC
:1001400010E0C3E8D0E000E006C021970109802F4D
:10015000FE010E94F205C238D10780E00807A9F726
:100160000E9473030C9410080C940000AF92BF928D
:10017000CF92DF92EF92FF920F931F93CF93DF9373
:100180006C017B018B01040F151FEB015E01AE18A2
:10019000BF08C017D10759F06991D601ED91FC91C4
:1001A0000190F081E02DC6011995892B79F7C501E1
:1001B000DF91CF911F910F91FF90EF90DF90CF9043
:1001C000BF90AF900895FC01538D448D252F30E0F2
:1001D000842F90E0821B930B541710F0CF96089554
:1001E00001970895FC01918D828D981761F0A28D81
:1001F000AE0FBF2FB11D5D968C91928D9F5F9F7347
:10020000928F90E008958FEF9FEF08952FB7F894A5
:1002100080915F0290916002A0916102B0916202B0
:100220002FBF80936B0290936C02A0936D02B093EA
:100230006E0283E692E00E94F20097FF26C02FB77D
:10024000F89480915F0290916002A0916102B09158
:1002500062022FBF40916B0250916C0260916D025F
:1002600070916E02841B950BA60BB70B4091670231
:10027000509168026091690270916A028417950733
:10028000A607B707B0F28FEF9FEF0895FC01918D9D
:10029000828D981731F0828DE80FF11D858D90E0E9
:1002A00008958FEF9FEF0895FC01918D228D892F86
:1002B00090E0805C9F4F821B91098F73992708956E
:1002C00083E692E00E94540121E0892B09F420E0AA
:1002D000822F0895FC01A48DA80FB92FB11DA35A38
:1002E000BF4F2C91848D90E001968F739927848F56
:1002F000A689B7892C93A089B1898C918370806479
:100300008C93938D848D981306C00288F389E02D19
:1003100080818F7D80830895EF92FF920F931F93CA
:10032000CF93DF93EC0181E0888F9B8D8C8D9813A8
:100330001AC0E889F989808185FF15C09FB7F894B4
:10034000EE89FF896083E889F98980818370806400
:1003500080839FBF81E090E0DF91CF911F910F914B
:10036000FF90EF900895F62E0B8D10E00F5F1F4F5A
:100370000F731127E02E8C8D8E110CC00FB607FC69
:10038000FACFE889F989808185FFF5CFCE010E94F7
:100390006A01F1CFEB8DEC0FFD2FF11DE35AFF4FFA
:1003A000F0829FB7F8940B8FEA89FB898081806285
:1003B000CFCFCF93DF93EC01888D8823B9F0AA8942
:1003C000BB89E889F9898C9185FD03C0808186FD10
:1003D0000DC00FB607FCF7CF8C9185FFF2CF80815F
:1003E00085FFEDCFCE010E946A01E9CFDF91CF9169
:1003F000089580E090E0892B29F00E94600181112E
:100400000E94000080E090E0892B49F080E090E0BD
:10041000892B29F00E94000081110E94000080E0D9
:1004200090E0892B49F080E090E0892B29F00E9430
:10043000000081110E94000080E090E0892B49F0CB
:1004400080E090E0892B29F00E94000081110C943B
:10045000000008953FB7F89480915502909156029C
:10046000A0915702B091580226B5A89B05C02F3F16
:1004700019F00196A11DB11D3FBFBA2FA92F982FCA
:100480008827BC01CD01620F711D811D911D42E0C5
:10049000660F771F881F991F4A95D1F7089542E08C
:1004A00050E068E172E083E692E00C94B600CF93EE
:1004B000DF93FC0101900020E9F73197AF01481B61
:1004C000590BBC0183E692E00E94B600EC010E9449
:1004D0004F028C0F9D1FDF91CF910895FC01808109
:1004E0009181009711F00C94960608950F931F9335
:1004F000CF93DF93EC0188819981009759F02A818D
:100500003B812617370730F081E0DF91CF911F91B3
:100510000F9108958B016F5F7F4F0E941F07009717
:1005200059F0998388831B830A832C813D81232B77
:1005300059F7FC011082E8CF80E0E7CFEF92FF92FD
:100540000F931F93CF93DF93EC017B018A01BA01D4
:100550000E94760228813981811114C0211531054C
:1005600019F0C9010E949606198218821D821C8208
:100570001B821A82CE01DF91CF911F910F91FF90C4
:10058000EF9008951D830C83B701C9010E940908EB
:10059000F1CF1F920F920FB60F9211240BB60F924C
:1005A0002F933F934F935F936F937F938F939F937B
:1005B000AF93BF93EF93FF9383E692E00E946A01AB
:1005C000FF91EF91BF91AF919F918F917F916F912B
:1005D0005F914F913F912F910F900BBE0F900FBEE7
:1005E0000F901F9018951F920F920FB60F92112423
:1005F0000BB60F922F938F939F93EF93FF93E091FE
:100600007302F09174028081E0917902F0917A0294
:1006100082FD1DC0908180917C028F5F8F7320913D
:100620007D02821741F0E0917C02F0E0ED59FD4F30
:10063000958F80937C02FF91EF919F918F912F91E5
:100640000F900BBE0F900FBE0F901F9018958081DA
:10065000F2CF1F920F920FB60F9211242F933F9358
:100660008F939F93AF93BF9380915F0290916002AD
:10067000A0916102B09162023091540223E0230FF5
:100680002D3758F50196A11DB11D2093540280937A
:100690005F0290936002A0936102B0936202809126
:1006A000550290915602A0915702B09158020196BE
:1006B000A11DB11D8093550290935602A09357023D
:1006C000B0935802BF91AF919F918F913F912F911D
:1006D0000F900FBE0F901F90189526E8230F0296DB
:1006E000A11DB11DD2CFCF93DF93CDB7DEB76897F1
:1006F0000FB6F894DEBF0FBECDBF789484B582608C
:1007000084BD84B5816084BD85B5826085BD85B5B5
:10071000816085BD80916E00816080936E00109233
:1007200081008091810082608093810080918100AE
:10073000816080938100809180008160809380003F
:100740008091B10084608093B1008091B00081609D
:100750008093B0008091910082608093910080919D
:1007600091008160809391008091900081608093DE
:1007700090008091A10082608093A1008091A100EF
:1007800081608093A1008091A00081608093A0008F
:1007900080912101826080932101809121018160FB
:1007A00080932101809120018160809320018091BC
:1007B0007A00846080937A0080917A0082608093CE
:1007C0007A0080917A00816080937A0080917A002B
:1007D000806880937A001092C100E0917302F091DA
:1007E000740282E08083E0916F02F09170021082C7
:1007F000E0917102F09172028FEC808310927B0283
:10080000E0917702F091780286E08083E0917502B2
:10081000F0917602808180618083E0917502F09191
:100820007602808188608083E0917502F091760283
:10083000808180688083E0917502F09176028081EA
:100840008F7D808310925A021092590210925E029C
:1008500010925D028E010F5F1F4F94E0292E312C04
:10086000AA24A394B12CE0905D02F0905E0222E0F5
:10087000E216F10409F404C184F5E114F10409F469
:1008800094C091E0E916F10409F498C00E942A028C
:100890006B017C0184E6482E512C612C712C0E9446
:1008A0002A026C197D098E099F09683E73408105F3
:1008B0009105A8F391E0491A51086108710828EEE2
:1008C000C20E23E0D21EE11CF11C4114510461044C
:1008D000710429F70E94F901C6CF23E0E216F10462
:1008E00009F46CC084E0E816F10481F680915902A5
:1008F00090915A021C8A1B8A1E8A1D8A188E1F8A92
:100900004AE0B8010E94A805F80101900020E9F72B
:100910003197AF01401B510BB801CE0143960E94A5
:100920009E021A8219821C821B821E821D824DE049
:1009300050E066E472E0C8010E949E028B889C88A9
:100940008114910409F4A3C0EF88F88CE114F10438
:10095000B1F08D819E81E80EF91EB701C8010E9499
:100960007602882309F493C029813A818D819E8182
:10097000B401820F931F0E940908FE82ED824D810F
:100980005E8169817A8183E692E00E94B6000E94CE
:100990004F02C8010E946E02CE0143960E946E0271
:1009A00010925E0210925D0271CF8BE192E00E9484
:1009B0005702B0925E02A0925D0268CF83E692E099
:1009C0000E945401181619060CF060CF1A82198281
:1009D0001C821B821E821D8250E040E06AE172E0B0
:1009E000C8010E949E020E94060197FD1BC08B8BCE
:1009F0001C8A8D809E809FEF891A990AB401C801D4
:100A00000E947602882379F329813A818D819E8123
:100A1000BE016D5E7F4F820F931F0E9409089E8268
:100A20008D82E1CF89819A81412C512C320100972E
:100A300019F00E9481052B0150925C0240925B02EA
:100A4000C8010E946E02EA94EF2859F450925A02AB
:100A50004092590282E090E090935E0280935D02A2
:100A600015CF8091590290915A02480E591E50920A
:100A70005A024092590230925E0220925D0206CFE5
:100A800080E392E00E94570283E090E0E5CF898105
:100A90009A81009711F00E9496061A8219821E828E
:100AA0001D821C821B826BCFE3E6F2E0138212826E
:100AB00088EE93E0A0E0B0E084839583A683B783BB
:100AC0008AE092E09183808385EC90E0958784872B
:100AD00084EC90E09787868780EC90E0918B808B08
:100AE00081EC90E0938B828B82EC90E0958B848BF1
:100AF00086EC90E0978B868B118E128E138E148E5F
:100B000008951F93FC0199278827BC01E89411914F
:100B10001032E9F3193010F01E30C8F31B3251F0D7
:100B20001D3249F4689406C00E94B305610F711D1F
:100B3000811D911D119110531A30B0F33EF4909520
:100B40008095709561957F4F8F4F9F4F1F910895AE
:100B5000BB274A3031F4992322F4BDE29095819568
:100B60009F4F0C94C905592F482F372F262F660FFA
:100B7000771F881F991F660F771F881F991F620FA5
:100B8000731F841F951F660F771F881F991F089575
:100B9000BB27FB015527AA27880F991FAA1FA41757
:100BA00010F0A41B83955051B9F7A05DAA3308F04B
:100BB000A95DA193009779F7B111B1931192CB017F
:100BC0000C94E205DC01FC01672F71917723E1F7BA
:100BD000329704C07C916D9370836291AE17BF070A
:100BE000C8F30895EE0FFF1F881F8BBF0790F69183
:100BF000E02D19940F931F93CF93DF9382309105CB
:100C000010F482E090E0E0910203F091030330E001
:100C100020E0B0E0A0E0309799F42115310509F407
:100C20004AC0281B390B24303105D8F58A819B81B5
:100C30006115710589F1FB0193838283FE0111C067
:100C4000408151810281138148175907E0F048170C
:100C5000590799F4109761F012960C931297139616
:100C60001C933296CF01DF91CF911F910F91089580
:100C70000093020310930303F4CF2115310551F0C3
:100C80004217530738F0A901DB019A01BD01DF01CA
:100C9000F801C1CFEF01F9CF9093030380930203D2
:100CA000CDCFFE01E20FF31F8193919322503109C2
:100CB00039832883D7CF2091000330910103232B60
:100CC00041F42091020230910302309301032093FA
:100CD000000320910002309101022115310541F4F9
:100CE0002DB73EB74091040250910502241B350BED
:100CF000E0910003F0910103E217F307A0F42E1B2B
:100D00003F0B2817390778F0AC014E5F5F4F24176F
:100D1000350748F04E0F5F1F5093010340930003C7
:100D2000819391939FCFF0E0E0E09CCFCF93DF934E
:100D30000097E9F0FC01329713821282A09102031E
:100D4000B0910303ED0130E020E01097A1F4208181
:100D50003181820F931F20910003309101032817E6
:100D6000390709F061C0F0930103E0930003DF91BC
:100D7000CF910895EA01CE17DF07E8F54A815B813C
:100D80009E0141155105B1F7E901FB83EA834991C1
:100D90005991C40FD51FEC17FD0761F48081918133
:100DA0000296840F951FE90199838883828193813C
:100DB0009B838A83F0E0E0E012968D919C911397DB
:100DC0000097B9F52D913C911197CD010296820FB4
:100DD000931F20910003309101032817390739F63A
:100DE000309751F51092030310920203B093010360
:100DF000A0930003BCCFD383C28340815181840F71
:100E0000951FC817D90761F44E5F5F4F888199819C
:100E1000480F591F518340838A819B81938382832A
:100E20002115310509F0B0CFF0930303E0930203DD
:100E30009ECFFD01DC01C0CF13821282D7CF4F922B
:100E40005F926F927F928F929F92AF92BF92CF925A
:100E5000DF92EF92FF920F931F93CF93DF938C015A
:100E6000009799F4CB01DF91CF911F910F91FF90E3
:100E7000EF90DF90CF90BF90AF909F908F907F903A
:100E80006F905F904F900C94FA05FC01E60FF71FEE
:100E90009C0122503109E217F30708F4AEC0D901D2
:100EA000CD91DC911197C617D70720F1C530D10538
:100EB00078F0CE0104978617970750F0C61BD70B22
:100EC0002297C193D1936D937C93CF010E94960694
:100ED000C801DF91CF911F910F91FF90EF90DF90AC
:100EE000CF90BF90AF909F908F907F906F905F90CA
:100EF0004F9008955B01AC1ABD0A4C018C0E9D1EEB
:100F0000A0910203B0910303512C412CF12CE12C50
:100F1000109731F580910003909101038815990590
:100F200009F05CC04616570608F058C080910002D0
:100F300090910102009741F48DB79EB74091040251
:100F400050910502841B950BE817F90708F055C06E
:100F5000F0930103E0930003F90171836083B8CF3C
:100F60008D919C91119712966C90129713967C908C
:100F70001397A815B90559F56C0142E0C40ED11CB0
:100F8000CA14DB0420F1AC014A195B09DA0112969C
:100F9000159780F06282738251834083D9016D93EB
:100FA0007C93E114F10471F0D7011396FC93EE9356
:100FB00012978ECF22968C0F9D1FF901918380830B
:100FC000F301EFCFF0930303E093020381CF4816C0
:100FD000590608F42C017D01D3019ACFCB010E9460
:100FE000FA057C01009749F0AE01B8010E940008A3
:100FF000C8010E94960687016BCF10E000E068CF21
:10100000FB01DC0102C001900D9241505040D8F725
:101010000895FB01DC0101900D920020E1F7089595
:04102000F894FFCF72
:10102400000004038000000000008C01B600E3000F
:10103400D9015401F20046010D0A0020496E67727D
:1010440065736120756E206E756D65726F3A200050
:1010540020416772656761206F74726F206E756DD1
:1010640065726F3A2000204C612073756D612065B4
:04107400733A2000AB
:00000001FF
