:100000000C9483000C94B4000C94B4000C94B400D1
:100010000C94B4000C94B4000C94B4000C94B40090
:100020000C94B4000C94B4000C94B4000C94B40080
:100030000C94B4000C94B4000C94B4000C94B40070
:100040000C94B4000C94B4000C94B4000C94B40060
:100050000C94B4000C94B4000C94B4000C94D7022B
:100060000C94B4000C94A1020C9477020C94B4008C
:100070000C94B4000C94B4000C94B4000C94B40030
:100080000C94B4000C94B4000C94B4000C94B40020
:100090000C94B4000C94B4000C94B4000C94B40010
:1000A0000C94B4000C94B4000C94B4000C94B40000
:1000B0000C94B4000C94B4000C94B4000C94B400F0
:1000C0000C94B4000C94B4000C94B4000C94B400E0
:1000D0000C94B4000C94B4000C94B4000C94B400D0
:1000E0000C94B4000C94B0040C94F2000C945401E1
:1000F0000C94B6000C94D9010C948C010C94E30080
:100100000C944601B00411241FBECFEFD1E2DEBF34
:10011000CDBF00E00CBF22E0ACE1B2E001C01D9217
:10012000A83CB207E1F712E0A0E0B2E0E6EBFEE0A7
:1001300000E00BBF02C007900D92AC31B107D9F7B8
:1001400010E0C3E8D0E000E006C021970109802F4D
:10015000FE010E943B05C238D10780E00807A9F7DD
:100160000E9421030C9459070C940000AF92BF9297
:10017000CF92DF92EF92FF920F931F93CF93DF9373
:100180006C017B018B01040F151FEB015E01AE18A2
:10019000BF08C017D10759F06991D601ED91FC91C4
:1001A0000190F081E02DC6011995892B79F7C501E1
:1001B000DF91CF911F910F91FF90EF90DF90CF9043
:1001C000BF90AF900895FC01538D448D252F30E0F2
:1001D000842F90E0821B930B541710F0CF96089554
:1001E00001970895FC01918D828D981761F0A28D81
:1001F000AE0FBF2FB11D5D968C91928D9F5F9F7347
:10020000928F90E008958FEF9FEF08952FB7F894A5
:100210008091230290912402A0912502B0912602A0
:100220002FBF80932F0290933002A0933102B0939E
:10023000320287E292E00E94F20097FF26C02FB7B9
:10024000F8948091230290912402A0912502B0910C
:1002500026022FBF40912F0250913002609131024F
:1002600070913202841B950BA60BB70B40912B02A9
:1002700050912C0260912D0270912E0284179507E7
:10028000A607B707B0F28FEF9FEF0895FC01918D9D
:10029000828D981731F0828DE80FF11D858D90E0E9
:1002A00008958FEF9FEF0895FC01918D228D892F86
:1002B00090E0805C9F4F821B91098F73992708956E
:1002C00087E292E00E94540121E0892B09F420E0AA
:1002D000822F0895FC01A48DA80FB92FB11DA35A38
:1002E000BF4F2C91848D90E001968F739927848F56
:1002F000A689B7892C93A089B1898C918370806479
:100300008C93938D848D981306C00288F389E02D19
:1003100080818F7D80830895EF92FF920F931F93CA
:10032000CF93DF93EC0181E0888F9B8D8C8D9813A8
:100330001AC0E889F989808185FF15C09FB7F894B4
:10034000EE89FF896083E889F98980818370806400
:1003500080839FBF81E090E0DF91CF911F910F914B
:10036000FF90EF900895F62E0B8D10E00F5F1F4F5A
:100370000F731127E02E8C8D8E110CC00FB607FC69
:10038000FACFE889F989808185FFF5CFCE010E94F7
:100390006A01F1CFEB8DEC0FFD2FF11DE35AFF4FFA
:1003A000F0829FB7F8940B8FEA89FB898081806285
:1003B000CFCFCF93DF93EC01888D8823B9F0AA8942
:1003C000BB89E889F9898C9185FD03C0808186FD10
:1003D0000DC00FB607FCF7CF8C9185FFF2CF80815F
:1003E00085FFEDCFCE010E946A01E9CFDF91CF9169
:1003F000089580E090E0892B29F00E94600181112E
:100400000E94000080E090E0892B49F080E090E0BD
:10041000892B29F00E94000081110E94000080E0D9
:1004200090E0892B49F080E090E0892B29F00E9430
:10043000000081110E94000080E090E0892B49F0CB
:1004400080E090E0892B29F00E94000081110C943B
:10045000000008953FB7F89480911D0290911E020C
:10046000A0911F02B091200226B5A89B05C02F3F86
:1004700019F00196A11DB11D3FBFBA2FA92F982FCA
:100480008827BC01CD01620F711D811D911D42E0C5
:10049000660F771F881F991F4A95D1F708950F930C
:1004A0001F93CF93DF93EC0188819981009759F0D6
:1004B0002A813B812617370730F081E0DF91CF9109
:1004C0001F910F9108958B016F5F7F4F0E94680607
:1004D000009759F0998388831B830A832C813D817F
:1004E000232B59F7FC011082E8CF80E0E7CF1F9261
:1004F0000F920FB60F9211240BB60F922F933F93CA
:100500004F935F936F937F938F939F93AF93BF931B
:10051000EF93FF9387E292E00E946A01FF91EF91CF
:10052000BF91AF919F918F917F916F915F914F910B
:100530003F912F910F900BBE0F900FBE0F901F9009
:1005400018951F920F920FB60F9211240BB60F92AF
:100550002F938F939F93EF93FF93E0913702F09146
:1005600038028081E0913D02F0913E0282FD1DC083
:100570009081809140028F5F8F732091410282179A
:1005800041F0E0914002F0E0E95DFD4F958F8093EE
:100590004002FF91EF919F918F912F910F900BBE91
:1005A0000F900FBE0F901F9018958081F2CF1F9271
:1005B0000F920FB60F9211242F933F938F939F9317
:1005C000AF93BF938091230290912402A0912502C2
:1005D000B091260230911C0223E0230F2D3758F5ED
:1005E0000196A11DB11D20931C02809323029093BC
:1005F0002402A0932502B093260280911D029091BF
:100600001E02A0911F02B09120020196A11DB11DF2
:1006100080931D0290931E02A0931F02B0932002AC
:10062000BF91AF919F918F913F912F910F900FBEEE
:100630000F901F90189526E8230F0296A11DB11D5B
:10064000D2CFCF93DF93CDB7DEB7A3970FB6F89491
:10065000DEBF0FBECDBF789484B5826084BD84B503
:10066000816084BD85B5826085BD85B5816085BDAD
:1006700080916E00816080936E0010928100809165
:1006800081008260809381008091810081608093ED
:100690008100809180008160809380008091B10012
:1006A00084608093B1008091B00081608093B0003D
:1006B000809191008260809391008091910081608F
:1006C0008093910080919000816080939000809150
:1006D000A10082608093A1008091A100816080933D
:1006E000A1008091A00081608093A00080912101F1
:1006F000826080932101809121018160809321019A
:100700008091200181608093200180917A00846033
:1007100080937A0080917A00826080937A00809141
:100720007A00816080937A0080917A00806880935B
:100730007A001092C100E0913702F091380282E015
:100740008083E0913302F09134021082E09135020F
:10075000F09136028FEC808310923F02E0913B02D1
:10076000F0913C0286E08083E0913902F0913A02F8
:10077000808180618083E0913902F0913A0280812A
:1007800088608083E0913902F0913A02808180682C
:100790008083E0913902F0913A0280818F7D8083DD
:1007A0009AE0892E912CA12CB12C87E292E00E9434
:1007B0005401181619060CF096C01A8219821C8270
:1007C0001B821E821D8270E060E0CE0101960E94B5
:1007D0004F0229813A8181112CC02115310519F070
:1007E000C9010E94DF051A8219821E821D821C82A5
:1007F0001B820E94060197FD24C08AA31BA2ED80E4
:10080000FE802FEFE21AF20AB701CE0101960E9494
:100810004F02882371F329813A818D819E81BE0127
:100820006E5D7F4F820F931F0E945207FE82ED8202
:10083000E0CF1E821D826AE172E0C9010E94520768
:10084000D8CFE980FA8060E070E0CB01E114F104D8
:1008500019F0C7010E94DD046B01709322026093BE
:100860002102E114F10419F0C7010E94DF050D2CEB
:10087000000CEE08FF08F7FE5DC06DE287E292E033
:100880000E948C0122273327A9012C193D094E090A
:100890005F0919A2CE0181967C01CA01B901A501A7
:1008A00094010E941905605DF70162937F01211593
:1008B00031054105510589F7E114F10461F001901A
:1008C0000020E9F73197AF014E195F09B70187E2C0
:1008D00092E00E94B60042E050E068E172E087E2F8
:1008E00092E00E94B6000E942A022B013C0184E69D
:1008F000C82ED12CE12CF12C0E942A026419750912
:1009000086099709683E734081059105A8F3F1E0D7
:10091000CF1AD108E108F10828EE420E23E0521E5A
:10092000611C711CC114D104E104F10429F70E9477
:10093000F9013BCFA701960119A2CE0181967C0156
:10094000CA01B901A50194010E941905605DF70172
:1009500062937F01211531054105510589F7ACCF1F
:10096000E7E2F2E01382128288EE93E0A0E0B0E0CA
:1009700084839583A683B7838AE092E09183808302
:1009800085EC90E09587848784EC90E09787868754
:1009900080EC90E0918B808B81EC90E0938B828B4C
:1009A00082EC90E0958B848B86EC90E0978B868B25
:1009B000118E128E138E148E08951F93FC019927A9
:1009C0008827BC01E89411911032E9F3193010F036
:1009D0001E30C8F31B3251F01D3249F4689406C032
:1009E0000E940405610F711D811D911D119110530D
:1009F0001A30B0F33EF490958095709561957F4FD5
:100A00008F4F9F4F1F910895592F482F372F262F13
:100A1000660F771F881F991F660F771F881F991F02
:100A2000620F731F841F951F660F771F881F991F02
:100A30000895A1E21A2EAA1BBB1BFD010DC0AA1F1F
:100A4000BB1FEE1FFF1FA217B307E407F50720F037
:100A5000A21BB30BE40BF50B661F771F881F991FB2
:100A60001A9469F760957095809590959B01AC01FB
:100A7000BD01CF010895EE0FFF1F881F8BBF0790A8
:100A8000F691E02D19940F931F93CF93DF9382304B
:100A9000910510F482E090E0E091C602F091C70267
:100AA00030E020E0B0E0A0E0309799F42115310566
:100AB00009F44AC0281B390B24303105D8F58A8146
:100AC0009B816115710589F1FB0193838283FE018E
:100AD00011C0408151810281138148175907E0F00C
:100AE0004817590799F4109761F012960C931297D2
:100AF00013961C933296CF01DF91CF911F910F91E6
:100B000008950093C6021093C702F4CF2115310552
:100B100051F04217530738F0A901DB019A01BD01DA
:100B2000DF01F801C1CFEF01F9CF9093C7028093A5
:100B3000C602CDCFFE01E20FF31F819391932250A5
:100B4000310939832883D7CF2091C4023091C5025F
:100B5000232B41F420910202309103023093C5020D
:100B60002093C40220910002309101022115310529
:100B700041F42DB73EB74091040250910502241B69
:100B8000350BE091C402F091C502E217F307A0F41F
:100B90002E1B3F0B2817390778F0AC014E5F5F4FD3
:100BA0002417350748F04E0F5F1F5093C50240933E
:100BB000C402819391939FCFF0E0E0E09CCFCF936C
:100BC000DF930097E9F0FC01329713821282A09123
:100BD000C602B091C702ED0130E020E01097A1F409
:100BE00020813181820F931F2091C4023091C50270
:100BF0002817390709F061C0F093C502E093C402D9
:100C0000DF91CF910895EA01CE17DF07E8F54A8119
:100C10005B819E0141155105B1F7E901FB83EA8330
:100C200049915991C40FD51FEC17FD0761F48081DC
:100C300091810296840F951FE901998388838281AF
:100C400093819B838A83F0E0E0E012968D919C91E2
:100C500013970097B9F52D913C911197CD0102960C
:100C6000820F931F2091C4023091C50228173907C3
:100C700039F6309751F51092C7021092C602B09320
:100C8000C502A093C402BCCFD383C28340815181EB
:100C9000840F951FC817D90761F44E5F5F4F888195
:100CA0009981480F591F518340838A819B81938387
:100CB00082832115310509F0B0CFF093C702E0938C
:100CC000C6029ECFFD01DC01C0CF13821282D7CFB6
:100CD0004F925F926F927F928F929F92AF92BF924C
:100CE000CF92DF92EF92FF920F931F93CF93DF93F8
:100CF0008C01009799F4CB01DF91CF911F910F9157
:100D0000FF90EF90DF90CF90BF90AF909F908F902B
:100D10007F906F905F904F900C944305FC01E60F1D
:100D2000F71F9C0122503109E217F30708F4AEC007
:100D3000D901CD91DC911197C617D70720F1C530A5
:100D4000D10578F0CE0104978617970750F0C61B9F
:100D5000D70B2297C193D1936D937C93CF010E94BF
:100D6000DF05C801DF91CF911F910F91FF90EF90A8
:100D7000DF90CF90BF90AF909F908F907F906F90BB
:100D80005F904F9008955B01AC1ABD0A4C018C0E28
:100D90009D1EA091C602B091C702512C412CF12C8E
:100DA000E12C109731F58091C4029091C50288150D
:100DB000990509F05CC04616570608F058C08091A6
:100DC000000290910102009741F48DB79EB74091C7
:100DD000040250910502841B950BE817F90708F0EF
:100DE00055C0F093C502E093C402F901718360839A
:100DF000B8CF8D919C91119712966C901297139683
:100E00007C901397A815B90559F56C0142E0C40E02
:100E1000D11CCA14DB0420F1AC014A195B09DA01C8
:100E20001296159780F06282738251834083D901B4
:100E30006D937C93E114F10471F0D7011396FC9348
:100E4000EE9312978ECF22968C0F9D1FF9019183FE
:100E50008083F301EFCFF093C702E093C60281CF06
:100E60004816590608F42C017D01D3019ACFCB0115
:100E70000E9443057C01009749F0AE01B8010E9431
:100E80004907C8010E94DF0587016BCF10E000E031
:100E900068CFFB01DC0102C001900D92415050402F
:100EA000D8F70895FB01DC0101900D920020E1F7D5
:060EB0000895F894FFCF45
:100EB6000000C8028000000000008C01B600E300BC
:0C0EC600D9015401F20046010D0A0000A1
:00000001FF
