:100000000C9486000C94B7000C94B7000C94B700C5
:100010000C94B7000C94B7000C94B7000C94B70084
:100020000C94B7000C94B7000C94B7000C94B70074
:100030000C94B7000C94B7000C94B7000C94B70064
:100040000C94B7000C94B7000C94B7000C94B70054
:100050000C94B7000C94B7000C94B7000C945A039E
:100060000C94B7000C94CE030C94A4030C94B7002A
:100070000C94B7000C94B7000C94B7000C94B70024
:100080000C94B7000C94B7000C94B7000C94B70014
:100090000C94B7000C94B7000C94B7000C94B70004
:1000A0000C94B7000C94B7000C94B7000C94B700F4
:1000B0000C94B7000C94B7000C94B7000C94B700E4
:1000C0000C94B7000C94B7000C94B7000C94B700D4
:1000D0000C94B7000C94B7000C94B7000C94B700C4
:1000E0000C94B7000C94BA000C9487060C944A0147
:1000F0000C9404040C9490010C94DD010C94E70022
:100100000C9458010C94F6000404870611241FBEB9
:10011000CFEFD1E2DEBFCDBF00E00CBF12E0A0E028
:10012000B2E0E6E6F4E100E00BBF02C007900D92FA
:10013000A23BB107D9F723E0A2EBB2E001C01D92C8
:10014000AC36B207E1F710E0C5E8D0E000E006C049
:1001500021970109802FFE010E940308C438D107AE
:1001600080E00807A9F70E943D040C94210A0C9432
:1001700000000895AF92BF92CF92DF92EF92FF926C
:100180000F931F93CF93DF936C017B018B01040FBF
:10019000151FEB015E01AE18BF08C017D10759F05B
:1001A0006991D601ED91FC910190F081E02DC6019D
:1001B0001995892B79F7C501DF91CF911F910F9187
:1001C000FF90EF90DF90CF90BF90AF900895FC012B
:1001D000538D448D252F30E0842F90E0821B930BAC
:1001E000541710F0CF96089501970895FC01918D52
:1001F000828D981761F0A28DAE0FBF2FB11D5D9655
:100200008C91928D9F5F9F73928F90E008958FEFF6
:100210009FEF08952FB7F8948091C1029091C20288
:10022000A091C302B091C4022FBF8093CD029093DE
:10023000CE02A093CF02B093D00285EC92E00E9450
:10024000F60097FF26C02FB7F8948091C1029091D5
:10025000C202A091C302B091C4022FBF4091CD024F
:100260005091CE026091CF027091D002841B950B09
:10027000A60BB70B4091C9025091CA026091CB0204
:100280007091CC0284179507A607B707B0F28FEFDD
:100290009FEF0895FC01918D828D981731F0828D2A
:1002A000E80FF11D858D90E008958FEF9FEF089581
:1002B000FC01918D228D892F90E0805C9F4F821BE5
:1002C00091098F739927089585EC92E00E94580157
:1002D00021E0892B09F420E0822F0895FC01A48DF0
:1002E000A80FB92FB11DA35ABF4F2C91848D90E058
:1002F00001968F739927848FA689B7892C93A0893B
:10030000B1898C91837080648C93938D848D9813C4
:1003100006C00288F389E02D80818F7D8083089557
:10032000EF92FF920F931F93CF93DF93EC0181E045
:10033000888F9B8D8C8D98131AC0E889F9898081EC
:1003400085FF15C09FB7F894EE89FF896083E8891F
:10035000F98980818370806480839FBF81E090E011
:10036000DF91CF911F910F91FF90EF900895F62E9E
:100370000B8D10E00F5F1F4F0F731127E02E8C8D38
:100380008E110CC00FB607FCFACFE889F98980817D
:1003900085FFF5CFCE010E946E01F1CFEB8DEC0F02
:1003A000FD2FF11DE35AFF4FF0829FB7F8940B8F9A
:1003B000EA89FB8980818062CFCFCF93DF93EC0104
:1003C000888D8823B9F0AA89BB89E889F9898C913D
:1003D00085FD03C0808186FD0DC00FB607FCF7CFF9
:1003E0008C9185FFF2CF808185FFEDCFCE010E94F9
:1003F0006E01E9CFDF91CF91089580E090E0892BE5
:1004000029F00E94640181110E94000080E090E0C8
:10041000892B49F080E090E0892B29F00E940000B0
:1004200081110E94000080E090E0892B49F080E07B
:1004300090E0892B29F00E94000081110E940000A9
:1004400080E090E0892B49F080E090E0892B29F052
:100450000E94000081110C940000089542E050E0D9
:100460006CE172E085EC92E00C94BA00CF93DF93DC
:10047000FC0101900020E9F73197AF01481B590BAF
:10048000BC0185EC92E00E94BA00EC010E942E02B1
:100490008C0F9D1FDF91CF910895CF93DF93FC01C7
:1004A000448155816081718185EC92E00E94BA009F
:1004B000EC010E942E028C0F9D1FDF91CF910895B9
:1004C000CF93DF93EC0188819981009711F00E940E
:1004D000A708198218821D821C821B821A82DF9152
:1004E000CF910895FC0180819181009711F00C94C7
:1004F000A70808950F931F93CF93DF93EC01888192
:100500009981009759F02A813B812617370730F0EF
:1005100081E0DF91CF911F910F9108958B016F5F63
:100520007F4F0E943009009759F0998388831B837D
:100530000A832C813D81232B59F7FC011082E8CFDF
:1005400080E0E7CFEF92FF920F931F93CF93DF935B
:100550006115710541F480E0DF91CF911F910F91FA
:10056000FF90EF90089541155105B1F07B01EC012A
:100570000C811D81040F151FB8010E947A02882387
:1005800051F3288139818C819D81B701820F931F9E
:100590000E941A0A1D830C8381E0DECFCF93DF9384
:1005A000EC01FB0101900020E9F73197AF01461BF8
:1005B000570B0E94A202811103C0CE010E9460026B
:1005C000CE01DF91CF910895CF93DF93EC01FB0132
:1005D00044815581608171810E94A202811103C012
:1005E000CE010E946002CE01DF91CF910895EF927B
:1005F000FF920F931F93CF93DF93EC017B018A014E
:10060000BA010E947A0281110BC0CE010E946002E1
:10061000CE01DF91CF911F910F91FF90EF90089540
:100620001D830C83B701888199810E941A0AF0CF3B
:10063000EF92FF920F931F93CF93DF93CDB7DEB767
:1006400062970FB6F894DEBF0FBECDBF8C01CB0111
:10065000F8011182108213821282158214824AE0FC
:100660009E012F5F3F4F7901B9010E945607F701A4
:1006700001900020E9F73197AF014E195F09B701EA
:10068000C8010E94F70262960FB6F894DEBF0FBE53
:10069000CDBFDF91CF911F910F91FF90EF90089503
:1006A000FB0101900020E9F73197AF01461B570B82
:1006B0000C94F7021F920F920FB60F9211242F93F2
:1006C0003F938F939F93AF93BF938091C10290917B
:1006D000C202A091C302B091C4023091C00223E0D3
:1006E000230F2D3758F50196A11DB11D2093C0028F
:1006F0008093C1029093C202A093C302B093C4023C
:100700008091BC029091BD02A091BE02B091BF0247
:100710000196A11DB11D8093BC029093BD02A093D0
:10072000BE02B093BF02BF91AF919F918F913F9155
:100730002F910F900FBE0F901F90189526E8230F52
:100740000296A11DB11DD2CF1F920F920FB60F922C
:1007500011240BB60F922F933F934F935F936F9398
:100760007F938F939F93AF93BF93EF93FF9385EC0A
:1007700092E00E946E01FF91EF91BF91AF919F9126
:100780008F917F916F915F914F913F912F910F903A
:100790000BBE0F900FBE0F901F9018951F920F92D7
:1007A0000FB60F9211240BB60F922F938F939F9336
:1007B000EF93FF93E091D502F091D6028081E09112
:1007C000DB02F091DC0282FD1DC090818091DE028F
:1007D0008F5F8F732091DF02821741F0E091DE027C
:1007E000F0E0EB53FD4F958F8093DE02FF91EF9188
:1007F0009F918F912F910F900BBE0F900FBE0F9076
:100800001F9018958081F2CFE5ECF2E013821282FE
:1008100088EE93E0A0E0B0E084839583A683B7835D
:100820008EE092E09183808385EC90E095878487C9
:1008300084EC90E09787868780EC90E0918B808BAA
:1008400081EC90E0938B828B82EC90E0958B848B93
:1008500086EC90E0978B868B118E128E138E148E01
:10086000E2E6F3E011821082138212821582148272
:100870006EE172E0CF010C945003CF93DF93CDB7BC
:10088000DEB762970FB6F894DEBF0FBECDBF789487
:1008900084B5826084BD84B5816084BD85B5826085
:1008A00085BD85B5816085BD80916E008160809336
:1008B0006E0010928100809181008260809381009F
:1008C00080918100816080938100809180008160AF
:1008D000809380008091B10084608093B10080910A
:1008E000B00081608093B00080919100826080931D
:1008F000910080919100816080939100809190009F
:100900008160809390008091A10082608093A1001B
:100910008091A10081608093A1008091A0008160FE
:100920008093A000809121018260809321018091B9
:100930002101816080932101809120018160809359
:10094000200180917A00846080937A0080917A00FF
:10095000826080937A0080917A00816080937A002F
:1009600080917A00806880937A001092C100E091B3
:10097000D502F091D60282E08083E091D102F0911D
:10098000D2021082E091D302F091D4028FEC8083E6
:100990001092DD02E091D902F091DA0286E08083C4
:1009A000E091D702F091D802808180618083E0914C
:1009B000D702F091D802808188608083E091D702CD
:1009C000F091D802808180688083E091D702F09115
:1009D000D80280818F7D80838AEF90E0A0E0B0E034
:1009E0008093C9029093CA02A093CB02B093CC0229
:1009F00083E0C82ED12CE12CF12C8091BA02909189
:100A0000BB028130910509F43FC02CF4892B11F110
:100A10000E94FD01F2CF8230910509F4BBC003971B
:100A2000B9F71092B9021092B80250E040E06EE1BE
:100A300072E082E693E00E94F7021092BB021092ED
:100A4000BA021092B7021092B6028EEA92E00E94A9
:100A50003602DECF8FE192E00E9436028FE392E011
:100A60000E94360289E492E00E94360282E592E01A
:100A70000E9436028091BA029091BB020196909337
:100A8000BB028093BA02C4CF85EC92E00E94580169
:100A9000181619060CF0BCCF1A8219821C821B8210
:100AA0001E821D826EE172E0CE0101960E9450030B
:100AB0000E940A0197FD0CC08F83188641E050E028
:100AC000BE01695F7F4FCE0101960E94A202F0CF66
:100AD0008091620390916303009709F440C069819B
:100AE0007A8161157105C9F14091640350916503E4
:100AF0002D813E814217530780F10E941A0A8D8191
:100B00009E8190936703809366031E821D82CE01AF
:100B100001960E9472028091620390916303009794
:100B2000A9F10E942F077093B9026093B8020E9446
:100B3000D706A70196010E94A0077093B7026093A1
:100B4000B6028091BA029091BB0201969093BB02CB
:100B50008093BA020E942E025BCF0E94A70889816F
:100B60009A8190936303809362038B819C8190931D
:100B70006503809364038D819E81909367038093C6
:100B800066031A8219821C821B82BFCF60E070E06C
:100B9000CB01C9CF8CE592E00E9436026091B6028B
:100BA0007091B702CE0101960E94180318861F8229
:100BB0001A8619861C861B8669E672E0CE010796A6
:100BC0000E945003BE016F5F7F4FCE0107960E94C7
:100BD000E40263E772E00E94CE0266E772E00E94E0
:100BE000CE0262E673E00E94E4020E944D02CE0152
:100BF00007960E947202CE0101960E9472028091B5
:100C0000B8029091B9022091B6023091B7028217D2
:100C1000930709F050C08BE792E00E94360284EA05
:100C200092E00E9436028091BA029091BB02019636
:100C30009093BB028093BA026091B2027091B302AA
:100C4000CE0101960E9418036091B4027091B50222
:100C5000CE0107960E9418031E861D86188A1F86DD
:100C60001A8A198A69E672E0CE010D960E94500335
:100C7000BE01695F7F4FCE010D960E94E40263E7DB
:100C800072E00E94CE0266E772E00E94CE02BE01D0
:100C90006F5F7F4F0E94E4020E944D02CE010D96CD
:100CA0000E947202CE0107960E947202CE01019646
:100CB0000E947202ADCE2115310581F4019799F49D
:100CC00089E892E00E9436028091B2029091B302CC
:100CD00001969093B3028093B202A1CF21303105E7
:100CE00081F4029769F388E992E00E9436028091CC
:100CF000B4029091B50201969093B5028093B4022C
:100D00008ECF2230310579F7892B69F7D9CF82E66A
:100D100093E00C9472028F929F92AF92BF92CF9207
:100D2000DF92EF92FF92CF93DF93EC01688179819C
:100D30008A819B81611571058105910521F464E229
:100D400079ED8BE597E02DE133EF41E050E00E9433
:100D5000A00749015A019B01AC01A7EAB1E40E9436
:100D6000BF076B017C01ACEEB4EFA50194010E94BA
:100D7000CD07C60ED71EE81EF91EF7FE06C081E09D
:100D8000C81AD108E10880E8F80AC882D982EA8244
:100D9000FB82C701B6019F77DF91CF91FF90EF9063
:100DA000DF90CF90BF90AF909F908F9008958F92DB
:100DB0009F92AF92BF92CF92DF92EF92FF9260919B
:100DC000000270910102809102029091030261156C
:100DD00071058105910521F464E279ED8BE597E0D9
:100DE0002DE133EF41E050E00E94A00749015A0194
:100DF0009B01AC01A7EAB1E40E94BF076B017C0133
:100E0000ACEEB4EFA50194010E94CD07C60ED71E2B
:100E1000E81EF91EF7FE06C081E0C81AD108E108F5
:100E200080E8F80AC0920002D0920102E092020229
:100E3000F0920302C701B6019F77FF90EF90DF9019
:100E4000CF90BF90AF909F908F90089560930002D5
:100E500070930102809302029093030208951F93FE
:100E6000FC0199278827BC01E89411911032E9F31D
:100E7000193010F01E30C8F31B3251F01D3249F406
:100E8000689406C00E946107610F711D811D911D4C
:100E9000119110531A30B0F33EF4909580957095EF
:100EA00061957F4F8F4F9F4F1F910895BB274A3009
:100EB00031F4992322F4BDE2909581959F4F0C94D3
:100EC0007707592F482F372F262F660F771F881F38
:100ED000991F660F771F881F991F620F731F841F4A
:100EE000951F660F771F881F991F0895BB27FB0169
:100EF0005527AA27880F991FAA1FA41710F0A41B13
:100F000083955051B9F7A05DAA3308F0A95DA1936C
:100F1000009779F7B111B1931192CB010C9490071E
:100F2000DC01FC01672F71917723E1F7329704C050
:100F30007C916D9370836291AE17BF07C8F30895DB
:100F4000052E97FB1EF400940E94B70757FD07D0AB
:100F50000E94D20707FC03D04EF40C94B7075095BB
:100F60004095309521953F4F4F4F5F4F0895909595
:100F70008095709561957F4F8F4F9F4F08950E9488
:100F8000F407A59F900DB49F900DA49F800D911D17
:100F900011240895B7FF0C94BF070E94BF07821B5E
:100FA000930B0895A1E21A2EAA1BBB1BFD010DC0D5
:100FB000AA1FBB1FEE1FFF1FA217B307E407F50709
:100FC00020F0A21BB30BE40BF50B661F771F881FE5
:100FD000991F1A9469F760957095809590959B017B
:100FE000AC01BD01CF010895A29FB001B39FC00124
:100FF000A39F700D811D1124911DB29F700D811D45
:101000001124911D0895EE0FFF1F881F8BBF0790BD
:10101000F691E02D19940F931F93CF93DF938230B5
:10102000910510F482E090E0E0916A03F0916B0387
:1010300030E020E0B0E0A0E0309799F421153105D0
:1010400009F44AC0281B390B24303105D8F58A81B0
:101050009B816115710589F1FB0193838283FE01F8
:1010600011C0408151810281138148175907E0F076
:101070004817590799F4109761F012960C9312973C
:1010800013961C933296CF01DF91CF911F910F9150
:10109000089500936A0310936B03F4CF2115310573
:1010A00051F04217530738F0A901DB019A01BD0145
:1010B000DF01F801C1CFEF01F9CF90936B0380936B
:1010C0006A03CDCFFE01E20FF31F8193919322506B
:1010D000310939832883D7CF209168033091690380
:1010E000232B41F4209106023091070230936903CB
:1010F00020936803209104023091050221153105E7
:1011000041F42DB73EB74091080250910902241BCB
:10111000350BE0916803F0916903E217F307A0F43F
:101120002E1B3F0B2817390778F0AC014E5F5F4F3D
:101130002417350748F04E0F5F1F50936903409303
:101140006803819391939FCFF0E0E0E09CCFCF9331
:10115000DF930097E9F0FC01329713821282A0918D
:101160006A03B0916B03ED0130E020E01097A1F429
:1011700020813181820F931F209168033091690390
:101180002817390709F061C0F0936903E0936803F9
:10119000DF91CF910895EA01CE17DF07E8F54A8184
:1011A0005B819E0141155105B1F7E901FB83EA839B
:1011B00049915991C40FD51FEC17FD0761F4808147
:1011C00091810296840F951FE9019983888382811A
:1011D00093819B838A83F0E0E0E012968D919C914D
:1011E00013970097B9F52D913C911197CD01029677
:1011F000820F931F209168033091690328173907E4
:1012000039F6309751F510926B0310926A03B09340
:101210006903A0936803BCCFD383C283408151810B
:10122000840F951FC817D90761F44E5F5F4F8881FF
:101230009981480F591F518340838A819B819383F1
:1012400082832115310509F0B0CFF0936B03E09351
:101250006A039ECFFD01DC01C0CF13821282D7CF7B
:101260004F925F926F927F928F929F92AF92BF92B6
:10127000CF92DF92EF92FF920F931F93CF93DF9362
:101280008C01009799F4CB01DF91CF911F910F91C1
:10129000FF90EF90DF90CF90BF90AF909F908F9096
:1012A0007F906F905F904F900C940B08FC01E60FBD
:1012B000F71F9C0122503109E217F30708F4AEC072
:1012C000D901CD91DC911197C617D70720F1C53010
:1012D000D10578F0CE0104978617970750F0C61B0A
:1012E000D70B2297C193D1936D937C93CF010E942A
:1012F000A708C801DF91CF911F910F91FF90EF9048
:10130000DF90CF90BF90AF909F908F907F906F9025
:101310005F904F9008955B01AC1ABD0A4C018C0E92
:101320009D1EA0916A03B0916B03512C412CF12CAE
:10133000E12C109731F5809168039091690388152D
:10134000990509F05CC04616570608F058C0809110
:10135000040290910502009741F48DB79EB7409129
:10136000080250910902841B950BE817F90708F051
:1013700055C0F0936903E0936803F90171836083BA
:10138000B8CF8D919C91119712966C9012971396ED
:101390007C901397A815B90559F56C0142E0C40E6D
:1013A000D11CCA14DB0420F1AC014A195B09DA0133
:1013B0001296159780F06282738251834083D9011F
:1013C0006D937C93E114F10471F0D7011396FC93B3
:1013D000EE9312978ECF22968C0F9D1FF901918369
:1013E0008083F301EFCFF0936B03E0936A0381CF27
:1013F0004816590608F42C017D01D3019ACFCB0180
:101400000E940B087C01009749F0AE01B8010E94D0
:10141000110AC8010E94A70887016BCF10E000E005
:1014200068CFFB01DC0102C001900D924150504099
:10143000D8F70895FB01DC0101900D920020E1F73F
:10144000089510E0C5E8D0E000E006C0802FFE015E
:101450000E9403082196011DC638D10780E00807C5
:06146000A9F7F894FFCF8C
:101466000100000000006C038000000000009001F5
:10147600BA00E700DD015801F6004A010D0A0053E3
:10148600656C6363696F6E6520506965647261207F
:10149600706170656C206F207469676572610030D9
:1014A6002E2D50696564726100312E2D5061706574
:1014B6006C00322E2D546967657261000A456C65B1
:1014C6006363696F6E65733A0041726475696E6F26
:1014D6003A200020200050313A2000456D7061749A
:1014E600616D6F732121210A004861732047616E87
:1014F60061646F2121210A0054652047616E6521D0
:1015060021210A0050756E74616A653A20000A202E
:021516000A00C9
:00000001FF
