:100000000C9486000C94B7000C94B7000C94B700C5
:100010000C94B7000C94B7000C94B7000C94B70084
:100020000C94B7000C94B7000C94B7000C94B70074
:100030000C94B7000C94B7000C94B7000C94B70064
:100040000C94B7000C94B7000C94B7000C94B70054
:100050000C94B7000C94B7000C94B7000C944403B4
:100060000C94B7000C94B8030C948E030C94B70056
:100070000C94B7000C94B7000C94B7000C94B70024
:100080000C94B7000C94B7000C94B7000C94B70014
:100090000C94B7000C94B7000C94B7000C94B70004
:1000A0000C94B7000C94B7000C94B7000C94B700F4
:1000B0000C94B7000C94B7000C94B7000C94B700E4
:1000C0000C94B7000C94B7000C94B7000C94B700D4
:1000D0000C94B7000C94B7000C94B7000C94B700C4
:1000E0000C94B7000C94BA000C9459060C944A0175
:1000F0000C94EE030C9490010C94DD010C94E70039
:100100000C9458010C94F600EE03590611241FBEFE
:10011000CFEFD1E2DEBFCDBF00E00CBF12E0A0E028
:10012000B2E0EAE0F4E100E00BBF02C007900D92FC
:10013000A03DB107D9F723E0A0EDB2E001C01D92C8
:10014000AA38B207E1F710E0C5E8D0E000E006C049
:1001500021970109802FFE010E94D507C438D107DD
:1001600080E00807A9F70E9427040C94F3090C9477
:1001700000000895AF92BF92CF92DF92EF92FF926C
:100180000F931F93CF93DF936C017B018B01040FBF
:10019000151FEB015E01AE18BF08C017D10759F05B
:1001A0006991D601ED91FC910190F081E02DC6019D
:1001B0001995892B79F7C501DF91CF911F910F9187
:1001C000FF90EF90DF90CF90BF90AF900895FC012B
:1001D000538D448D252F30E0842F90E0821B930BAC
:1001E000541710F0CF96089501970895FC01918D52
:1001F000828D981761F0A28DAE0FBF2FB11D5D9655
:100200008C91928D9F5F9F73928F90E008958FEFF6
:100210009FEF08952FB7F8948091DF029091E0024C
:10022000A091E102B091E2022FBF8093EB02909384
:10023000EC02A093ED02B093EE0283EE92E00E94F6
:10024000F60097FF26C02FB7F8948091DF029091B7
:10025000E002A091E102B091E2022FBF4091EB02D7
:100260005091EC026091ED027091EE02841B950BAF
:10027000A60BB70B4091E7025091E8026091E902AA
:100280007091EA0284179507A607B707B0F28FEFBF
:100290009FEF0895FC01918D828D981731F0828D2A
:1002A000E80FF11D858D90E008958FEF9FEF089581
:1002B000FC01918D228D892F90E0805C9F4F821BE5
:1002C00091098F739927089583EE92E00E94580157
:1002D00021E0892B09F420E0822F0895FC01A48DF0
:1002E000A80FB92FB11DA35ABF4F2C91848D90E058
:1002F00001968F739927848FA689B7892C93A0893B
:10030000B1898C91837080648C93938D848D9813C4
:1003100006C00288F389E02D80818F7D8083089557
:10032000EF92FF920F931F93CF93DF93EC0181E045
:10033000888F9B8D8C8D98131AC0E889F9898081EC
:1003400085FF15C09FB7F894EE89FF896083E8891F
:10035000F98980818370806480839FBF81E090E011
:10036000DF91CF911F910F91FF90EF900895F62E9E
:100370000B8D10E00F5F1F4F0F731127E02E8C8D38
:100380008E110CC00FB607FCFACFE889F98980817D
:1003900085FFF5CFCE010E946E01F1CFEB8DEC0F02
:1003A000FD2FF11DE35AFF4FF0829FB7F8940B8F9A
:1003B000EA89FB8980818062CFCFCF93DF93EC0104
:1003C000888D8823B9F0AA89BB89E889F9898C913D
:1003D00085FD03C0808186FD0DC00FB607FCF7CFF9
:1003E0008C9185FFF2CF808185FFEDCFCE010E94F9
:1003F0006E01E9CFDF91CF91089580E090E0892BE5
:1004000029F00E94640181110E94000080E090E0C8
:10041000892B49F080E090E0892B29F00E940000B0
:1004200081110E94000080E090E0892B49F080E07B
:1004300090E0892B29F00E94000081110E940000A9
:1004400080E090E0892B49F080E090E0892B29F052
:100450000E94000081110C940000089542E050E0D9
:100460006CE172E083EE92E00C94BA00CF93DF93DC
:10047000FC0101900020E9F73197AF01481B590BAF
:10048000BC0183EE92E00E94BA00EC010E942E02B1
:100490008C0F9D1FDF91CF910895CF93DF93FC01C7
:1004A000448155816081718183EE92E00E94BA009F
:1004B000EC010E942E028C0F9D1FDF91CF910895B9
:1004C000CF93DF93EC0188819981009711F00E940E
:1004D0007908198218821D821C821B821A82DF9180
:1004E000CF910895FC0180819181009711F00C94C7
:1004F000790808950F931F93CF93DF93EC018881C0
:100500009981009759F02A813B812617370730F0EF
:1005100081E0DF91CF911F910F9108958B016F5F63
:100520007F4F0E940209009759F0998388831B83AB
:100530000A832C813D81232B59F7FC011082E8CFDF
:1005400080E0E7CFEF92FF920F931F93CF93DF935B
:100550006115710541F480E0DF91CF911F910F91FA
:10056000FF90EF90089541155105B1F07B01EC012A
:100570000C811D81040F151FB8010E947A02882387
:1005800051F3288139818C819D81B701820F931F9E
:100590000E94EC091D830C8381E0DECFCF93DF93B3
:1005A000EC01FB0144815581608171810E94A202AE
:1005B000811103C0CE010E946002CE01DF91CF9174
:1005C0000895EF92FF920F931F93CF93DF93EC0167
:1005D0007B018A01BA010E947A0281110BC0CE010F
:1005E0000E946002CE01DF91CF911F910F91FF9089
:1005F000EF9008951D830C83B701888199810E9433
:10060000EC09F0CFEF92FF920F931F93CF93DF93FC
:10061000CDB7DEB762970FB6F894DEBF0FBECDBF81
:100620008C01CB01F8011182108213821282158293
:1006300014824AE09E012F5F3F4F7901B9010E9469
:100640002807F70101900020E9F73197AF014E1913
:100650005F09B701C8010E94E10262960FB6F894E3
:10066000DEBF0FBECDBFDF91CF911F910F91FF90E5
:10067000EF900895FB0101900020E9F73197AF0159
:10068000461B570B0C94E1021F920F920FB60F926C
:1006900011242F933F938F939F93AF93BF93809198
:1006A000DF029091E002A091E102B091E20230916C
:1006B000DE0223E0230F2D3758F50196A11DB11D51
:1006C0002093DE028093DF029093E002A093E10288
:1006D000B093E2028091DA029091DB02A091DC02F9
:1006E000B091DD020196A11DB11D8093DA029093B5
:1006F000DB02A093DC02B093DD02BF91AF919F912A
:100700008F913F912F910F900FBE0F901F901895D2
:1007100026E8230F0296A11DB11DD2CF1F920F9282
:100720000FB60F9211240BB60F922F933F934F9356
:100730005F936F937F938F939F93AF93BF93EF9349
:10074000FF9383EE92E00E946E01FF91EF91BF91C3
:10075000AF919F918F917F916F915F914F913F9159
:100760002F910F900BBE0F900FBE0F901F901895FA
:100770001F920F920FB60F9211240BB60F922F9368
:100780008F939F93EF93FF93E091F302F091F40224
:100790008081E091F902F091FA0282FD1DC0908102
:1007A0008091FC028F5F8F732091FD02821741F0D0
:1007B000E091FC02F0E0ED51FD4F958F8093FC023B
:1007C000FF91EF919F918F912F910F900BBE0F9002
:1007D0000FBE0F901F9018958081F2CFE3EEF2E0EC
:1007E0001382128288EE93E0A0E0B0E084839583C8
:1007F000A683B7838EE092E09183808385EC90E0BE
:100800009587848784EC90E09787868780EC90E0DA
:10081000918B808B81EC90E0938B828B82EC90E0CB
:10082000958B848B86EC90E0978B868B118E128E45
:10083000138E148EE0E8F3E011821082138212828C
:10084000158214826EE172E0CF010C943A03CF93CB
:10085000DF93CDB7DEB762970FB6F894DEBF0FBE59
:10086000CDBF789484B5826084BD84B5816084BD39
:1008700085B5826085BD85B5816085BD80916E003E
:10088000816080936E00109281008091810082606F
:1008900080938100809181008160809381008091AC
:1008A00080008160809380008091B100846080939B
:1008B000B1008091B00081608093B0008091910080
:1008C000826080939100809191008160809391007B
:1008D000809190008160809390008091A10082605F
:1008E0008093A1008091A10081608093A1008091FC
:1008F000A00081608093A00080912101826080939C
:10090000210180912101816080932101809120014A
:1009100081608093200180917A00846080937A00C6
:1009200080917A00826080937A0080917A00816061
:1009300080937A0080917A00806880937A00109288
:10094000C100E091F302F091F40282E08083E09133
:10095000EF02F091F0021082E091F102F091F202C8
:100960008FEC80831092FB02E091F702F091F80285
:1009700086E08083E091F502F091F602808180614B
:100980008083E091F502F091F60280818860808397
:10099000E091F502F091F602808180688083E09119
:1009A000F502F091F60280818F7D80838AEF90E0DE
:1009B000A0E0B0E08093E7029093E802A093E90200
:1009C000B093EA0284E1C82ED12CE12CF12C809165
:1009D000D8029091D9028130910599F12CF4892B9C
:1009E00011F10E94FD01F3CF8230910509F4AEC0F0
:1009F0000397B9F71092D7021092D60250E040E068
:100A00006EE172E080E893E00E94E1021092D90268
:100A10001092D8021092D5021092D4028CEC92E07F
:100A20000E943602DECF8FE192E00E943602809172
:100A3000D8029091D90201969093D9028093D8025E
:100A4000D0CF83EE92E00E945801181619064CF69A
:100A50001A8219821C821B821E821D826EE172E044
:100A6000CE0101960E943A030E940A0197FD0CC034
:100A70008F83188641E050E0BE01695F7F4FCE0151
:100A800001960E94A202F0CF809180039091810391
:100A9000009709F440C069817A8161157105C9F137
:100AA00040918203509183032D813E814217530769
:100AB00080F10E94EC098D819E8190938503809343
:100AC00084031E821D82CE0101960E9472028091D3
:100AD0008003909181030097A9F10E940107709310
:100AE000D7026093D6020E94A906A70196010E9430
:100AF00072077093D5026093D4028091D8029091CE
:100B0000D90201969093D9028093D8020E942E02B6
:100B100068CF0E94790889819A819093810380939C
:100B200080038B819C8190938303809382038D81CA
:100B30009E8190938503809384031A8219821C827C
:100B40001B82BFCF60E070E0CB01C9CF2091D602FD
:100B50003091D7028091D4029091D502281739079D
:100B60000CF08FC08BE392E00E9436026091D402B9
:100B70007091D502CE0101960E94020318861F8251
:100B80001A8619861C861B8665E572E0CE010796DB
:100B90000E943A03BE016F5F7F4FCE0107960E940D
:100BA000CE020E944D02CE0107960E947202CE0133
:100BB00001960E9472028091D2029091D302019616
:100BC0009093D3028093D2028091D8029091D9025F
:100BD00001969093D9028093D80288EB92E00E940C
:100BE00036026091D0027091D102CE0101960E942E
:100BF00002036091D2027091D302CE0107960E9447
:100C000002031E861D86188A1F861A8A198A60ECBE
:100C100072E0CE010D960E943A03BE01695F7F4FDC
:100C2000CE010D960E94CE028C0142E050E064ECB1
:100C300072E00E94A202811103C0C8010E946002FA
:100C400044E050E067EC72E0C8010E94A20281110A
:100C500003C0C8010E946002BE016F5F7F4FC801E0
:100C60000E94CE020E944D02CE010D960E94720299
:100C7000CE0107960E947202CE0101960E94720276
:100C8000B0CE821793071CF488E792E06DCF281747
:100C9000390709F099CF82E992E00E9436028091EB
:100CA000D0029091D10201969093D1028093D0020C
:100CB0008BCF80E893E00C9472028F929F92AF9258
:100CC000BF92CF92DF92EF92FF92CF93DF93EC012E
:100CD000688179818A819B81611571058105910502
:100CE00021F464E279ED8BE597E02DE133EF41E00B
:100CF00050E00E94720749015A019B01AC01A7EA2A
:100D0000B1E40E9491076B017C01ACEEB4EFA50148
:100D100094010E949F07C60ED71EE81EF91EF7FE1B
:100D200006C081E0C81AD108E10880E8F80AC88244
:100D3000D982EA82FB82C701B6019F77DF91CF910A
:100D4000FF90EF90DF90CF90BF90AF909F908F90EB
:100D500008958F929F92AF92BF92CF92DF92EF92BF
:100D6000FF926091000270910102809102029091C5
:100D70000302611571058105910521F464E279EDA5
:100D80008BE597E02DE133EF41E050E00E947207E0
:100D900049015A019B01AC01A7EAB1E40E94910705
:100DA0006B017C01ACEEB4EFA50194010E949F079A
:100DB000C60ED71EE81EF91EF7FE06C081E0C81A4F
:100DC000D108E10880E8F80AC0920002D09201023E
:100DD000E0920202F0920302C701B6019F77FF90F2
:100DE000EF90DF90CF90BF90AF909F908F9008953D
:100DF00060930002709301028093020290930302B9
:100E000008951F93FC0199278827BC01E89411914C
:100E10001032E9F3193010F01E30C8F31B3251F0D4
:100E20001D3249F4689406C00E943307610F711D9A
:100E3000811D911D119110531A30B0F33EF490951D
:100E40008095709561957F4F8F4F9F4F1F910895AB
:100E5000BB274A3031F4992322F4BDE29095819565
:100E60009F4F0C944907592F482F372F262F660F75
:100E7000771F881F991F660F771F881F991F620FA2
:100E8000731F841F951F660F771F881F991F089572
:100E9000BB27FB015527AA27880F991FAA1FA41754
:100EA00010F0A41B83955051B9F7A05DAA3308F048
:100EB000A95DA193009779F7B111B1931192CB017C
:100EC0000C946207DC01FC01672F71917723E1F735
:100ED000329704C07C916D9370836291AE17BF0707
:100EE000C8F30895052E97FB1EF400940E9489070D
:100EF00057FD07D00E94A40707FC03D04EF40C94C2
:100F0000890750954095309521953F4F4F4F5F4F42
:100F1000089590958095709561957F4F8F4F9F4F65
:100F200008950E94C607A59F900DB49F900DA49FA1
:100F3000800D911D11240895B7FF0C9491070E9414
:100F40009107821B930B0895A1E21A2EAA1BBB1BCB
:100F5000FD010DC0AA1FBB1FEE1FFF1FA217B30785
:100F6000E407F50720F0A21BB30BE40BF50B661F9B
:100F7000771F881F991F1A9469F76095709580955F
:100F800090959B01AC01BD01CF010895A29FB001D6
:100F9000B39FC001A39F700D811D1124911DB29FAD
:100FA000700D811D1124911D0895EE0FFF1F881FE4
:100FB0008BBF0790F691E02D19940F931F93CF9359
:100FC000DF938230910510F482E090E0E091880395
:100FD000F091890330E020E0B0E0A0E0309799F490
:100FE0002115310509F44AC0281B390B243031057D
:100FF000D8F58A819B816115710589F1FB01938385
:101000008283FE0111C04081518102811381481702
:101010005907E0F04817590799F4109761F01296B4
:101020000C93129713961C933296CF01DF91CF91B8
:101030001F910F9108950093880310938903F4CFB3
:101040002115310551F04217530738F0A901DB0192
:101050009A01BD01DF01F801C1CFEF01F9CF9093F3
:10106000890380938803CDCFFE01E20FF31F8193A4
:1010700091932250310939832883D7CF2091860359
:1010800030918703232B41F420910602309107020F
:101090003093870320938603209104023091050248
:1010A0002115310541F42DB73EB74091080250910A
:1010B0000902241B350BE0918603F0918703E217A8
:1010C000F307A0F42E1B3F0B2817390778F0AC016B
:1010D0004E5F5F4F2417350748F04E0F5F1F509348
:1010E000870340938603819391939FCFF0E0E0E0E4
:1010F0009CCFCF93DF930097E9F0FC0132971382E6
:101100001282A0918803B0918903ED0130E020E0C4
:101110001097A1F420813181820F931F20918603C3
:10112000309187032817390709F061C0F0938703CE
:10113000E0938603DF91CF910895EA01CE17DF0790
:10114000E8F54A815B819E0141155105B1F7E9013E
:10115000FB83EA8349915991C40FD51FEC17FD0712
:1011600061F4808191810296840F951FE901998332
:101170008883828193819B838A83F0E0E0E01296EA
:101180008D919C9113970097B9F52D913C911197F2
:10119000CD010296820F931F209186033091870321
:1011A0002817390739F6309751F5109289031092B4
:1011B0008803B0938703A0938603BCCFD383C283F5
:1011C00040815181840F951FC817D90761F44E5F84
:1011D0005F4F88819981480F591F518340838A81CD
:1011E0009B81938382832115310509F0B0CFF09361
:1011F0008903E09388039ECFFD01DC01C0CF1382F9
:101200001282D7CF4F925F926F927F928F929F926E
:10121000AF92BF92CF92DF92EF92FF920F931F9304
:10122000CF93DF938C01009799F4CB01DF91CF919D
:101230001F910F91FF90EF90DF90CF90BF90AF90F4
:101240009F908F907F906F905F904F900C94DD07F0
:10125000FC01E60FF71F9C0122503109E217F3074A
:1012600008F4AEC0D901CD91DC911197C617D7070C
:1012700020F1C530D10578F0CE0104978617970785
:1012800050F0C61BD70B2297C193D1936D937C93DB
:10129000CF010E947908C801DF91CF911F910F9172
:1012A000FF90EF90DF90CF90BF90AF909F908F9086
:1012B0007F906F905F904F9008955B01AC1ABD0ACC
:1012C0004C018C0E9D1EA0918803B0918903512C76
:1012D000412CF12CE12C109731F5809186039091EF
:1012E00087038815990509F05CC04616570608F073
:1012F00058C08091040290910502009741F48DB787
:101300009EB74091080250910902841B950BE81783
:10131000F90708F055C0F0938703E0938603F901BD
:1013200071836083B8CF8D919C91119712966C90C8
:10133000129713967C901397A815B90559F56C016F
:1013400042E0C40ED11CCA14DB0420F1AC014A19DE
:101350005B09DA011296159780F0628273825183DD
:101360004083D9016D937C93E114F10471F0D701AE
:101370001396FC93EE9312978ECF22968C0F9D1F9F
:10138000F90191838083F301EFCFF0938903E09318
:10139000880381CF4816590608F42C017D01D3013A
:1013A0009ACFCB010E94DD077C01009749F0AE0186
:1013B000B8010E94E309C8010E94790887016BCF38
:1013C00010E000E068CFFB01DC0102C001900D924B
:1013D00041505040D8F70895FB01DC0101900D9277
:1013E0000020E1F7089510E0C5E8D0E000E006C075
:1013F000802FFE010E94D5072196011DC638D10716
:0A14000080E00807A9F7F894FFCF79
:10140A000100000000008A03800000000000900133
:10141A00BA00E700DD015801F6004A010D0A004151
:10142A00646976696E6120756E206E756D65726F7E
:10143A0020616C6561746F72696F00547520657301
:10144A0074696D6163696F6E206573206D757920AB
:10145A0062616A6100456C206E756D65726F2071FC
:10146A007565206573746162612070656E73616E63
:10147A00646F206572612000547520657374696D0C
:10148A006163696F6E206573206D757920616C7474
:10149A0061004275656E2074726162616A6F2068CC
:1014AA0061732061646976696E61646F206D692079
:1014BA006E756D65726F210053636F72653A200015
:1014CA00596F3A0020200054753A20000A200A0079
:00000001FF
