:100000000C9483000C94B4000C94B4000C94B400D1
:100010000C94B4000C94B4000C94B4000C94B40090
:100020000C94B4000C94B4000C94B4000C94B40080
:100030000C94B4000C94B4000C94B4000C94B40070
:100040000C94B4000C94B4000C94B4000C94B40060
:100050000C94B4000C94B4000C94B4000C94770489
:100060000C94B4000C9441040C9417040C94B40048
:100070000C94B4000C94B4000C94B4000C94B40030
:100080000C94B4000C94B4000C94B4000C94B40020
:100090000C94B4000C94B4000C94B4000C94B40010
:1000A0000C94B4000C94B4000C94B4000C94B40000
:1000B0000C94B4000C94B4000C94B4000C94B400F0
:1000C0000C94B4000C94B4000C94B4000C94B400E0
:1000D0000C94B4000C94B4000C94B4000C94B400D0
:1000E0000C94B4000C94F2000C9454010C9460062F
:1000F0000C94B6000C94D9010C948C010C94E30080
:100100000C944601600611241FBECFEFD1E2DEBF82
:10011000CDBF00E00CBF23E0AAE7B2E001C01D9212
:10012000A433B207E1F712E0A0E0B2E0EEE8F6E1B6
:1001300000E00BBF02C007900D92AA37B107D9F7B4
:1001400010E0C3E8D0E000E006C021970109802F4D
:10015000FE010E942709C238D10780E00807A9F7ED
:100160000E94C1040C94450B0C940000AF92BF9206
:10017000CF92DF92EF92FF920F931F93CF93DF9373
:100180006C017B018B01040F151FEB015E01AE18A2
:10019000BF08C017D10759F06991D601ED91FC91C4
:1001A0000190F081E02DC6011995892B79F7C501E1
:1001B000DF91CF911F910F91FF90EF90DF90CF9043
:1001C000BF90AF900895FC01538D448D252F30E0F2
:1001D000842F90E0821B930B541710F0CF96089554
:1001E00001970895FC01918D828D981761F0A28D81
:1001F000AE0FBF2FB11D5D968C91928D9F5F9F7347
:10020000928F90E008958FEF9FEF08952FB7F894A5
:1002100080918F0290919002A0919102B0919202F0
:100220002FBF80939B0290939C02A0939D02B0935A
:100230009E0283E992E00E94F20097FF26C02FB74A
:10024000F89480918F0290919002A0919102B091C8
:1002500092022FBF40919B0250919C0260919D029F
:1002600070919E02841B950BA60BB70B40919702D1
:10027000509198026091990270919A0284179507A3
:10028000A607B707B0F28FEF9FEF0895FC01918D9D
:10029000828D981731F0828DE80FF11D858D90E0E9
:1002A00008958FEF9FEF0895FC01918D228D892F86
:1002B00090E0805C9F4F821B91098F73992708956E
:1002C00083E992E00E94540121E0892B09F420E0A7
:1002D000822F0895FC01A48DA80FB92FB11DA35A38
:1002E000BF4F2C91848D90E001968F739927848F56
:1002F000A689B7892C93A089B1898C918370806479
:100300008C93938D848D981306C00288F389E02D19
:1003100080818F7D80830895EF92FF920F931F93CA
:10032000CF93DF93EC0181E0888F9B8D8C8D9813A8
:100330001AC0E889F989808185FF15C09FB7F894B4
:10034000EE89FF896083E889F98980818370806400
:1003500080839FBF81E090E0DF91CF911F910F914B
:10036000FF90EF900895F62E0B8D10E00F5F1F4F5A
:100370000F731127E02E8C8D8E110CC00FB607FC69
:10038000FACFE889F989808185FFF5CFCE010E94F7
:100390006A01F1CFEB8DEC0FFD2FF11DE35AFF4FFA
:1003A000F0829FB7F8940B8FEA89FB898081806285
:1003B000CFCFCF93DF93EC01888D8823B9F0AA8942
:1003C000BB89E889F9898C9185FD03C0808186FD10
:1003D0000DC00FB607FCF7CF8C9185FFF2CF80815F
:1003E00085FFEDCFCE010E946A01E9CFDF91CF9169
:1003F000089580E090E0892B29F00E94600181112E
:100400000E94000080E090E0892B49F080E090E0BD
:10041000892B29F00E94000081110E94000080E0D9
:1004200090E0892B49F080E090E0892B29F00E9430
:10043000000081110E94000080E090E0892B49F0CB
:1004400080E090E0892B29F00E94000081110C943B
:10045000000008953FB7F89480917B0290917C0250
:10046000A0917D02B0917E0226B5A89B05C02F3FCA
:1004700019F00196A11DB11D3FBFBA2FA92F982FCA
:100480008827BC01CD01620F711D811D911D42E0C5
:10049000660F771F881F991F4A95D1F70895FC01B1
:1004A00001900020E9F73197AF01481B590BBC01BF
:1004B00083E992E00C94B6008F929F92AF92BF9224
:1004C0000F931F93CF93DF93CDB7DEB7A1970FB6EE
:1004D000F894DEBF0FBECDBF19A2423008F44AE047
:1004E0008E010F5D1F4F842E912CB12CA12CA501E4
:1004F00094010E940509E62FB901CA01EA30F4F41B
:10050000E05DD801EE938D01232B242B252B79F769
:1005100090E080E0109719F0CD010E944F02A19663
:100520000FB6F894DEBF0FBECDBFDF91CF911F9104
:100530000F91BF90AF909F908F900895E95CE1CFAD
:1005400088E192E00C944F024F925F926F927F92FB
:100550008F929F92AF92BF92CF92DF92EF92FF92D3
:100560000F931F93CF936B017C01742EAC019B0101
:100570000E940009882399F08BE192E0CF911F91AE
:100580000F91FF90EF90DF90CF90BF90AF909F9032
:100590008F907F906F905F904F900C944F02460128
:1005A0005701E894B7F82FEF3FEF4FE75FE7C5013A
:1005B000B4010E94000981110DC02FEF3FEF4FE7FA
:1005C0005FE7C501B4010E94C90618161CF48FE14B
:1005D00092E0D4CF2FEF3FEF4FE75FE4C701B601C2
:1005E0000E94FB0818161CF483E292E0C7CF2FEF9D
:1005F0003FEF4FE75FECC701B6010E94C90687FDD8
:10060000F3CF20E030E0A901C701B6010E94C9067E
:1006100010E000E087FF0AC06DE283E992E00E94EB
:100620008C018C01F7FAF094F7F8F094C0E060E0E8
:1006300070E080E09FE37C1641F020E030E040E293
:1006400051E40E945A08CF5FF6CFA70196010E949D
:10065000EE072B013C010E94CC084B015C014AE0F3
:100660000E945C027C01E00EF11ECC23C1F1C501A9
:10067000B4010E94CE069B01AC01C301B2010E94ED
:10068000ED074B015C016EE283E992E00E948C0170
:10069000E80EF91EC15018F120E030E040E251E4CC
:1006A000C501B4010E942F072B013C010E94CC0818
:1006B0004B01B12CA12C4AE0C501B4010E945C029F
:1006C000E80EF91EC501B4010E94CE069B01AC01E3
:1006D000C301B2010E94ED074B015C01DBCFC701F2
:1006E000CF911F910F91FF90EF90DF90CF90BF902F
:1006F000AF909F908F907F906F905F904F900895F4
:10070000FC0180819181009711F00C94CB09089530
:10071000FC0180819181009711F00C948D0660E0BE
:1007200070E0CB0108950F931F93CF93DF93EC01FB
:1007300088819981009759F02A813B8126173707D4
:1007400030F081E0DF91CF911F910F9108958B01DF
:100750006F5F7F4F0E94540A009759F099838883F6
:100760001B830A832C813D81232B59F7FC011082C6
:10077000E8CF80E0E7CFEF92FF920F931F93CF93E4
:10078000DF931F921F92CDB7DEB78C01FC0111825F
:100790001082138212821582148270E060E00E943F
:1007A0009303F8012081318181112FC0211531057A
:1007B00019F0C9010E94CB09F8011182108215823B
:1007C0001482138212820E94060197FD26C089833B
:1007D0001A82F801E480F580FFEFEF1AFF0AB701F3
:1007E000C8010E949303882371F3F80120813181AD
:1007F00084819581BE016F5F7F4F820F931F0E949E
:100800003E0BF801F582E482DECF158214826AE1A4
:1008100072E0C9010E943E0BD6CFC8010F900F9025
:10082000DF91CF911F910F91FF90EF9008951F924C
:100830000F920FB60F9211240BB60F922F933F9386
:100840004F935F936F937F938F939F93AF93BF93D8
:10085000EF93FF9383E992E00E946A01FF91EF9189
:10086000BF91AF919F918F917F916F915F914F91C8
:100870003F912F910F900BBE0F900FBE0F901F90C6
:1008800018951F920F920FB60F9211240BB60F926C
:100890002F938F939F93EF93FF93E091A302F09197
:1008A000A4028081E091A902F091AA0282FD1DC0FC
:1008B00090818091AC028F5F8F732091AD0282177F
:1008C00041F0E091AC02F0E0ED56FD4F958F809342
:1008D000AC02FF91EF919F918F912F910F900BBEE2
:1008E0000F900FBE0F901F9018958081F2CF1F922E
:1008F0000F920FB60F9211242F933F938F939F93D4
:10090000AF93BF9380918F0290919002A09191023A
:10091000B091920230917A0223E0230F2D3758F5DF
:100920000196A11DB11D20937A0280938F029093AE
:100930009002A0939102B093920280917B029091D9
:100940007C02A0917D02B0917E020196A11DB11D95
:1009500080937B0290937C02A0937D02B0937E02F1
:10096000BF91AF919F918F913F912F910F900FBEAB
:100970000F901F90189526E8230F0296A11DB11D18
:10098000D2CFCF93DF9300D000D0CDB7DEB778942D
:1009900084B5826084BD84B5816084BD85B5826084
:1009A00085BD85B5816085BD80916E008160809335
:1009B0006E0010928100809181008260809381009E
:1009C00080918100816080938100809180008160AE
:1009D000809380008091B10084608093B100809109
:1009E000B00081608093B00080919100826080931C
:1009F000910080919100816080939100809190009E
:100A00008160809390008091A10082608093A1001A
:100A10008091A10081608093A1008091A0008160FD
:100A20008093A000809121018260809321018091B8
:100A30002101816080932101809120018160809358
:100A4000200180917A00846080937A0080917A00FE
:100A5000826080937A0080917A00816080937A002E
:100A600080917A00806880937A001092C100E091B2
:100A7000A302F091A40282E08083E0919F02F091B2
:100A8000A0021082E091A102F091A2028FEC80837B
:100A90001092AB02E091A702F091A80286E0808359
:100AA000E091A502F091A602808180618083E091AF
:100AB000A502F091A602808188608083E091A50262
:100AC000F091A602808180688083E091A502F09178
:100AD000A60280818F7D808310928302109284020F
:100AE000109285021092860210927F02109280026C
:100AF000109281021092820283E992E00E945401D6
:100B0000181619060CF0B4C087E292E00E944F025A
:100B1000CE0101960E94BB03CE0101960E9488037C
:100B200070938E0260938D02CE0101960E94800325
:100B30000E94A00286E392E00E944F02CE0101963D
:100B40000E94BB03CE0101960E94880370938C0221
:100B500060938B02CE0101960E9480030E94A00246
:100B600085E492E00E944F02CE0101960E94BB03F1
:100B7000CE0101960E94880370938A0260938902D5
:100B8000CE0101960E9480030E94A00284E592E0BB
:100B90000E944F02CE0101960E94BB03CE01019636
:100BA0000E9488037093880260938702CE010196A9
:100BB0000E9480030E94A00260918D0270918E02BB
:100BC00080918B0290918C02680F791F77FF02C091
:100BD0006F5F7F4F75956795072E000C880B990BFB
:100BE0000E94D006609383027093840280938502F2
:100BF000909386026091890270918A0280918702A7
:100C000090918802680F791F77FF02C06F5F7F4F56
:100C100075956795072E000C880B990B0E94D006DE
:100C200060937F027093800280938102909382028E
:100C300083E692E00E944F020E94A002609183022C
:100C400070918402809185029091860242E00E9418
:100C5000A40287E792E00E944F0260917F027091A8
:100C60008002809181029091820242E00E94A4025F
:100C70000E942A024B015C0188EEC82E83E0D82E28
:100C8000E12CF12C0E942A02681979098A099B0932
:100C9000683E734081059105A8F321E0C21AD1088E
:100CA000E108F10888EE880E83E0981EA11CB11CB3
:100CB000C114D104E104F10429F70E94F9011CCF09
:100CC000E3E9F2E01382128288EE93E0A0E0B0E064
:100CD00084839583A683B7838AE092E0918380839F
:100CE00085EC90E09587848784EC90E097878687F1
:100CF00080EC90E0918B808B81EC90E0938B828BE9
:100D000082EC90E0958B848B86EC90E0978B868BC1
:100D1000118E128E138E148E08951F93FC01992745
:100D20008827BC01E89411911032E9F3193010F0D2
:100D30001E30C8F31B3251F01D3249F4689406C0CE
:100D40000E94B406610F711D811D911D11911053F8
:100D50001A30B0F33EF490958095709561957F4F71
:100D60008F4F9F4F1F910895592F482F372F262FB0
:100D7000660F771F881F991F660F771F881F991F9F
:100D8000620F731F841F951F660F771F881F991F9F
:100D900008950E940B0708F481E00895E89409C0C3
:100DA00097FB3EF490958095709561957F4F8F4F9E
:100DB0009F4F9923A9F0F92F96E9BB279395F695B4
:100DC000879577956795B795F111F8CFFAF4BB0F32
:100DD00011F460FF1BC06F5F7F4F8F4F9F4F16C096
:100DE000882311F096E911C0772321F09EE8872F20
:100DF000762F05C0662371F096E8862F70E060E0DC
:100E00002AF09A95660F771F881FDAF7880F969554
:100E1000879597F90895990F0008550FAA0BE0E8F8
:100E2000FEEF16161706E807F907C0F012161306AC
:100E3000E407F50798F0621B730B840B950B39F4EC
:100E40000A2661F0232B242B252B21F408950A2652
:100E500009F4A140A6958FEF811D811D08950E9480
:100E600042070C94B3070E94A50738F00E94AC0714
:100E700020F0952311F00C949C070C94A2071124E8
:100E80000C94E7070E94C40770F3959FC1F3950F78
:100E900050E0551F629FF001729FBB27F00DB11DFE
:100EA000639FAA27F00DB11DAA1F649F6627B00D8E
:100EB000A11D661F829F2227B00DA11D621F739F77
:100EC000B00DA11D621F839FA00D611D221F749F85
:100ED0003327A00D611D231F849F600D211D822FCC
:100EE000762F6A2F11249F5750409AF0F1F08823F3
:100EF0004AF0EE0FFF1FBB1F661F771F881F915020
:100F00005040A9F79E3F510580F00C949C070C942B
:100F1000E7075F3FE4F3983ED4F3869577956795AE
:100F2000B795F795E7959F5FC1F7FE2B880F911D49
:100F30009695879597F9089597F99F6780E870E0EF
:100F400060E008959FEF80EC089500240A9416163F
:100F5000170618060906089500240A9412161306A7
:100F6000140605060895092E0394000C11F4882335
:100F700052F0BB0F40F4BF2B11F460FF04C06F5F51
:100F80007F4F8F4F9F4F089557FD9058440F551F27
:100F900059F05F3F71F04795880F97FB991F61F0FB
:100FA0009F3F79F087950895121613061406551F72
:100FB000F2CF4695F1DF08C0161617061806991FDE
:100FC000F1CF86957105610508940895E894BB27D3
:100FD00066277727CB0197F908955058BB27AA2792
:100FE0000E9405080C94B3070E94A50738F00E94E0
:100FF000AC0720F039F49F3F19F426F40C94A207B3
:101000000EF4E095E7FB0C949C07E92F0E94C407BF
:1010100058F3BA17620773078407950720F079F42D
:10102000A6F50C94E6070EF4E0950B2EBA2FA02D32
:101030000B01B90190010C01CA01A0011124FF2785
:10104000591B99F0593F50F4503E68F11A16F04080
:10105000A22F232F342F4427585FF3CF469537957F
:101060002795A795F0405395C9F77EF41F16BA0B44
:10107000620B730B840BBAF09150A1F0FF0FBB1FF2
:10108000661F771F881FC2F70EC0BA0F621F731F3B
:10109000841F48F4879577956795B795F7959E3F98
:1010A00008F0B0CF9395880F08F09927EE0F979529
:1010B000879508950E946E080C94B3070E94AC07B0
:1010C00058F00E94A50740F029F45F3F29F00C94E6
:1010D0009C0751110C94E7070C94A2070E94C407C7
:1010E00068F39923B1F3552391F3951B550BBB2757
:1010F000AA2762177307840738F09F5F5F4F220F9C
:10110000331F441FAA1FA9F335D00E2E3AF0E0E892
:1011100032D091505040E695001CCAF72BD0FE2FDC
:1011200029D0660F771F881FBB1F26173707480770
:10113000AB07B0E809F0BB0B802DBF01FF27935828
:101140005F4F3AF09E3F510578F00C949C070C9449
:10115000E7075F3FE4F3983ED4F38695779567956C
:10116000B795F7959F5FC9F7880F911D969587955D
:1011700097F90895E1E0660F771F881FBB1F62177C
:1011800073078407BA0720F0621B730B840BBA0B3A
:10119000EE1F88F7E09508950E94CC0788F09F57CE
:1011A00098F0B92F9927B751B0F0E1F0660F771F8B
:1011B000881F991F1AF0BA95C9F714C0B13091F081
:1011C0000E94E607B1E008950C94E607672F782F98
:1011D0008827B85F39F0B93FCCF386957795679546
:1011E000B395D9F73EF490958095709561957F4FB2
:1011F0008F4F9F4F08950E940B0708F48FEF0895BB
:101200000E940B07880B990B0895A1E21A2EAA1BC6
:10121000BB1BFD010DC0AA1FBB1FEE1FFF1FA217A6
:10122000B307E407F50720F0A21BB30BE40BF50BA3
:10123000661F771F881F991F1A9469F7609570952C
:10124000809590959B01AC01BD01CF010895EE0FF3
:10125000FF1F881F8BBF0790F691E02D19940F9305
:101260001F93CF93DF938230910510F482E090E0DA
:10127000E0913203F091330330E020E0B0E0A0E0F1
:10128000309799F42115310509F44AC0281B390B10
:1012900024303105D8F58A819B816115710589F16A
:1012A000FB0193838283FE0111C040815181028141
:1012B000138148175907E0F04817590799F4109718
:1012C00061F012960C93129713961C933296CF01ED
:1012D000DF91CF911F910F910895009332031093E6
:1012E0003303F4CF2115310551F04217530738F07D
:1012F000A901DB019A01BD01DF01F801C1CFEF01B6
:10130000F9CF9093330380933203CDCFFE01E20FE8
:10131000F31F819391932250310939832883D7CFCA
:101320002091300330913103232B41F420910202AC
:101330003091030230933103209330032091000257
:10134000309101022115310541F42DB73EB740918E
:10135000040250910502241B350BE0913003F091FB
:101360003103E217F307A0F42E1B3F0B28173907B0
:1013700078F0AC014E5F5F4F2417350748F04E0FF1
:101380005F1F5093310340933003819391939FCF1C
:10139000F0E0E0E09CCFCF93DF930097E9F0FC0111
:1013A000329713821282A0913203B0913303ED0180
:1013B00030E020E01097A1F420813181820F931F4B
:1013C00020913003309131032817390709F061C0AB
:1013D000F0933103E0933003DF91CF910895EA0158
:1013E000CE17DF07E8F54A815B819E014115510563
:1013F000B1F7E901FB83EA8349915991C40FD51FE5
:10140000EC17FD0761F4808191810296840F951F8E
:10141000E90199838883828193819B838A83F0E0A9
:10142000E0E012968D919C9113970097B9F52D915C
:101430003C911197CD010296820F931F20913003AA
:10144000309131032817390739F6309751F510924A
:10145000330310923203B0933103A0933003BCCF17
:10146000D383C28340815181840F951FC817D90748
:1014700061F44E5F5F4F88819981480F591F5183F6
:1014800040838A819B81938382832115310509F0F2
:10149000B0CFF0933303E09332039ECFFD01DC0124
:1014A000C0CF13821282D7CF4F925F926F927F92FA
:1014B0008F929F92AF92BF92CF92DF92EF92FF9264
:1014C0000F931F93CF93DF938C01009799F4CB0177
:1014D000DF91CF911F910F91FF90EF90DF90CF9010
:1014E000BF90AF909F908F907F906F905F904F9044
:1014F0000C942F09FC01E60FF71F9C0122503109C3
:10150000E217F30708F4AEC0D901CD91DC91119731
:10151000C617D70720F1C530D10578F0CE01049762
:101520008617970750F0C61BD70B2297C193D1930C
:101530006D937C93CF010E94CB09C801DF91CF91BD
:101540001F910F91FF90EF90DF90CF90BF90AF90E1
:101550009F908F907F906F905F904F9008955B0168
:10156000AC1ABD0A4C018C0E9D1EA0913203B091A5
:101570003303512C412CF12CE12C109731F5809143
:101580003003909131038815990509F05CC0461627
:10159000570608F058C08091000290910102009710
:1015A00041F48DB79EB74091040250910502841B0F
:1015B000950BE817F90708F055C0F0933103E09355
:1015C0003003F90171836083B8CF8D919C9111979D
:1015D00012966C90129713967C901397A815B905E4
:1015E00059F56C0142E0C40ED11CCA14DB0420F191
:1015F000AC014A195B09DA011296159780F06282F4
:10160000738251834083D9016D937C93E114F1047B
:1016100071F0D7011396FC93EE9312978ECF22961A
:101620008C0F9D1FF90191838083F301EFCFF0931D
:101630003303E093320381CF4816590608F42C0196
:101640007D01D3019ACFCB010E942F097C01009725
:1016500049F0AE01B8010E94350BC8010E94CB09C8
:1016600087016BCF10E000E068CFFB01DC0102C016
:1016700001900D9241505040D8F70895FB01DC01D4
:0E16800001900D920020E1F70895F894FFCF3D
:10168E00000034038000000000008C01B600E3006F
:10169E00D9015401F20046010D0A006E616E006917
:1016AE006E66006F766600496E74726F6475636560
:1016BE002058313A2000496E74726F64756365204C
:1016CE0058323A2000496E74726F64756365205902
:1016DE00313A2000496E74726F6475636520593219
:1016EE003A2000456C2070756E746F206D656469CC
:0A16FE006F2065733A20002C2000D5
:00000001FF
