:100000000C9400010C9431010C9431010C943101D9
:100010000C9431010C9431010C9431010C94310198
:100020000C9431010C9431010C9431010C94310188
:100030000C9431010C9431010C9431010C94310178
:100040000C9431010C9431010C9431010C94310168
:100050000C9431010C9431010C9431010C949703F0
:100060000C9431010C9461030C9437030C9431010E
:100070000C9431010C9431010C9431010C94310138
:100080000C9431010C9431010C9431010C94310128
:100090000C9431010C9431010C9431010C94310118
:1000A0000C9431010C9431010C9431010C94310108
:1000B0000C9431010C9431010C9431010C943101F8
:1000C0000C9431010C9431010C9431010C943101E8
:1000D0000C9431010C9431010C9431010C943101D8
:1000E0000C9431010C94AD050C946F010C94D1016A
:1000F0000C9433010C9456020C9409020C94600188
:100100000C94C30100407A10F35A00A0724E1809F3
:100110000010A5D4E80000E87648170000E40B546E
:10012000020000CA9A3B000000E1F505000080963D
:100130009800000040420F000000A086010000006F
:10014000102700000000E803000000006400000029
:1001500000000A00000000000100000000002C76F2
:10016000D888DC674F0823DFC1DFAE59E1B1B7960D
:10017000E5E3E453C63AE651997696E8E6C284266A
:10018000EB898C9B62ED407C6FFCEFBC9C9F40F246
:10019000BAA56FA5F490055A2AF75C936B6CF967C2
:1001A0006DC11BFCE0E40D47FEF520E6B500D0ED87
:1001B000902E0300943577050080841E08000020EF
:1001C0004E0A000000C80C333333330F986E12838D
:1001D0001141EF8D2114893BE65516CFFEE6DB1861
:1001E000D1844B381BF77C1D901DA4BBE424203226
:1001F00084725E228100C9F124ECA1E53D27AD05A2
:1002000011241FBECFEFD1E2DEBFCDBF00E00CBF97
:1002100022E0AEE4B2E001C01D92AC3FB207E1F7CC
:1002200012E0A0E0B2E0EAE4F7E100E00BBF02C0B8
:1002300007900D92AE34B107D9F710E0C0E0D1E0DD
:1002400000E006C021970109802FFE010E94850968
:10025000CF3FD10780E00807A9F70E94E1030C9483
:10026000A30B0C940000AF92BF92CF92DF92EF925B
:10027000FF920F931F93CF93DF936C017B018B0150
:10028000040F151FEB015E01AE18BF08C017D107A0
:1002900059F06991D601ED91FC910190F081E02D2A
:1002A000C6011995892B79F7C501DF91CF911F916F
:1002B0000F91FF90EF90DF90CF90BF90AF90089597
:1002C000FC01538D448D252F30E0842F90E0821B5C
:1002D000930B541710F0CF96089501970895FC01E1
:1002E000918D828D981761F0A28DAE0FBF2FB11D39
:1002F0005D968C91928D9F5F9F73928F90E0089591
:100300008FEF9FEF08952FB7F89480915702909147
:100310005802A0915902B0915A022FBF80936302F4
:1003200090936402A0936502B09366028BE592E01D
:100330000E946F0197FF26C02FB7F8948091570253
:1003400090915802A0915902B0915A022FBF40914A
:100350006302509164026091650270916602841B91
:10036000950BA60BB70B40915F0250916002609114
:1003700061027091620284179507A607B707B0F271
:100380008FEF9FEF0895FC01918D828D981731F0CA
:10039000828DE80FF11D858D90E008958FEF9FEF1E
:1003A0000895FC01918D228D892F90E0805C9F4FF4
:1003B000821B91098F73992708958BE592E00E9423
:1003C000D10121E0892B09F420E0822F0895FC015E
:1003D000A48DA80FB92FB11DA35ABF4F2C91848DA6
:1003E00090E001968F739927848FA689B7892C9303
:1003F000A089B1898C91837080648C93938D848D56
:10040000981306C00288F389E02D80818F7D808358
:100410000895EF92FF920F931F93CF93DF93EC0118
:1004200081E0888F9B8D8C8D98131AC0E889F9899B
:10043000808185FF15C09FB7F894EE89FF8960839E
:10044000E889F98980818370806480839FBF81E01F
:1004500090E0DF91CF911F910F91FF90EF90089561
:10046000F62E0B8D10E00F5F1F4F0F731127E02E3C
:100470008C8D8E110CC00FB607FCFACFE889F98974
:10048000808185FFF5CFCE010E94E701F1CFEB8D92
:10049000EC0FFD2FF11DE35AFF4FF0829FB7F89448
:1004A0000B8FEA89FB8980818062CFCFCF93DF9366
:1004B000EC01888D8823B9F0AA89BB89E889F9897C
:1004C0008C9185FD03C0808186FD0DC00FB607FCB1
:1004D000F7CF8C9185FFF2CF808185FFEDCFCE01E4
:1004E0000E94E701E9CFDF91CF91089580E090E08D
:1004F000892B29F00E94DD0181110E94000080E01B
:1005000090E0892B49F080E090E0892B29F00E944F
:10051000000081110E94000080E090E0892B49F0EA
:1005200080E090E0892B29F00E94000081110E9458
:10053000000080E090E0892B49F080E090E0892B7A
:1005400029F00E94000081110C94000008953FB72B
:10055000F89480914F0290915002A0915102B09175
:10056000520226B5A89B05C02F3F19F00196A11D88
:10057000B11D3FBFBA2FA92F982F8827BC01CD01ED
:10058000620F711D811D911D42E0660F771F881F4C
:10059000991F4A95D1F7089542E050E068E172E072
:1005A0008BE592E00C9433010F931F93CF93DF936D
:1005B000EC0188819981009759F02A813B812617A7
:1005C000370730F081E0DF91CF911F910F910895AF
:1005D0008B016F5F7F4F0E94B20A009759F0998399
:1005E00088831B830A832C813D81232B59F7FC01CF
:1005F0001082E8CF80E0E7CFCF93DF93EC018881D2
:100600009981009711F00E94290A198218821D828F
:100610001C821B821A82DF91CF910895EF92FF9284
:100620000F931F93CF93DF93EC017B018A01BA01F3
:100630000E94D40281110BC0CE010E94FC02CE01A7
:10064000DF91CF911F910F91FF90EF9008951D833F
:100650000C83B701888199810E949C0BF0CFFC012B
:1006600080819181009711F00C94290A08951F92BE
:100670000F920FB60F9211240BB60F922F933F9348
:100680004F935F936F937F938F939F93AF93BF939A
:10069000EF93FF938BE592E00E94E701FF91EF91CA
:1006A000BF91AF919F918F917F916F915F914F918A
:1006B0003F912F910F900BBE0F900FBE0F901F9088
:1006C00018951F920F920FB60F9211240BB60F922E
:1006D0002F938F939F93EF93FF93E0916B02F09191
:1006E0006C028081E0917102F091720282FD1DC066
:1006F0009081809174028F5F8F73209175028217B1
:1007000041F0E0917402F0E0E55AFD4F958F80933F
:100710007402FF91EF919F918F912F910F900BBEDB
:100720000F900FBE0F901F9018958081F2CF1F92EF
:100730000F920FB60F9211242F933F938F939F9395
:10074000AF93BF938091570290915802A0915902A4
:10075000B0915A0230914E0223E0230F2D3758F505
:100760000196A11DB11D20934E02809357029093D4
:100770005802A0935902B0935A0280914F0290916F
:100780005002A0915102B09152020196A11DB11DDB
:1007900080934F0290935002A0935102B093520263
:1007A000BF91AF919F918F913F912F910F900FBE6D
:1007B0000F901F90189526E8230F0296A11DB11DDA
:1007C000D2CFCF93DF93CDB7DEB7A7970FB6F8940C
:1007D000DEBF0FBECDBF789484B5826084BD84B582
:1007E000816084BD85B5826085BD85B5816085BD2C
:1007F00080916E00816080936E00109281008091E4
:10080000810082608093810080918100816080936B
:100810008100809180008160809380008091B10090
:1008200084608093B1008091B00081608093B000BB
:10083000809191008260809391008091910081600D
:1008400080939100809190008160809390008091CE
:10085000A10082608093A1008091A10081608093BB
:10086000A1008091A00081608093A000809121016F
:100870008260809321018091210181608093210118
:100880008091200181608093200180917A008460B2
:1008900080937A0080917A00826080937A008091C0
:1008A0007A00816080937A0080917A0080688093DA
:1008B0007A001092C100E0916B02F0916C0282E02C
:1008C0008083E0916702F09168021082E0916902F2
:1008D000F0916A028FEC808310927302E0916F02B4
:1008E000F091700286E08083E0916D02F0916E02DB
:1008F000808180618083E0916D02F0916E02808141
:1009000088608083E0916D02F0916E028081806842
:100910008083E0916D02F0916E0280818F7D8083F3
:1009200010925302109255021092540292E0F92E46
:10093000EE24E39480915602811131C04FE150E0E2
:100940006BE172E08BE592E00E943301E092560287
:100950000E94A7024B015C0184E6482E512C612CB9
:10096000712C0E94A702681979098A099B09683EBF
:10097000734081059105A8F321E0421A51086108EE
:10098000710888EE880E83E0981EA11CB11C4114EA
:1009900051046104710429F70E947602CBCF8230A2
:1009A00009F07EC06091540270915502072E000C30
:1009B000880B990B0E94870820E030E040EA50E461
:1009C0000E9413091BA21AA21DA21CA21FA21EA2F2
:1009D0008E010F5F1F4F22E044E00E94DA0500976E
:1009E00009F454C0FC0101900020E9F73197AF01F0
:1009F000481B590BBC01CE0182960E940E031A823D
:100A000019821C821B821E821D8241E150E06BE331
:100A100072E0CE0101960E940E03AAA0BBA0A11411
:100A2000B104C9F10EA11FA101151105B1F08D810D
:100A30009E81080F191FB801CE0101960E94D402B1
:100A4000882349F129813A818D819E81B501820FE8
:100A5000931F0E949C0B1E830D834D815E816981D3
:100A60007A818BE592E00E9433010E94CC02CE0194
:100A700001960E942F03CE0182960E942F031092AE
:100A80005302109256020E94CC0262CFCE0182968F
:100A90000E94FC02B4CFCE0101960E94FC02DDCF81
:100AA0008BE592E00E94D101181619060CF050CF88
:100AB0001A8219821C821B821E821D8250E040E035
:100AC0006AE172E0CE0101960E940E030E9483014A
:100AD00097FD1BC08AA31BA20D811E810F5F1F4FB4
:100AE000B801CE0101960E94D402882379F32981AE
:100AF0003A818D819E81BE016E5D7F4F820F931F73
:100B00000E949C0B1E830D83E1CF89819A810097FF
:100B1000E9F00E94F8052091540230915502C90174
:100B2000860F971F9093550280935402CE01019631
:100B30000E942F030E94CC02809153028F5F80930A
:100B40005302853039F4F092560202CF60E070E033
:100B5000CB01E1CF10925602FBCEEBE5F2E013821F
:100B6000128288EE93E0A0E0B0E084839583A683B0
:100B7000B7838AE092E09183808385EC90E095874B
:100B8000848784EC90E09787868780EC90E0918B57
:100B9000808B81EC90E0938B828B82EC90E0958B44
:100BA000848B86EC90E0978B868B118E128E138E41
:100BB000148E0895EF920F931F93CF93DF93E80164
:100BC00034E047FD34E1042E000C550B57FF03C001
:100BD000519541955109E32E022F242FAE010E9419
:100BE0003406CE01DF91CF911F910F91EF900895C0
:100BF0001F93FC0199278827BC01E89411911032BA
:100C0000E9F3193010F01E30C8F31B3251F01D32D9
:100C100049F4689406C00E941F06610F711D811D72
:100C2000911D119110531A30B0F33EF490958095B8
:100C3000709561957F4F8F4F9F4F1F910895592F4A
:100C4000482F372F262F660F771F881F991F660F93
:100C5000771F881F991F620F731F841F951F660FD0
:100C6000771F881F991F08958F929F92AF92BF920E
:100C7000CF92DF92EF92FF920F931F93CF93DF9368
:100C800000D000D000D0CDB7DEB76A01F22EB02E72
:100C9000102FFBE3AF2EA01608F41BE31F5F012FFC
:100CA00027E0AE014F5F5F4F0E94AD07BC01898115
:100CB000982F9970913009F44EC09BE2E1FC04C07A
:100CC0009E2D9170E0FC49C05E2D5071E82FE870B8
:100CD00083FF55C084E0911101C083E0EF2DE81B34
:100CE0008F1508F0E0E0D6018E2F20E25523C9F1E0
:100CF000992329F0D6019C93C60101966C019601B7
:100D00002D5F3F4FE2FE33C08EE4D6018C9391E419
:100D100011969C93119712968C93D9018E2F90E285
:100D200081112AC0E20FF32FF11D10828EEF9FEF89
:100D300029960FB6F894DEBF0FBECDBFDF91CF91DD
:100D40001F910F91FF90EF90DF90CF90BF90AF90E9
:100D50009F908F9008959DE2B7CF90E2B5CF2D93ED
:100D600081508111FCCFCE0ED11CE0E0C1CF8EE6C8
:100D7000D6018C9391E6CCCF9D938150D1CF482F53
:100D8000447082FF3DC084E0911101C083E08F1563
:100D900010F4EF2DE81BD6018E2F20E2552309F128
:100DA000992329F0D6019C93C60101966C01960106
:100DB0002D5F3F4FE2FE1BC089E4D6018C938EE489
:100DC00011968C93119786E412968C93D9018E2FED
:100DD00090E2882309F4A6CF9D938150FACF2D93FA
:100DE00081508111FCCFCE0ED11CE0E0D9CF89E635
:100DF000D6018C938EE611968C93119786E6E4CFFC
:100E00009B0177FF02C030E020E0A1E0B0E091114B
:100E100002C0B0E0A0E0F9013196AE0FBF1F8B2CED
:100E2000912CBB2009F461C05401EFEFAE1ABE0A49
:100E3000AA0DBB1DFA161B0619F014F04F2D4A1B04
:100E4000511188C0E3FC59C07601A42FB0E2A11172
:100E50004FC0C40ED11C992309F45BC040E0D601F9
:100E60001196F60190836D01552309F448C0012FB6
:100E7000060F9A81582F507184FF03C0913309F4F3
:100E8000015010160CF047C0093008F008E0EEE2FF
:100E9000FE2E5B01A01AB1088501919481949108FE
:100EA0002F3F320729F4D601FC92F60131966F01EB
:100EB0006217730794F1021713077CF5DB01A21B7D
:100EC000B30BAA24A394B12CAC0EBD1EAA0DBB1D5E
:100ED00011968C9121503109D601119628153905AA
:100EE000F4F0F60180836D01DBCFB12CA12CA0CFF3
:100EF000F701B1937F01A150AACF9111B0CFD601D4
:100F0000942F50E302C05D9391509111FCCFC40E19
:100F1000D11C40E0ACCF01E0BACF80E3DBCF621759
:100F2000730731F4963388F4953311F4552369F03F
:100F3000F6018083FD01842F90E2811108C0A40F87
:100F4000B11D1C9290E080E0F3CE81E3F1CF91934C
:100F50008150F3CF911183CF8ACF283008F027E05A
:100F60003327DA01990F311D87FD916000966105E5
:100F7000710539F432602E5F3D9330E32A95E1F735
:100F800008959F3F30F080387105610509F03C5F9E
:100F90003C5F3D93913008F08068911DDF93CF93C3
:100FA0001F930F93FF92EF92192F987F9695E92F39
:100FB00096959695E90FFF27E25AFE4F992733271A
:100FC000EE24FF24A701E70105900894079428F474
:100FD000360FE71EF81E491F511D660F771F881F29
:100FE000991F0694A1F70590079428F4E70EF81EC0
:100FF000491F561FC11D770F881F991F661F069432
:10100000A1F70590079428F4F80E491F561FC71F33
:10101000D11D880F991F661F771F0694A1F70590B1
:10102000079420F4490F561FC71FD81F990F661F3A
:10103000771F881F0694A9F784911095177041F0C7
:10104000D695C79557954795F794E7941A95C1F7A4
:10105000E4E0F1E0689415901591359165919591D2
:1010600005907FE27395E118F10A430B560BC90B0B
:10107000D009C0F7E10CF11E431F561FC91FD01D38
:101080007EF4703311F48A95E6CFE894015030F085
:10109000080F0AF40027021708F4202F2395022FC7
:1010A0007A3328F079E37D932A95E9F710C07D9390
:1010B0002A9589F60694979567953795179517940D
:1010C000E118F10A430B560BC90BD00998F0239590
:1010D0007E9173957A3308F070E37C932013B8F710
:1010E0007E9170617D9330F0839571E37D9370E321
:1010F0002A95E1F71124EF90FF900F911F91CF9166
:10110000DF91992787FD90950895E89409C097FB92
:101110003EF490958095709561957F4F8F4F9F4FCE
:101120009923A9F0F92F96E9BB279395F695879512
:1011300077956795B795F111F8CFFAF4BB0F11F4D5
:1011400060FF1BC06F5F7F4F8F4F9F4F16C088237C
:1011500011F096E911C0772321F09EE8872F762FB2
:1011600005C0662371F096E8862F70E060E02AF0F3
:101170009A95660F771F881FDAF7880F96958795DF
:1011800097F9089597F99F6780E870E060E0089507
:101190009FEF80EC089500240A941616170618068F
:1011A0000906089500240A9412161306140605066B
:1011B0000895092E0394000C11F4882352F0BB0FFC
:1011C00040F4BF2B11F460FF04C06F5F7F4F8F4F5F
:1011D0009F4F089557FD9058440F551F59F05F3F9A
:1011E00071F04795880F97FB991F61F09F3F79F049
:1011F00087950895121613061406551FF2CF4695CB
:10120000F1DF08C0161617061806991FF1CF86954C
:101210007105610508940895E894BB276627772730
:10122000CB0197F908950E9427090C94D9080E94D0
:10123000D20858F00E94CB0840F029F45F3F29F013
:101240000C94C20851110C940D090C94C8080E940A
:10125000EA0868F39923B1F3552391F3951B550BD5
:10126000BB27AA2762177307840738F09F5F5F4F79
:10127000220F331F441FAA1FA9F335D00E2E3AF0B8
:10128000E0E832D091505040E695001CCAF72BD0D0
:10129000FE2F29D0660F771F881FBB1F2617370721
:1012A0004807AB07B0E809F0BB0B802DBF01FF2753
:1012B00093585F4F3AF09E3F510578F00C94C20866
:1012C0000C940D095F3FE4F3983ED4F3869577952F
:1012D0006795B795F7959F5FC9F7880F911D96950C
:1012E000879597F90895E1E0660F771F881FBB1F68
:1012F000621773078407BA0720F0621B730B840B15
:10130000BA0BEE1F88F7E0950895EE0FFF1F881FB8
:101310008BBF0790F691E02D19940F931F93CF93F5
:10132000DF938230910510F482E090E0E091FA02C0
:10133000F091FB0230E020E0B0E0A0E0309799F4BB
:101340002115310509F44AC0281B390B2430310519
:10135000D8F58A819B816115710589F1FB01938321
:101360008283FE0111C0408151810281138148179F
:101370005907E0F04817590799F4109761F0129651
:101380000C93129713961C933296CF01DF91CF9155
:101390001F910F9108950093FA021093FB02F4CF6E
:1013A0002115310551F04217530738F0A901DB012F
:1013B0009A01BD01DF01F801C1CFEF01F9CF909390
:1013C000FB028093FA02CDCFFE01E20FF31F81935F
:1013D00091932250310939832883D7CF2091F80285
:1013E0003091F902232B41F4209102023091030243
:1013F0003093F9022093F80220910002309101020B
:101400002115310541F42DB73EB7409104025091AA
:101410000502241B350BE091F802F091F902E21766
:10142000F307A0F42E1B3F0B2817390778F0AC0107
:101430004E5F5F4F2417350748F04E0F5F1F5093E4
:10144000F9024093F802819391939FCFF0E0E0E09E
:101450009CCFCF93DF930097E9F0FC013297138282
:101460001282A091FA02B091FB02ED0130E020E07F
:101470001097A1F420813181820F931F2091F802EF
:101480003091F9022817390709F061C0F093F90289
:10149000E093F802DF91CF910895EA01CE17DF07BC
:1014A000E8F54A815B819E0141155105B1F7E901DB
:1014B000FB83EA8349915991C40FD51FEC17FD07AF
:1014C00061F4808191810296840F951FE9019983CF
:1014D0008883828193819B838A83F0E0E0E0129687
:1014E0008D919C9113970097B9F52D913C9111978F
:1014F000CD010296820F931F2091F8023091F902DC
:101500002817390739F6309751F51092FB021092DF
:10151000FA02B093F902A093F802BCCFD383C2833E
:1015200040815181840F951FC817D90761F44E5F20
:101530005F4F88819981480F591F518340838A8169
:101540009B81938382832115310509F0B0CFF093FD
:10155000FB02E093FA029ECFFD01DC01C0CF1382B3
:101560001282D7CF4F925F926F927F928F929F920B
:10157000AF92BF92CF92DF92EF92FF920F931F93A1
:10158000CF93DF938C01009799F4CB01DF91CF913A
:101590001F910F91FF90EF90DF90CF90BF90AF9091
:1015A0009F908F907F906F905F904F900C948D09DB
:1015B000FC01E60FF71F9C0122503109E217F307E7
:1015C00008F4AEC0D901CD91DC911197C617D707A9
:1015D00020F1C530D10578F0CE0104978617970722
:1015E00050F0C61BD70B2297C193D1936D937C9378
:1015F000CF010E94290AC801DF91CF911F910F915D
:10160000FF90EF90DF90CF90BF90AF909F908F9022
:101610007F906F905F904F9008955B01AC1ABD0A68
:101620004C018C0E9D1EA091FA02B091FB02512C30
:10163000412CF12CE12C109731F58091F80290911A
:10164000F9028815990509F05CC04616570608F09E
:1016500058C08091000290910102009741F48DB72B
:101660009EB74091040250910502841B950BE81728
:10167000F90708F055C0F093F902E093F802F90178
:1016800071836083B8CF8D919C91119712966C9065
:10169000129713967C901397A815B90559F56C010C
:1016A00042E0C40ED11CCA14DB0420F1AC014A197B
:1016B0005B09DA011296159780F06282738251837A
:1016C0004083D9016D937C93E114F10471F0D7014B
:1016D0001396FC93EE9312978ECF22968C0F9D1F3C
:1016E000F90191838083F301EFCFF093FB02E09344
:1016F000FA0281CF4816590608F42C017D01D30166
:101700009ACFCB010E948D097C01009749F0AE0170
:10171000B8010E94930BC8010E94290A87016BCF70
:1017200010E000E068CFFB01DC0102C001900D92E7
:1017300041505040D8F70895FB01DC0101900D9213
:0A1740000020E1F70895F894FFCFB0
:10174A000000FC0280000000000009023301600171
:10175A005602D1016F01C3010D0A004661766F720C
:10176A0020646520696E74726F647563697220758E
:10177A006E206E756D65726F3A2000456C20726539
:0E178A0073756C7461646F2065733A20000003
:00000001FF
