:100000000C9483000C94B4000C94B4000C94B400D1
:100010000C94B4000C94B4000C94B4000C94B40090
:100020000C94B4000C94B4000C94B4000C94B40080
:100030000C94B4000C94B4000C94B4000C94B40070
:100040000C94B4000C94B4000C94B4000C94B40060
:100050000C94B4000C94B4000C94B4000C94DF0223
:100060000C94B4000C94A9020C947F020C94B4007C
:100070000C94B4000C94B4000C94B4000C94B40030
:100080000C94B4000C94B4000C94B4000C94B40020
:100090000C94B4000C94B4000C94B4000C94B40010
:1000A0000C94B4000C94B4000C94B4000C94B40000
:1000B0000C94B4000C94B4000C94B4000C94B400F0
:1000C0000C94B4000C94B4000C94B4000C94B400E0
:1000D0000C94B4000C94B4000C94B4000C94B400D0
:1000E0000C94B4000C94F2000C9454010C94B600DF
:1000F0000C94D9010C948C010C94E3000C94F00442
:100100000C944601F00411241FBECFEFD1E2DEBFF4
:10011000CDBF00E00CBF22E0ACE2B2E001C01D9216
:10012000AD3DB207E1F712E0A0E0B2E0ECE5FFE0A0
:1001300000E00BBF02C007900D92AC32B107D9F7B7
:1001400010E0C3E8D0E000E006C021970109802F4D
:10015000FE010E948E05C238D10780E00807A9F78A
:100160000E9429030C94AC070C940000AF92BF923C
:10017000CF92DF92EF92FF920F931F93CF93DF9373
:100180006C017B018B01040F151FEB015E01AE18A2
:10019000BF08C017D10759F06991D601ED91FC91C4
:1001A0000190F081E02DC6011995892B79F7C501E1
:1001B000DF91CF911F910F91FF90EF90DF90CF9043
:1001C000BF90AF900895FC01538D448D252F30E0F2
:1001D000842F90E0821B930B541710F0CF96089554
:1001E00001970895FC01918D828D981761F0A28D81
:1001F000AE0FBF2FB11D5D968C91928D9F5F9F7347
:10020000928F90E008958FEF9FEF08952FB7F894A5
:100210008091380290913902A0913A02B0913B024C
:100220002FBF8093440290934502A0934602B0935F
:1002300047028CE392E00E94F20097FF26C02FB79E
:10024000F8948091380290913902A0913A02B091CD
:100250003B022FBF409144025091450260914602FB
:1002600070914702841B950BA60BB70B409140027F
:1002700050914102609142027091430284179507A8
:10028000A607B707B0F28FEF9FEF0895FC01918D9D
:10029000828D981731F0828DE80FF11D858D90E0E9
:1002A00008958FEF9FEF0895FC01918D228D892F86
:1002B00090E0805C9F4F821B91098F73992708956E
:1002C0008CE392E00E94540121E0892B09F420E0A4
:1002D000822F0895FC01A48DA80FB92FB11DA35A38
:1002E000BF4F2C91848D90E001968F739927848F56
:1002F000A689B7892C93A089B1898C918370806479
:100300008C93938D848D981306C00288F389E02D19
:1003100080818F7D80830895EF92FF920F931F93CA
:10032000CF93DF93EC0181E0888F9B8D8C8D9813A8
:100330001AC0E889F989808185FF15C09FB7F894B4
:10034000EE89FF896083E889F98980818370806400
:1003500080839FBF81E090E0DF91CF911F910F914B
:10036000FF90EF900895F62E0B8D10E00F5F1F4F5A
:100370000F731127E02E8C8D8E110CC00FB607FC69
:10038000FACFE889F989808185FFF5CFCE010E94F7
:100390006A01F1CFEB8DEC0FFD2FF11DE35AFF4FFA
:1003A000F0829FB7F8940B8FEA89FB898081806285
:1003B000CFCFCF93DF93EC01888D8823B9F0AA8942
:1003C000BB89E889F9898C9185FD03C0808186FD10
:1003D0000DC00FB607FCF7CF8C9185FFF2CF80815F
:1003E00085FFEDCFCE010E946A01E9CFDF91CF9169
:1003F000089580E090E0892B29F00E94600181112E
:100400000E94000080E090E0892B49F080E090E0BD
:10041000892B29F00E94000081110E94000080E0D9
:1004200090E0892B49F080E090E0892B29F00E9430
:10043000000081110E94000080E090E0892B49F0CB
:1004400080E090E0892B29F00E94000081110C943B
:10045000000008953FB7F89480912D0290912E02EC
:10046000A0912F02B091300226B5A89B05C02F3F66
:1004700019F00196A11DB11D3FBFBA2FA92F982FCA
:100480008827BC01CD01620F711D811D911D42E0C5
:10049000660F771F881F991F4A95D1F7089542E08C
:1004A00050E068E172E08CE392E00C94B6000F93A8
:1004B0001F93CF93DF93EC0188819981009759F0C6
:1004C0002A813B812617370730F081E0DF91CF91F9
:1004D0001F910F9108958B016F5F7F4F0E94BB06A4
:1004E000009759F0998388831B830A832C813D816F
:1004F000232B59F7FC011082E8CF80E0E7CF1F9251
:100500000F920FB60F9211240BB60F922F933F93B9
:100510004F935F936F937F938F939F93AF93BF930B
:10052000EF93FF938CE392E00E946A01FF91EF91B9
:10053000BF91AF919F918F917F916F915F914F91FB
:100540003F912F910F900BBE0F900FBE0F901F90F9
:1005500018951F920F920FB60F9211240BB60F929F
:100560002F938F939F93EF93FF93E0914C02F09121
:100570004D028081E0915202F091530282FD1DC034
:100580009081809155028F5F8F7320915602821760
:1005900041F0E0915502F0E0E45CFD4F958F8093CF
:1005A0005502FF91EF919F918F912F910F900BBE6C
:1005B0000F900FBE0F901F9018958081F2CF1F9261
:1005C0000F920FB60F9211242F933F938F939F9307
:1005D000AF93BF938091380290913902A0913A0273
:1005E000B0913B0230912C0223E0230F2D3758F5B8
:1005F0000196A11DB11D20932C0280933802909387
:100600003902A0933A02B0933B0280912D0290915F
:100610002E02A0912F02B09130020196A11DB11DB2
:1006200080932D0290932E02A0932F02B09330025C
:10063000BF91AF919F918F913F912F910F900FBEDE
:100640000F901F90189526E8230F0296A11DB11D4B
:10065000D2CFCF93DF93CDB7DEB768970FB6F894BC
:10066000DEBF0FBECDBF789484B5826084BD84B5F3
:10067000816084BD85B5826085BD85B5816085BD9D
:1006800080916E00816080936E0010928100809155
:1006900081008260809381008091810081608093DD
:1006A0008100809180008160809380008091B10002
:1006B00084608093B1008091B00081608093B0002D
:1006C000809191008260809391008091910081607F
:1006D0008093910080919000816080939000809140
:1006E000A10082608093A1008091A100816080932D
:1006F000A1008091A00081608093A00080912101E1
:100700008260809321018091210181608093210189
:100710008091200181608093200180917A00846023
:1007200080937A0080917A00826080937A00809131
:100730007A00816080937A0080917A00806880934B
:100740007A001092C100E0914C02F0914D0282E0DB
:100750008083E0914802F09149021082E0914A02C0
:10076000F0914B028FEC808310925402E091500282
:10077000F091510286E08083E0914E02F0914F02A9
:10078000808180618083E0914E02F0914F028081F0
:1007900088608083E0914E02F0914F0280818068F2
:1007A0008083E0914E02F0914F0280818F7D8083A3
:1007B0008E010F5F1F4FCC24C394D12C22E0322E28
:1007C0002224239480913702811131C040E150E00E
:1007D0006BE172E08CE392E00E94B6002092370257
:1007E0000E942A024B015C0184E6482E512C612CA8
:1007F000712C0E942A02681979098A099B09683EAE
:10080000734081059105A8F321E0421A510861085F
:10081000710888EE880E83E0981EA11CB11C41145B
:1008200051046104710429F70E94F901CBCF823091
:1008300009F066C080913502909136021C8A1B8AAD
:100840001E8A1D8A188E1F8A4AE0B8010E9444053C
:10085000F80101900020E9F731977F01E01AF10AD1
:10086000B701CE0143960E9457022B893C89811122
:100870002DC02115310519F0C9010E9432061C8ACC
:100880001B8A188E1F8A1E8A1D8A4F89588D6B8974
:100890007C898CE392E00E94B6000E944F028B8913
:1008A0009C89009711F00E9432068091330290914A
:1008B000340201979093340280933302181619067C
:1008C00064F0109237020E944F028ACFF88EEF8AAE
:1008D000B801C9010E94A507D8CF209135023091F7
:1008E00036028091310290913202820F931F9093D1
:1008F000360280933502309332022093310270CF5A
:100900008CE392E00E945401181619060CF068CF8F
:100910001A8219821C821B821E821D8270E060E096
:10092000C8010E94570229813A8181112BC02115EB
:10093000310519F0C9010E9432061A8219821E82FD
:100940001D821C821B820E94060197FD23C08B8B97
:100950001C8AED80FE802FEFE21AF20AB701C8016F
:100960000E945702882379F329813A818D819E81E3
:10097000BE016D5E7F4F820F931F0E94A507FE820E
:10098000ED82E1CF1E821D826AE172E0C9010E9400
:10099000A507D9CFE980FA80412C512C3201E1140E
:1009A000F10421F0C7010E941D052B015092340271
:1009B00040923302E114F10419F0C7010E9432069B
:1009C0001092360210923502D0923202C092310259
:1009D0008BE04816510408F074CF3092370273CF81
:1009E000ECE3F2E01382128288EE93E0A0E0B0E044
:1009F00084839583A683B7838AE092E09183808382
:100A000085EC90E09587848784EC90E097878687D3
:100A100080EC90E0918B808B81EC90E0938B828BCB
:100A200082EC90E0958B848B86EC90E0978B868BA4
:100A3000118E128E138E148E08951F93FC01992728
:100A40008827BC01E89411911032E9F3193010F0B5
:100A50001E30C8F31B3251F01D3249F4689406C0B1
:100A60000E944F05610F711D811D911D1191105341
:100A70001A30B0F33EF490958095709561957F4F54
:100A80008F4F9F4F1F910895BB274A3031F4992310
:100A900022F4BDE2909581959F4F0C946505592FE6
:100AA000482F372F262F660F771F881F991F660F35
:100AB000771F881F991F620F731F841F951F660F72
:100AC000771F881F991F0895BB27FB015527AA2769
:100AD000880F991FAA1FA41710F0A41B83955051CB
:100AE000B9F7A05DAA3308F0A95DA193009779F743
:100AF000B111B1931192CB010C947E05DC01FC0184
:100B0000672F71917723E1F7329704C07C916D9341
:100B100070836291AE17BF07C8F30895EE0FFF1FF1
:100B2000881F8BBF0790F691E02D19940F931F93A8
:100B3000CF93DF938230910510F482E090E0E09152
:100B4000DB02F091DC0230E020E0B0E0A0E0309782
:100B500099F42115310509F44AC0281B390B2430BA
:100B60003105D8F58A819B816115710589F1FB01F9
:100B700093838283FE0111C04081518102811381E0
:100B800048175907E0F04817590799F4109761F092
:100B900012960C93129713961C933296CF01DF9105
:100BA000CF911F910F9108950093DB021093DC0207
:100BB000F4CF2115310551F04217530738F0A90140
:100BC000DB019A01BD01DF01F801C1CFEF01F9CFCF
:100BD0009093DC028093DB02CDCFFE01E20FF31F86
:100BE000819391932250310939832883D7CF209163
:100BF000D9023091DA02232B41F420910202309184
:100C000003023093DA022093D9022091000230913E
:100C100001022115310541F42DB73EB74091040280
:100C200050910502241B350BE091D902F091DA02B4
:100C3000E217F307A0F42E1B3F0B2817390778F0B3
:100C4000AC014E5F5F4F2417350748F04E0F5F1F12
:100C50005093DA024093D902819391939FCFF0E0B1
:100C6000E0E09CCFCF93DF930097E9F0FC0132974F
:100C700013821282A091DB02B091DC02ED0130E020
:100C800020E01097A1F420813181820F931F2091E1
:100C9000D9023091DA022817390709F061C0F093C0
:100CA000DA02E093D902DF91CF910895EA01CE17DD
:100CB000DF07E8F54A815B819E0141155105B1F7D7
:100CC000E901FB83EA8349915991C40FD51FEC17C1
:100CD000FD0761F4808191810296840F951FE901DF
:100CE00099838883828193819B838A83F0E0E0E00B
:100CF00012968D919C9113970097B9F52D913C9187
:100D00001197CD010296820F931F2091D902309145
:100D1000DA022817390739F6309751F51092DC02BC
:100D20001092DB02B093DA02A093D902BCCFD38336
:100D3000C28340815181840F951FC817D90761F480
:100D40004E5F5F4F88819981480F591F51834083BF
:100D50008A819B81938382832115310509F0B0CF6D
:100D6000F093DC02E093DB029ECFFD01DC01C0CFFB
:100D700013821282D7CF4F925F926F927F928F929F
:100D80009F92AF92BF92CF92DF92EF92FF920F931A
:100D90001F93CF93DF938C01009799F4CB01DF91E0
:100DA000CF911F910F91FF90EF90DF90CF90BF9068
:100DB000AF909F908F907F906F905F904F900C942A
:100DC0009605FC01E60FF71F9C0122503109E2173E
:100DD000F30708F4AEC0D901CD91DC911197C61785
:100DE000D70720F1C530D10578F0CE0104978617DA
:100DF000970750F0C61BD70B2297C193D1936D93E1
:100E00007C93CF010E943206C801DF91CF911F91E0
:100E10000F91FF90EF90DF90CF90BF90AF909F9099
:100E20008F907F906F905F904F9008955B01AC1A08
:100E3000BD0A4C018C0E9D1EA091DB02B091DC021C
:100E4000512C412CF12CE12C109731F58091D902D5
:100E50009091DA028815990509F05CC0461657068C
:100E600008F058C08091000290910102009741F46F
:100E70008DB79EB74091040250910502841B950BDB
:100E8000E817F90708F055C0F093DA02E093D902A9
:100E9000F90171836083B8CF8D919C91119712965F
:100EA0006C90129713967C901397A815B90559F575
:100EB0006C0142E0C40ED11CCA14DB0420F1AC0169
:100EC0004A195B09DA011296159780F062827382E3
:100ED00051834083D9016D937C93E114F10471F047
:100EE000D7011396FC93EE9312978ECF22968C0F18
:100EF0009D1FF90191838083F301EFCFF093DC0212
:100F0000E093DB0281CF4816590608F42C017D01DD
:100F1000D3019ACFCB010E9496057C01009749F03E
:100F2000AE01B8010E949C07C8010E9432068701E9
:100F30006BCF10E000E068CFFB01DC0102C0019044
:100F40000D9241505040D8F70895FB01DC0101900B
:0C0F50000D920020E1F70895F894FFCF07
:100F5C000000DD028000000000008C01B600E30000
:100F6C00D9015401F20046010D0A0044616D65205F
:0C0F7C00756E206E756D65726F3A200076
:00000001FF
