:100000000C9483000C94B4000C94B4000C94B400D1
:100010000C94B4000C94B4000C94B4000C94B40090
:100020000C94B4000C94B4000C94B4000C94B40080
:100030000C94B4000C94B4000C94B4000C94B40070
:100040000C94B4000C94B4000C94B4000C94B40060
:100050000C94B4000C94B4000C94B4000C942503DC
:100060000C94B4000C94EF020C94C5020C94B400F0
:100070000C94B4000C94B4000C94B4000C94B40030
:100080000C94B4000C94B4000C94B4000C94B40020
:100090000C94B4000C94B4000C94B4000C94B40010
:1000A0000C94B4000C94B4000C94B4000C94B40000
:1000B0000C94B4000C94B4000C94B4000C94B400F0
:1000C0000C94B4000C94B4000C94B4000C94B400E0
:1000D0000C94B4000C94B4000C94B4000C94B400D0
:1000E0000C94B4000C9470050C9446010C948C0193
:1000F0000C94D9010C94B6000C94E3000C94F2001B
:100100000C945401700511241FBECFEFD1E2DEBF65
:10011000CDBF00E00CBF23E0ACE5B2E001C01D9212
:10012000AD30B207E1F712E0A0E0B2E0E8EBF0E1B9
:1001300000E00BBF02C007900D92AC35B107D9F7B4
:1001400010E0C3E8D0E000E006C021970109802F4D
:10015000FE010E943C06C238D10780E00807A9F7DB
:100160000E946F030C945A080C940000AF92BF9247
:10017000CF92DF92EF92FF920F931F93CF93DF9373
:100180006C017B018B01040F151FEB015E01AE18A2
:10019000BF08C017D10759F06991D601ED91FC91C4
:1001A0000190F081E02DC6011995892B79F7C501E1
:1001B000DF91CF911F910F91FF90EF90DF90CF9043
:1001C000BF90AF900895FC01538D448D252F30E0F2
:1001D000842F90E0821B930B541710F0CF96089554
:1001E00001970895FC01918D828D981761F0A28D81
:1001F000AE0FBF2FB11D5D968C91928D9F5F9F7347
:10020000928F90E008958FEF9FEF08952FB7F894A5
:100210008091680290916902A0916A02B0916B028C
:100220002FBF8093740290937502A0937602B093CF
:1002300077028CE692E00E94F20097FF26C02FB76B
:10024000F8948091680290916902A0916A02B0913D
:100250006B022FBF4091740250917502609176023B
:1002600070917702841B950BA60BB70B409170021F
:100270005091710260917202709173028417950718
:10028000A607B707B0F28FEF9FEF0895FC01918D9D
:10029000828D981731F0828DE80FF11D858D90E0E9
:1002A00008958FEF9FEF0895FC01918D228D892F86
:1002B00090E0805C9F4F821B91098F73992708956E
:1002C0008CE692E00E94540121E0892B09F420E0A1
:1002D000822F0895FC01A48DA80FB92FB11DA35A38
:1002E000BF4F2C91848D90E001968F739927848F56
:1002F000A689B7892C93A089B1898C918370806479
:100300008C93938D848D981306C00288F389E02D19
:1003100080818F7D80830895EF92FF920F931F93CA
:10032000CF93DF93EC0181E0888F9B8D8C8D9813A8
:100330001AC0E889F989808185FF15C09FB7F894B4
:10034000EE89FF896083E889F98980818370806400
:1003500080839FBF81E090E0DF91CF911F910F914B
:10036000FF90EF900895F62E0B8D10E00F5F1F4F5A
:100370000F731127E02E8C8D8E110CC00FB607FC69
:10038000FACFE889F989808185FFF5CFCE010E94F7
:100390006A01F1CFEB8DEC0FFD2FF11DE35AFF4FFA
:1003A000F0829FB7F8940B8FEA89FB898081806285
:1003B000CFCFCF93DF93EC01888D8823B9F0AA8942
:1003C000BB89E889F9898C9185FD03C0808186FD10
:1003D0000DC00FB607FCF7CF8C9185FFF2CF80815F
:1003E00085FFEDCFCE010E946A01E9CFDF91CF9169
:1003F000089580E090E0892B29F00E94600181112E
:100400000E94000080E090E0892B49F080E090E0BD
:10041000892B29F00E94000081110E94000080E0D9
:1004200090E0892B49F080E090E0892B29F00E9430
:10043000000081110E94000080E090E0892B49F0CB
:1004400080E090E0892B29F00E94000081110C943B
:10045000000008953FB7F89480915D0290915E028C
:10046000A0915F02B091600226B5A89B05C02F3F06
:1004700019F00196A11DB11D3FBFBA2FA92F982FCA
:100480008827BC01CD01620F711D811D911D42E0C5
:10049000660F771F881F991F4A95D1F7089542E08C
:1004A00050E068E172E08CE692E00C94B600CF93E5
:1004B000DF93FC0144815581608171818CE692E07B
:1004C0000E94B600EC010E944F028C0F9D1FDF912D
:1004D000CF910895FC0180819181009711F00C94D7
:1004E000E00608950F931F93CF93DF93EC0188816B
:1004F0009981009759F02A813B812617370730F000
:1005000081E0DF91CF911F910F9108958B016F5F73
:100510007F4F0E946907009759F0998388831B8356
:100520000A832C813D81232B59F7FC011082E8CFEF
:1005300080E0E7CFEF92FF920F931F93CF93DF936B
:10054000EC017B018A01BA010E9472022881398183
:10055000811114C02115310519F0C9010E94E0066E
:10056000198218821D821C821B821A82CE01DF91A1
:10057000CF911F910F91FF90EF9008951D830C83F1
:10058000B701C9010E945308F1CF1F920F920FB615
:100590000F9211240BB60F922F933F934F935F93BB
:1005A0006F937F938F939F93AF93BF93EF93FF933B
:1005B0008CE692E00E946A01FF91EF91BF91AF91AA
:1005C0009F918F917F916F915F914F913F912F916B
:1005D0000F900BBE0F900FBE0F901F9018951F929B
:1005E0000F920FB60F9211240BB60F922F938F9389
:1005F0009F93EF93FF93E0917C02F0917D028081C5
:10060000E0918202F091830282FD1DC09081809171
:1006100085028F5F8F7320918602821741F0E091EF
:100620008502F0E0E459FD4F958F80938502FF919C
:10063000EF919F918F912F910F900BBE0F900FBE56
:100640000F901F9018958081F2CF1F920F920FB6D6
:100650000F9211242F933F938F939F93AF93BF9348
:100660008091680290916902A0916A02B0916B0238
:1006700030915C0223E0230F2D3758F50196A11D20
:10068000B11D20935C028093680290936902A0934D
:100690006A02B0936B0280915D0290915E02A0911C
:1006A0005F02B09160020196A11DB11D80935D02B1
:1006B00090935E02A0935F02B0936002BF91AF91EE
:1006C0009F918F913F912F910F900FBE0F901F9090
:1006D000189526E8230F0296A11DB11DD2CFCF9306
:1006E000DF93CDB7DEB7AE970FB6F894DEBF0FBE7F
:1006F000CDBF789484B5826084BD84B5816084BDAB
:1007000085B5826085BD85B5816085BD80916E00AF
:10071000816080936E0010928100809181008260E0
:10072000809381008091810081608093810080911D
:1007300080008160809380008091B100846080930C
:10074000B1008091B00081608093B00080919100F1
:1007500082608093910080919100816080939100EC
:10076000809190008160809390008091A1008260D0
:100770008093A1008091A10081608093A10080916D
:10078000A00081608093A00080912101826080930D
:1007900021018091210181608093210180912001BC
:1007A00081608093200180917A00846080937A0038
:1007B00080917A00826080937A0080917A008160D3
:1007C00080937A0080917A00806880937A001092FA
:1007D000C100E0917C02F0917D0282E08083E09193
:1007E0007802F09179021082E0917A02F0917B0216
:1007F0008FEC808310928402E0918002F09181025C
:1008000086E08083E0917E02F0917F0280818061AA
:100810008083E0917E02F0917F02808188608083F6
:10082000E0917E02F0917F02808180688083E09178
:100830007E02F0917F0280818F7D80838E010F5F29
:100840001F4F812C912C5401839423E0622E772436
:10085000739480916702811131C045E150E06BE1F2
:1008600072E08CE692E00E94B600709267020E94ED
:100870002A021B012C0184E6C82ED12CE12CF12C7C
:100880000E942A026219730984099509683E73401F
:1008900081059105A8F321E0C21AD108E108F10809
:1008A00088EE280E83E0381E411C511CC114D1046F
:1008B000E104F10429F70E94F901CBCF823011F550
:1008C000E0916502F091660220916102309162022E
:1008D0004091630250916402DF010E9434066093EC
:1008E0006102709362028093630290936402319775
:1008F000F0936602E093650232970CF0B8CF6092F5
:100900006702B5CF833009F07DC0609161027091BC
:10091000620280916302909164021CA21BA21EA23B
:100920001DA218A61FA22AE0A8010E94C405F80172
:1009300001900020E9F73197AF01401B510BB8013E
:10094000CE0183960E949A021AA619A61CA61BA67F
:100950001EA61DA642E150E061E372E0CE01899639
:100960000E949A02CBA0DCA0C114D104F1F1EFA047
:10097000F8A4E114F104B1F08DA59EA5E80EF91ECE
:10098000B701CE0189960E947202882371F129A5D0
:100990003AA58DA59EA5B601820F931F0E9453080C
:1009A000FEA6EDA61A8219821C821B821E821D825F
:1009B00069A57AA56115710529F04DA55EA5C80147
:1009C0000E949A02C8010E9457020E944F02109290
:1009D0006702C8010E946A02CE0189960E946A02DB
:1009E000CE0183960E946A0242CF89A59AA50097FC
:1009F00011F00E94E0061AA619A61EA61DA61CA6A6
:100A00001BA6D0CF8CE692E00E945401181619065E
:100A10000CF02DCF1A8219821C821B821E821D822D
:100A200050E040E06AE172E0C8010E949A020E9430
:100A3000060197FD1BC08BA31CA2ED80FE802FEF4B
:100A4000E21AF20AB701C8010E947202882379F300
:100A500029813A818D819E81BE016D5D7F4F820F1C
:100A6000931F0E945308FE82ED82E1CF89819A8113
:100A7000C12CD12C7601009719F00E949D056B01C5
:100A8000D0926602C0926502C8010E946A028092FA
:100A9000610290926202A0926302B092640281E0CD
:100AA000C81AD1082AE0C216D104B0F01A821982FD
:100AB0001C821B821E821D8246E150E064E472E0CB
:100AC000C8010E949A02C8010E9457020E944F0268
:100AD00010926702C80186CF82E080936702C7CE7A
:100AE000ECE6F2E01382128288EE93E0A0E0B0E040
:100AF00084839583A683B7838AE092E09183808381
:100B000085EC90E09587848784EC90E097878687D2
:100B100080EC90E0918B808B81EC90E0938B828BCA
:100B200082EC90E0958B848B86EC90E0978B868BA3
:100B3000118E128E138E148E08951F93FC01992727
:100B40008827BC01E89411911032E9F3193010F0B4
:100B50001E30C8F31B3251F01D3249F4689406C0B0
:100B60000E94D305610F711D811D911D11911053BC
:100B70001A30B0F33EF490958095709561957F4F53
:100B80008F4F9F4F1F910895BB272A3051F499230F
:100B900042F4BDE290958095709561957F4F8F4F9F
:100BA0009F4F0C94E905592F482F372F262F660F9A
:100BB000771F881F991F660F771F881F991F620F65
:100BC000731F841F951F660F771F881F991F089535
:100BD000BB27FA01A62F6217710581059105330B1A
:100BE00030FB66F0AA27660F771F881F991FAA1F80
:100BF000A21710F0A21B63953850A9F7A05DAA3385
:100C000008F0A95DA19336F7B111B1931082CA0122
:100C10000C940A06DC01FC01672F71917723E1F740
:100C2000329704C07C916D9370836291AE17BF07B9
:100C3000C8F308950E942506A59F900DB49F900DBE
:100C4000A49F800D911D11240895A29FB001B39F10
:100C5000C001A39F700D811D1124911DB29F700DC5
:100C6000811D1124911D0895B7FF0C941A060E944E
:100C70001A06821B930B0895EE0FFF1F881F8BBF70
:100C80000790F691E02D19940F931F93CF93DF9364
:100C90008230910510F482E090E0E0910B03F09136
:100CA0000C0330E020E0B0E0A0E0309799F421158B
:100CB000310509F44AC0281B390B24303105D8F519
:100CC0008A819B816115710589F1FB019383828380
:100CD000FE0111C0408151810281138148175907DB
:100CE000E0F04817590799F4109761F012960C93A9
:100CF000129713961C933296CF01DF91CF911F91DB
:100D00000F91089500930B0310930C03F4CF21155A
:100D1000310551F04217530738F0A901DB019A0160
:100D2000BD01DF01F801C1CFEF01F9CF90930C03B2
:100D300080930B03CDCFFE01E20FF31F81939193BC
:100D40002250310939832883D7CF2091090330916C
:100D50000A03232B41F420910202309103023093C5
:100D60000A0320930903209100023091010221150A
:100D7000310541F42DB73EB7409104025091050270
:100D8000241B350BE0910903F0910A03E217F307E6
:100D9000A0F42E1B3F0B2817390778F0AC014E5FEB
:100DA0005F4F2417350748F04E0F5F1F50930A031B
:100DB00040930903819391939FCFF0E0E0E09CCFB3
:100DC000CF93DF930097E9F0FC01329713821282F0
:100DD000A0910B03B0910C03ED0130E020E01097DF
:100DE000A1F420813181820F931F2091090330915A
:100DF0000A032817390709F061C0F0930A03E0934A
:100E00000903DF91CF910895EA01CE17DF07E8F5D6
:100E10004A815B819E0141155105B1F7E901FB83D0
:100E2000EA8349915991C40FD51FEC17FD0761F46E
:100E3000808191810296840F951FE90199838883AF
:100E4000828193819B838A83F0E0E0E012968D910A
:100E50009C9113970097B9F52D913C911197CD0175
:100E60000296820F931F2091090330910A032817DD
:100E7000390739F6309751F510920C0310920B0395
:100E8000B0930A03A0930903BCCFD383C2834081EC
:100E90005181840F951FC817D90761F44E5F5F4FCA
:100EA00088819981480F591F518340838A819B8192
:100EB000938382832115310509F0B0CFF0930C03A1
:100EC000E0930B039ECFFD01DC01C0CF13821282A1
:100ED000D7CF4F925F926F927F928F929F92AF92F5
:100EE000BF92CF92DF92EF92FF920F931F93CF9317
:100EF000DF938C01009799F4CB01DF91CF911F9183
:100F00000F91FF90EF90DF90CF90BF90AF909F90A8
:100F10008F907F906F905F904F900C944406FC01EF
:100F2000E60FF71F9C0122503109E217F30708F47E
:100F3000AEC0D901CD91DC911197C617D70720F12A
:100F4000C530D10578F0CE0104978617970750F089
:100F5000C61BD70B2297C193D1936D937C93CF017E
:100F60000E94E006C801DF91CF911F910F91FF9081
:100F7000EF90DF90CF90BF90AF909F908F907F9039
:100F80006F905F904F9008955B01AC1ABD0A4C01C1
:100F90008C0E9D1EA0910B03B0910C03512C412C83
:100FA000F12CE12C109731F58091090390910A03FF
:100FB0008815990509F05CC04616570608F058C018
:100FC0008091000290910102009741F48DB79EB785
:100FD0004091040250910502841B950BE817F90714
:100FE00008F055C0F0930A03E0930903F9017183F7
:100FF0006083B8CF8D919C91119712966C90129747
:1010000013967C901397A815B90559F56C0142E029
:10101000C40ED11CCA14DB0420F1AC014A195B09CF
:10102000DA011296159780F06282738251834083B1
:10103000D9016D937C93E114F10471F0D7011396FB
:10104000FC93EE9312978ECF22968C0F9D1FF90181
:1010500091838083F301EFCFF0930C03E0930B03B4
:1010600081CF4816590608F42C017D01D3019ACF8F
:10107000CB010E9444067C01009749F0AE01B80103
:101080000E944A08C8010E94E00687016BCF10E069
:1010900000E068CFFB01DC0102C001900D924150DD
:1010A0005040D8F70895FB01DC0101900D9200201B
:0810B000E1F70895F894FFCF69
:1010B80000000D038000000000008C01B600E30072
:1010C800D9015401F20046010D0A00496E74726F8D
:1010D8006475636520756E206E756D65726F3A2054
:1010E800002020456C20726573756C7461646F20F4
:1010F800657320004572726F72206E756D65726F30
:0C110800206E6F2076616C69646F00003F
:00000001FF
