:100000000C9495000C94C6000C94C6000C94C60089
:100010000C94C6000C94C6000C94C6000C94C60048
:100020000C94C6000C94C6000C94C6000C94C60038
:100030000C94C6000C94C6000C94C6000C94C60028
:100040000C94C6000C94C6000C94C6000C94C60018
:100050000C94C6000C94C6000C94C6000C94960335
:100060000C94C6000C9460030C9436030C94C600E8
:100070000C94C6000C94C6000C94C6000C94C600E8
:100080000C94C6000C94C6000C94C6000C94C600D8
:100090000C94C6000C94C6000C94C6000C94C600C8
:1000A0000C94C6000C94C6000C94C6000C94C600B8
:1000B0000C94C6000C94C6000C94C6000C94C600A8
:1000C0000C94C6000C94C6000C94C6000C94C60098
:1000D0000C94C6000C94C6000C94C6000C94C60088
:1000E0000C94C6000664EC1B3C04BC163E3BE5B910
:1000F0003CC93C37C29E5A3D660498083EEA69AA4C
:10010000AA3E000000803F000C9404010C9466019C
:100110000C94C8000C94EB010C949E010C94F50017
:100120000C9458010C94FF05FF0511241FBECFEF5E
:10013000D1E2DEBFCDBF00E00CBF23E0A2E6B2E01B
:1001400001C01D92A431B207E1F712E0A0E0B2E0D5
:10015000EEE5F7E100E00BBF02C007900D92A2367A
:10016000B107D9F710E0C5E9D0E000E006C021975B
:100170000109802FFE010E948F09C439D10780E058
:100180000807A9F70E94E0030C94AD0B0C94000043
:10019000AF92BF92CF92DF92EF92FF920F931F9395
:1001A000CF93DF936C017B018B01040F151FEB01D3
:1001B0005E01AE18BF08C017D10759F06991D6018A
:1001C000ED91FC910190F081E02DC6011995892BEC
:1001D00079F7C501DF91CF911F910F91FF90EF90BB
:1001E000DF90CF90BF90AF900895FC01538D448D68
:1001F000252F30E0842F90E0821B930B541710F0D2
:10020000CF96089501970895FC01918D828D9817DE
:1002100061F0A28DAE0FBF2FB11D5D968C91928DB6
:100220009F5F9F73928F90E008958FEF9FEF0895E7
:100230002FB7F89480916F0290917002A091710293
:10024000B09172022FBF80937B0290937C02A093A7
:100250007D02B0937E0283E792E00E94040197FF43
:1002600026C02FB7F89480916F0290917002A091F0
:100270007102B09172022FBF40917B0250917C02BB
:1002800060917D0270917E02841B950BA60BB70BCB
:1002900040917702509178026091790270917A02D0
:1002A00084179507A607B707B0F28FEF9FEF089561
:1002B000FC01918D828D981731F0828DE80FF11D30
:1002C000858D90E008958FEF9FEF0895FC01918D4B
:1002D000228D892F90E0805C9F4F821B91098F7344
:1002E0009927089583E792E00E94660121E0892B17
:1002F00009F420E0822F0895FC01A48DA80FB92FE6
:10030000B11DA35ABF4F2C91848D90E001968F733D
:100310009927848FA689B7892C93A089B1898C915C
:10032000837080648C93938D848D981306C00288AB
:10033000F389E02D80818F7D80830895EF92FF9275
:100340000F931F93CF93DF93EC0181E0888F9B8DF8
:100350008C8D98131AC0E889F989808185FF15C0B2
:100360009FB7F894EE89FF896083E889F9898081D5
:100370008370806480839FBF81E090E0DF91CF91A4
:100380001F910F91FF90EF900895F62E0B8D10E0C6
:100390000F5F1F4F0F731127E02E8C8D8E110CC035
:1003A0000FB607FCFACFE889F989808185FFF5CF80
:1003B000CE010E947C01F1CFEB8DEC0FFD2FF11DE2
:1003C000E35AFF4FF0829FB7F8940B8FEA89FB89BD
:1003D00080818062CFCFCF93DF93EC01888D88231B
:1003E000B9F0AA89BB89E889F9898C9185FD03C098
:1003F000808186FD0DC00FB607FCF7CF8C9185FF7D
:10040000F2CF808185FFEDCFCE010E947C01E9CF44
:10041000DF91CF91089580E090E0892B29F00E9430
:10042000720181110E94000080E090E0892B49F068
:1004300080E090E0892B29F00E94000081110E9449
:10044000000080E090E0892B49F080E090E0892B6B
:1004500029F00E94000081110E94000080E090E0DD
:10046000892B49F080E090E0892B29F00E94000060
:1004700081110C94000008953FB7F89480916302B5
:1004800090916402A0916502B091660226B5A89B86
:1004900005C02F3F19F00196A11DB11D3FBFBA2F16
:1004A000A92F982F8827BC01CD01620F711D811DD6
:1004B000911D42E0660F771F881F991F4A95D1F75B
:1004C0000895FC0101900020E9F73197AF01481B26
:1004D000590BBC0183E792E00C94C8008F929F9265
:1004E000AF92BF920F931F93CF93DF93CDB7DEB739
:1004F000A1970FB6F894DEBF0FBECDBF19A2423050
:1005000008F44AE08E010F5D1F4F842E912CB12C10
:10051000A12CA50194010E945909E62FB901CA0135
:10052000EA30F4F4E05DD801EE938D01232B242B07
:10053000252B79F790E080E0109719F0CD010E940B
:100540006102A1960FB6F894DEBF0FBECDBFDF915A
:10055000CF911F910F91BF90AF909F908F90089572
:10056000E95CE1CF0F931F93CF93DF93EC01888178
:100570009981009759F02A813B812617370730F07F
:1005800081E0DF91CF911F910F9108958B016F5FF3
:100590007F4F0E94BC0A009759F0998388831B8380
:1005A0000A832C813D81232B59F7FC011082E8CF6F
:1005B00080E0E7CFEF92FF920F931F93CF93DF93EB
:1005C0001F921F92CDB7DEB78C01FC011182108201
:1005D000138212821582148270E060E00E94B202DF
:1005E000F8012081318181112FC02115310519F0C9
:1005F000C9010E94330AF801118210821582148207
:10060000138212820E94180197FD26C089831A82E4
:10061000F801E480F580FFEFEF1AFF0AB701C80187
:100620000E94B202882371F3F80120813181848114
:100630009581BE016F5F7F4F820F931F0E94A60BB3
:10064000F801F582E482DECF1582148267E372E05E
:10065000C9010E94A60BD6CFC8010F900F90DF9161
:10066000CF911F910F91FF90EF9008951F920F92DD
:100670000FB60F9211240BB60F922F933F934F9307
:100680005F936F937F938F939F93AF93BF93EF93FA
:10069000FF9383E792E00E947C01FF91EF91BF916D
:1006A000AF919F918F917F916F915F914F913F910A
:1006B0002F910F900BBE0F900FBE0F901F901895AB
:1006C0001F920F920FB60F9211240BB60F922F9319
:1006D0008F939F93EF93FF93E0918302F0918402B5
:1006E0008081E0918902F0918A0282FD1DC0908193
:1006F00080918C028F5F8F7320918D02821741F061
:10070000E0918C02F0E0ED58FD4F958F80938C02C4
:10071000FF91EF919F918F912F910F900BBE0F90B2
:100720000FBE0F901F9018958081F2CF1F920F92ED
:100730000FB60F9211242F933F938F939F93AF93F4
:10074000BF9380916F0290917002A0917102B0915D
:1007500072023091620223E0230F2D3758F5019683
:10076000A11DB11D2093620280936F0290937002CD
:10077000A0937102B093720280916302909164021F
:10078000A0916502B09166020196A11DB11D8093F2
:10079000630290936402A0936502B0936602BF91D6
:1007A000AF919F918F913F912F910F900FBE0F901E
:1007B0001F90189526E8230F0296A11DB11DD2CFD8
:1007C000CF93DF9300D000D0CDB7DEB7789484B557
:1007D000826084BD84B5816084BD85B5826085BD3D
:1007E00085B5816085BD80916E00816080936E00CB
:1007F00010928100809181008260809381008091BD
:10080000810081608093810080918000816080936D
:1008100080008091B10084608093B1008091B0002D
:1008200081608093B00080919100826080939100FC
:10083000809191008160809391008091900081600F
:10084000809390008091A10082608093A1008091AC
:10085000A10081608093A1008091A00081608093BD
:10086000A00080912101826080932101809121016B
:10087000816080932101809120018160809320011B
:1008800080917A00846080937A0080917A008260FF
:1008900080937A0080917A00816080937A008091C1
:1008A0007A00806880937A001092C100E091830200
:1008B000F091840282E08083E0917F02F0918002D7
:1008C0001082E0918102F09182028FEC808310927D
:1008D0008B02E0918702F091880286E08083E091AC
:1008E0008502F0918602808180618083E09185029B
:1008F000F0918602808188608083E0918502F0918A
:100900008602808180688083E0918502F091860272
:1009100080818F7D8083109267021092680210920E
:10092000690210926A0204EB10E083E792E00E94F1
:100930006601181619060CF0A8C088E192E00E9422
:100940006102CE0101960E94DA02E980FA8060E03D
:1009500070E0CB01E114F10419F0C7010E942C06EC
:1009600070936E0260936D02E114F10419F0C701F7
:100970000E94330A85E392E00E94610288E392E0DC
:100980000E946102CE0101960E94DA02E980FA809B
:1009900060E070E0CB01E114F10419F0C7010E949E
:1009A0002C066B0170936C0260936B02E114F104EE
:1009B00019F0C7010E94330AE0906D02F0906E02B8
:1009C000C801B6010E944509072E000C880B990B3F
:1009D0000E946F0620ED3FE049E450E40E94CE06FD
:1009E00020E030E044E353E40E94F9070E949F08AE
:1009F0004B015C01EE9CC001EF9C900D900D112409
:100A00008C9DB0018D9D700D9C9D700D1124072E45
:100A1000000C880B990B0E946F066B017C0120E093
:100A200030E040E850E4C501B4010E94CE069B01CD
:100A3000AC01C701B6010E94F90760936702709389
:100A400068028093690290936A0285E392E00E94B3
:100A500061028AE492E00E946102C0906702D09035
:100A60006802E0906902F0906A02A7019601C7014E
:100A7000B6010E94C408882381F185E592E00E94B6
:100A8000610285E392E00E9461020E943C024B01F8
:100A90005C0188EEC82E83E0D82EE12CF12C0E9458
:100AA0003C02681979098A099B09683E73408105EF
:100AB0009105A8F321E0C21AD108E108F10888EEF7
:100AC000880E83E0981EA11CB11CC114D104E1045E
:100AD000F10429F70E940B0228CF46015701E89440
:100AE000B7F82FEF3FEF4FE75FE7C501B4010E9472
:100AF000C40881110DC02FEF3FEF4FE75FE7C5013D
:100B0000B4010E94680618161CF489E592E0B7CF7C
:100B10002FEF3FEF4FE75FE4C701B6010E949A084D
:100B200018161CF48DE592E0AACF2FEF3FEF4FE7A8
:100B30005FECC701B6010E94680687FDF3CF20E095
:100B400030E0A901C701B6010E94680687FF09C00D
:100B50006DE283E792E00E949E01F7FAF094F7F8C5
:100B6000F0942AE037ED43EA5BE3C701B6010E9447
:100B70008D074B015C010E946B086B017C010E9498
:100B80006D069B01AC01C501B4010E948C074B01AD
:100B90005C014AE0C701B6010E946E026EE283E783
:100BA00092E00E949E0120E030E040E251E4C50165
:100BB000B4010E94CE064B015C010E946B086B01E0
:100BC000F12CE12C4AE0C701B6010E946E02C70178
:100BD000B6010E946D069B01AC01C501B4010E94E3
:100BE0008C0720E030E040E251E40E94CE060E94F3
:100BF0006B0890E080E04AE00E946E0242CFE3E79B
:100C0000F2E01382128288EE93E0A0E0B0E08483E9
:100C10009583A683B7838AE092E09183808385ECF5
:100C200090E09587848784EC90E09787868780ECB6
:100C300090E0918B808B81EC90E0938B828B82ECA7
:100C400090E0958B848B86EC90E0978B868B118E51
:100C5000128E138E148E08951F93FC0199278827F6
:100C6000BC01E89411911032E9F3193010F01E30F4
:100C7000C8F31B3251F01D3249F4689406C00E943B
:100C80005306610F711D811D911D119110531A3072
:100C9000B0F33EF490958095709561957F4F8F4F9E
:100CA0009F4F1F910895592F482F372F262F660FDA
:100CB000771F881F991F660F771F881F991F620F64
:100CC000731F841F951F660F771F881F991F089534
:100CD0000E94AA0608F481E00895E89409C097FBF1
:100CE0003EF490958095709561957F4F8F4F9F4F03
:100CF0009923A9F0F92F96E9BB279395F695879547
:100D000077956795B795F111F8CFFAF4BB0F11F409
:100D100060FF1BC06F5F7F4F8F4F9F4F16C08823B0
:100D200011F096E911C0772321F09EE8872F762FE6
:100D300005C0662371F096E8862F70E060E02AF027
:100D40009A95660F771F881FDAF7880F9695879513
:100D500097F90895990F0008550FAA0BE0E8FEEFE8
:100D600016161706E807F907C0F012161306E4076F
:100D7000F50798F0621B730B840B950B39F40A2668
:100D800061F0232B242B252B21F408950A2609F446
:100D9000A140A6958FEF811D811D08950E94E10657
:100DA0000C9452070E94440738F00E944B0720F031
:100DB000952311F00C943B070C94410711240C94DB
:100DC00086070E94630770F3959FC1F3950F50E06B
:100DD000551F629FF001729FBB27F00DB11D639FED
:100DE000AA27F00DB11DAA1F649F6627B00DA11D93
:100DF000661F829F2227B00DA11D621F739FB00D39
:100E0000A11D621F839FA00D611D221F749F3327A8
:100E1000A00D611D231F849F600D211D822F762F41
:100E20006A2F11249F5750409AF0F1F088234AF01E
:100E3000EE0FFF1FBB1F661F771F881F915050408A
:100E4000A9F79E3F510580F00C943B070C94860750
:100E50005F3FE4F3983ED4F3869577956795B79511
:100E6000F795E7959F5FC1F7FE2B880F911D96952B
:100E7000879597F9089597F99F6780E870E060E09B
:100E800008959FEF80EC089500240A941616170623
:100E900018060906089500240A941216130614066B
:100EA00005060895092E0394000C11F4882352F0CE
:100EB000BB0F40F4BF2B11F460FF04C06F5F7F4F86
:100EC0008F4F9F4F089557FD9058440F551F59F06D
:100ED0005F3F71F04795880F97FB991F61F09F3F27
:100EE00079F087950895121613061406551FF2CF50
:100EF0004695F1DF08C0161617061806991FF1CFA0
:100F000086957105610508940895E894BB276627C6
:100F10007727CB0197F908955058BB27AA270E943D
:100F2000A4070C9452070E94440738F00E944B0714
:100F300020F039F49F3F19F426F40C9441070EF485
:100F4000E095E7FB0C943B07E92F0E94630758F3F9
:100F5000BA17620773078407950720F079F4A6F59E
:100F60000C9485070EF4E0950B2EBA2FA02D0B01E3
:100F7000B90190010C01CA01A0011124FF27591BDE
:100F800099F0593F50F4503E68F11A16F040A22FE4
:100F9000232F342F4427585FF3CF46953795279555
:100FA000A795F0405395C9F77EF41F16BA0B620B54
:100FB000730B840BBAF09150A1F0FF0FBB1F661F9B
:100FC000771F881FC2F70EC0BA0F621F731F841FDE
:100FD00048F4879577956795B795F7959E3F08F004
:100FE000B0CF9395880F08F09927EE0F97958795C6
:100FF00008950E940D080C9452070E944B0758F068
:101000000E94440740F029F45F3F29F00C943B070D
:1010100051110C9486070C9441070E94630768F3F2
:101020009923B1F3552391F3951B550BBB27AA27A1
:1010300062177307840738F09F5F5F4F220F331FDB
:10104000441FAA1FA9F335D00E2E3AF0E0E832D0A3
:1010500091505040E695001CCAF72BD0FE2F29D0A6
:10106000660F771F881FBB1F261737074807AB0778
:10107000B0E809F0BB0B802DBF01FF2793585F4FED
:101080003AF09E3F510578F00C943B070C9486078C
:101090005F3FE4F3983ED4F3869577956795B795CF
:1010A000F7959F5FC9F7880F911D9695879597F9DA
:1010B0000895E1E0660F771F881FBB1F6217730753
:1010C0008407BA0720F0621B730B840BBA0BEE1F68
:1010D00088F7E09508950E946B0788F09F5798F075
:1010E000B92F9927B751B0F0E1F0660F771F881F2D
:1010F000991F1AF0BA95C9F714C0B13091F00E9447
:101100008507B1E008950C948507672F782F88270D
:10111000B85F39F0B93FCCF3869577956795B3956D
:10112000D9F73EF490958095709561957F4F8F4FDC
:101130009F4F08950E94AA0608F48FEF0895DF9349
:10114000D92F0E94DF08E695D7952AED3FE049E4C4
:101150005FE3B33A6207730784079507D7953AF0C0
:10116000A2EA49EC90680E94A4070E945207E4EEAC
:10117000F0E00E94C908DD0F13F00E940809DD0F9E
:101180000BF49058DF9108950E94AA06880B990BE2
:1011900008959F938F937F936F93FF93EF939B019A
:1011A000AC010E94CE06EF91FF910E941E092F9183
:1011B0003F914F915F910C94CE060C9441070E9491
:1011C0006B07D8F3E894E0E0BB279F57F0F02AEDD7
:1011D0003FE049EC06C0EE0FBB0F661F771F881F6C
:1011E00028F0B23A62077307840728F0B25A620BFC
:1011F000730B840BE3959A9572F7803830F49A95C7
:10120000BB0F661F771F881FD2F790480C941209F6
:101210009B01AC0160E070E080E89FE30C94F9076B
:101220009F3F31F0915020F4879577956795B7955A
:10123000880F911D9695879597F90895DF93CF9321
:101240001F930F93FF92EF92DF927B018C016894C2
:1012500006C0DA2EEF010E94E106FE01E894A59196
:101260002591359145915591A6F3EF010E94A40770
:10127000FE019701A801DA9469F7DF90EF90FF90E3
:101280000F911F91CF91DF91089597FB072E16F4D0
:10129000009407D077FD09D00E947B0907FC05D098
:1012A0003EF4909581959F4F0895709561957F4F7D
:1012B0000895A1E21A2EAA1BBB1BFD010DC0AA1F97
:1012C000BB1FEE1FFF1FA217B307E407F50720F0AF
:1012D000A21BB30BE40BF50B661F771F881F991F2A
:1012E0001A9469F760957095809590959B01AC0173
:1012F000BD01CF010895AA1BBB1B51E107C0AA1F66
:10130000BB1FA617B70710F0A61BB70B881F991FA6
:101310005A95A9F780959095BC01CD010895EE0FDF
:10132000FF1F881F8BBF0790F691E02D19940F9334
:101330001F93CF93DF938230910510F482E090E009
:10134000E0911203F091130330E020E0B0E0A0E060
:10135000309799F42115310509F44AC0281B390B3F
:1013600024303105D8F58A819B816115710589F199
:10137000FB0193838283FE0111C040815181028170
:10138000138148175907E0F04817590799F4109747
:1013900061F012960C93129713961C933296CF011C
:1013A000DF91CF911F910F91089500931203109335
:1013B0001303F4CF2115310551F04217530738F0CC
:1013C000A901DB019A01BD01DF01F801C1CFEF01E5
:1013D000F9CF9093130380931203CDCFFE01E20F58
:1013E000F31F819391932250310939832883D7CFFA
:1013F0002091100330911103232B41F4209102021C
:1014000030910302309311032093100320910002C6
:10141000309101022115310541F42DB73EB74091BD
:10142000040250910502241B350BE0911003F0914A
:101430001103E217F307A0F42E1B3F0B28173907FF
:1014400078F0AC014E5F5F4F2417350748F04E0F20
:101450005F1F5093110340931003819391939FCF8B
:10146000F0E0E0E09CCFCF93DF930097E9F0FC0140
:10147000329713821282A0911203B0911303ED01EF
:1014800030E020E01097A1F420813181820F931F7A
:1014900020911003309111032817390709F061C01A
:1014A000F0931103E0931003DF91CF910895EA01C7
:1014B000CE17DF07E8F54A815B819E014115510592
:1014C000B1F7E901FB83EA8349915991C40FD51F14
:1014D000EC17FD0761F4808191810296840F951FBE
:1014E000E90199838883828193819B838A83F0E0D9
:1014F000E0E012968D919C9113970097B9F52D918C
:101500003C911197CD010296820F931F20911003F9
:10151000309111032817390739F6309751F5109299
:10152000130310921203B0931103A0931003BCCFC6
:10153000D383C28340815181840F951FC817D90777
:1015400061F44E5F5F4F88819981480F591F518325
:1015500040838A819B81938382832115310509F021
:10156000B0CFF0931303E09312039ECFFD01DC0193
:10157000C0CF13821282D7CF4F925F926F927F9229
:101580008F929F92AF92BF92CF92DF92EF92FF9293
:101590000F931F93CF93DF938C01009799F4CB01A6
:1015A000DF91CF911F910F91FF90EF90DF90CF903F
:1015B000BF90AF909F908F907F906F905F904F9073
:1015C0000C949709FC01E60FF71F9C01225031098A
:1015D000E217F30708F4AEC0D901CD91DC91119761
:1015E000C617D70720F1C530D10578F0CE01049792
:1015F0008617970750F0C61BD70B2297C193D1933C
:101600006D937C93CF010E94330AC801DF91CF9183
:101610001F910F91FF90EF90DF90CF90BF90AF9010
:101620009F908F907F906F905F904F9008955B0197
:10163000AC1ABD0A4C018C0E9D1EA0911203B091F4
:101640001303512C412CF12CE12C109731F5809192
:101650001003909111038815990509F05CC0461696
:10166000570608F058C0809100029091010200973F
:1016700041F48DB79EB74091040250910502841B3E
:10168000950BE817F90708F055C0F0931103E093A4
:101690001003F90171836083B8CF8D919C911197EC
:1016A00012966C90129713967C901397A815B90513
:1016B00059F56C0142E0C40ED11CCA14DB0420F1C0
:1016C000AC014A195B09DA011296159780F0628223
:1016D000738251834083D9016D937C93E114F104AB
:1016E00071F0D7011396FC93EE9312978ECF22964A
:1016F0008C0F9D1FF90191838083F301EFCFF0934D
:101700001303E093120381CF4816590608F42C0105
:101710007D01D3019ACFCB010E9497097C010097EC
:1017200049F0AE01B8010E949D0BC8010E94330A26
:1017300087016BCF10E000E068CFFB01DC0102C045
:1017400001900D9241505040D8F70895FB01DC0103
:0E17500001900D920020E1F70895F894FFCF6C
:10175E00000014038000000000009E01C800F50088
:10176E00EB016601040158012044616D6520656C32
:10177E00206C61646F2064656C20706F6C69676F9C
:10178E006E6F3A20000D0A0044616D6520656C2075
:10179E0061706F74656D613A2000526573756C618E
:1017AE00646F3A20006E616E00696E66006F766639
:0217BE00000029
:00000001FF
