:100000000C9483000C94B4000C94B4000C94B400D1
:100010000C94B4000C94B4000C94B4000C94B40090
:100020000C94B4000C94B4000C94B4000C94B40080
:100030000C94B4000C94B4000C94B4000C94B40070
:100040000C94B4000C94B4000C94B4000C94B40060
:100050000C94B4000C94B4000C94B4000C94F3030E
:100060000C94B4000C94BD030C9493030C94B40052
:100070000C94B4000C94B4000C94B4000C94B40030
:100080000C94B4000C94B4000C94B4000C94B40020
:100090000C94B4000C94B4000C94B4000C94B40010
:1000A0000C94B4000C94B4000C94B4000C94B40000
:1000B0000C94B4000C94B4000C94B4000C94B400F0
:1000C0000C94B4000C94B4000C94B4000C94B400E0
:1000D0000C94B4000C94B4000C94B4000C94B400D0
:1000E0000C94B4000C94F2000C94B6000C94FE0531
:1000F0000C94D9010C9454010C94E3000C94460127
:100100000C948C01FE0511241FBECFEFD1E2DEBF9F
:10011000CDBF00E00CBF22E0AAE3B2E001C01D9217
:10012000AB3EB207E1F712E0A0E0B2E0E8E7F1E1B0
:1001300000E00BBF02C007900D92AA33B107D9F7B8
:1001400010E0C3E8D0E000E006C021970109802F4D
:10015000FE010E949C06C238D10780E00807A9F77B
:100160000E943D040C94BA080C940000AF92BF9218
:10017000CF92DF92EF92FF920F931F93CF93DF9373
:100180006C017B018B01040F151FEB015E01AE18A2
:10019000BF08C017D10759F06991D601ED91FC91C4
:1001A0000190F081E02DC6011995892B79F7C501E1
:1001B000DF91CF911F910F91FF90EF90DF90CF9043
:1001C000BF90AF900895FC01538D448D252F30E0F2
:1001D000842F90E0821B930B541710F0CF96089554
:1001E00001970895FC01918D828D981761F0A28D81
:1001F000AE0FBF2FB11D5D968C91928D9F5F9F7347
:10020000928F90E008958FEF9FEF08952FB7F894A5
:100210008091460290914702A0914802B091490214
:100220002FBF8093520290935302A0935402B09335
:1002300055028AE492E00E94F20097FF26C02FB791
:10024000F8948091460290914702A0914802B091A3
:1002500049022FBF409152025091530260915402C3
:1002600070915502841B950BA60BB70B40914E0263
:1002700050914F026091500270915102841795077E
:10028000A607B707B0F28FEF9FEF0895FC01918D9D
:10029000828D981731F0828DE80FF11D858D90E0E9
:1002A00008958FEF9FEF0895FC01918D228D892F86
:1002B00090E0805C9F4F821B91098F73992708956E
:1002C0008AE492E00E94540121E0892B09F420E0A5
:1002D000822F0895FC01A48DA80FB92FB11DA35A38
:1002E000BF4F2C91848D90E001968F739927848F56
:1002F000A689B7892C93A089B1898C918370806479
:100300008C93938D848D981306C00288F389E02D19
:1003100080818F7D80830895EF92FF920F931F93CA
:10032000CF93DF93EC0181E0888F9B8D8C8D9813A8
:100330001AC0E889F989808185FF15C09FB7F894B4
:10034000EE89FF896083E889F98980818370806400
:1003500080839FBF81E090E0DF91CF911F910F914B
:10036000FF90EF900895F62E0B8D10E00F5F1F4F5A
:100370000F731127E02E8C8D8E110CC00FB607FC69
:10038000FACFE889F989808185FFF5CFCE010E94F7
:100390006A01F1CFEB8DEC0FFD2FF11DE35AFF4FFA
:1003A000F0829FB7F8940B8FEA89FB898081806285
:1003B000CFCFCF93DF93EC01888D8823B9F0AA8942
:1003C000BB89E889F9898C9185FD03C0808186FD10
:1003D0000DC00FB607FCF7CF8C9185FFF2CF80815F
:1003E00085FFEDCFCE010E946A01E9CFDF91CF9169
:1003F000089580E090E0892B29F00E94600181112E
:100400000E94000080E090E0892B49F080E090E0BD
:10041000892B29F00E94000081110E94000080E0D9
:1004200090E0892B49F080E090E0892B29F00E9430
:10043000000081110E94000080E090E0892B49F0CB
:1004400080E090E0892B29F00E94000081110C943B
:10045000000008953FB7F89480913B0290913C02D0
:10046000A0913D02B0913E0226B5A89B05C02F3F4A
:1004700019F00196A11DB11D3FBFBA2FA92F982FCA
:100480008827BC01CD01620F711D811D911D42E0C5
:10049000660F771F881F991F4A95D1F7089542E08C
:1004A00050E068E172E08AE492E00C94B6000F93A9
:1004B0001F93CF93DF93EC0188819981009759F0C6
:1004C0002A813B812617370730F081E0DF91CF91F9
:1004D0001F910F9108958B016F5F7F4F0E94C90795
:1004E000009759F0998388831B830A832C813D816F
:1004F000232B59F7FC011082E8CF80E0E7CFEF9281
:10050000FF920F931F93CF93DF936115710541F411
:1005100080E0DF91CF911F910F91FF90EF900895B0
:1005200041155105B1F07B01EC010C811D81040FD7
:10053000151FB8010E945702882351F32881398181
:100540008C819D81B701820F931F0E94B3081D8388
:100550000C8381E0DECFCF93DF93EC01888199811A
:10056000009711F00E944007198218821D821C8298
:100570001B821A82DF91CF910895EF92FF920F9321
:100580001F93CF93DF93EC017B018A01BA010E9494
:10059000570281110BC0CE010E94AB02CE01DF9148
:1005A000CF911F910F91FF90EF9008951D830C83C1
:1005B000B701888199810E94B308F0CFFB010190B7
:1005C0000020E9F73197AF01461B570B0C94BD0291
:1005D000FC0180819181009711F00C9440070895EF
:1005E000CF92DF92EF92FF92CF93DF9300D000D0B3
:1005F0001F921F92CDB7DEB70E944F021A82198256
:100600001C821B821E821D826AE172E0CE0101966D
:100610000E94DE020E94060197FD0CC08F8318869F
:1006200041E050E0BE01695F7F4FCE0101960E941C
:100630007F02F0CF89819A81C12CD12C760100975D
:1006400019F00E942B066B01CE0101960E94E80270
:10065000C60128960FB6F894DEBF0FBECDBFDF915E
:10066000CF91FF90EF90DF90CF900895CF93DF93DD
:10067000CDB7DEB72C970FB6F894DEBF0FBECDBF57
:1006800018861F821A8619861C861B86FC016081CB
:1006900071816115710531F044815581CE01079654
:1006A0000E94BD021A8219821C821B821E821D8238
:1006B0006BE172E0CE0101960E94DE024B855C8503
:1006C0006F817885CE0101960E947F02811104C05E
:1006D000CE0101960E94AB0242E050E064E372E07A
:1006E000CE0101960E947F02811104C0CE010196C5
:1006F0000E94AB024D815E8169817A818AE492E039
:100700000E94B600CE0101960E94E802CE01079633
:100710000E94E8022C960FB6F894DEBF0FBECDBF44
:10072000DF91CF9108951F920F920FB60F9211246F
:100730000BB60F922F933F934F935F936F937F93DB
:100740008F939F93AF93BF93EF93FF938AE492E0CD
:100750000E946A01FF91EF91BF91AF919F918F919C
:100760007F916F915F914F913F912F910F900BBEB1
:100770000F900FBE0F901F9018951F920F920FB6FB
:100780000F9211240BB60F922F938F939F93EF9399
:10079000FF93E0915A02F0915B028081E091600248
:1007A000F091610282FD1DC09081809163028F5F94
:1007B0008F7320916402821741F0E0916302F0E0B0
:1007C000E65BFD4F958F80936302FF91EF919F91C0
:1007D0008F912F910F900BBE0F900FBE0F901F9017
:1007E00018958081F2CF1F920F920FB60F921124AD
:1007F0002F933F938F939F93AF93BF938091460224
:1008000090914702A0914802B091490230913A027A
:1008100023E0230F2D3758F50196A11DB11D20931C
:100820003A028093460290934702A0934802B09305
:10083000490280913B0290913C02A0913D02B0910F
:100840003E020196A11DB11D80933B0290933C0294
:10085000A0933D02B0933E02BF91AF919F918F91C3
:100860003F912F910F900FBE0F901F90189526E883
:10087000230F0296A11DB11DD2CFCF93DF93CDB729
:10088000DEB768970FB6F894DEBF0FBECDBF789481
:1008900084B5826084BD84B5816084BD85B5826085
:1008A00085BD85B5816085BD80916E008160809336
:1008B0006E0010928100809181008260809381009F
:1008C00080918100816080938100809180008160AF
:1008D000809380008091B10084608093B10080910A
:1008E000B00081608093B00080919100826080931D
:1008F000910080919100816080939100809190009F
:100900008160809390008091A10082608093A1001B
:100910008091A10081608093A1008091A0008160FE
:100920008093A000809121018260809321018091B9
:100930002101816080932101809120018160809359
:10094000200180917A00846080937A0080917A00FF
:10095000826080937A0080917A00816080937A002F
:1009600080917A00806880937A001092C100E091B3
:100970005A02F0915B0282E08083E0915602F0918E
:1009800057021082E0915802F09159028FEC808357
:1009900010926202E0915E02F0915F0286E0808335
:1009A000E0915C02F0915D02808180618083E09142
:1009B0005C02F0915D02808188608083E0915C023E
:1009C000F0915D02808180688083E0915C02F0910B
:1009D0005D0280818F7D808395E0F92E8E010F5F0F
:1009E0001F4F24E0E22E33E0D32E42E0C42E332406
:1009F00033948091450281113BC01A8219821C8276
:100A00001B821E821D8261E272E0C8010E94DE022A
:100A1000C8010E943603C8010E94E80230924502D4
:100A20000E942A022B013C0188EE882E83E0982E3A
:100A3000A12CB12C0E942A02641975098609970914
:100A4000683E734081059105A8F321E0821A910860
:100A5000A108B10888EE480E83E0581E611C711C85
:100A600081149104A104B10429F70E94F901C1CFB6
:100A7000813081F48AE492E00E945401181619062C
:100A80007CF60E94F0029093440280934302C0924D
:100A90004502C6CF8230A1F41A8219821C821B82C1
:100AA0001E821D8263E272E0C8010E94DE02C8015C
:100AB0000E943603C8010E94E802D0924502B0CFDE
:100AC000833011F58AE492E00E9454011816190649
:100AD0000CF0A6CF0E94F002909342028093410254
:100AE000892B49F481E090E09093400280933F028B
:100AF000F092450295CF81E090E090934002809380
:100B00003F02E09245028CCF853009F048C08091C9
:100B10003F02909140021C8A1B8A1E8A1D8A188EF1
:100B20001F8A4AE0B8010E945206F8010190002095
:100B3000E9F73197AF01401B510BB801CE01439645
:100B40000E94BD021A8219821C821B821E821D8293
:100B500065E272E0C8010E94DE024F89588D6B8900
:100B60007C89C8010E947F02811103C0C8010E94D4
:100B7000AB024D815E8169817A818AE492E00E94B4
:100B8000B6000E944F02C8010E94E802CE014396BF
:100B90000E94E8020E944F021092450241CF843029
:100BA00009F03ECF40913F02509140022091430214
:100BB00030914402429FC001439F900D529F900D7F
:100BC00011249093400280933F02809141029091C2
:100BD00042020297909342028093410202970CF0E6
:100BE0001FCFF092450241E050E067E372E08AE4F3
:100BF00092E00E94B6000E944F0212CFEAE4F2E0B7
:100C00001382128288EE93E0A0E0B0E084839583A3
:100C1000A683B7838AE092E09183808385EC90E09D
:100C20009587848784EC90E09787868780EC90E0B6
:100C3000918B808B81EC90E0938B828B82EC90E0A7
:100C4000958B848B86EC90E0978B868B118E128E21
:100C5000138E148E08951F93FC0199278827BC01D9
:100C6000E89411911032E9F3193010F01E30C8F3F6
:100C70001B3251F01D3249F4689406C00E945D0693
:100C8000610F711D811D911D119110531A30B0F328
:100C90003EF490958095709561957F4F8F4F9F4F53
:100CA0001F910895BB274A3031F4992322F4BDE205
:100CB000909581959F4F0C947306592F482F372F8D
:100CC000262F660F771F881F991F660F771F881FB3
:100CD000991F620F731F841F951F660F771F881F50
:100CE000991F0895BB27FB015527AA27880F991F35
:100CF000AA1FA41710F0A41B83955051B9F7A05D4B
:100D0000AA3308F0A95DA193009779F7B111B193C7
:100D10001192CB010C948C06DC01FC01672F7191C0
:100D20007723E1F7329704C07C916D9370836291D1
:100D3000AE17BF07C8F30895EE0FFF1F881F8BBFC4
:100D40000790F691E02D19940F931F93CF93DF93A3
:100D50008230910510F482E090E0E091E902F09198
:100D6000EA0230E020E0B0E0A0E0309799F42115ED
:100D7000310509F44AC0281B390B24303105D8F558
:100D80008A819B816115710589F1FB0193838283BF
:100D9000FE0111C04081518102811381481759071A
:100DA000E0F04817590799F4109761F012960C93E8
:100DB000129713961C933296CF01DF91CF911F911A
:100DC0000F9108950093E9021093EA02F4CF2115E0
:100DD000310551F04217530738F0A901DB019A01A0
:100DE000BD01DF01F801C1CFEF01F9CF9093EA0215
:100DF0008093E902CDCFFE01E20FF31F819391931F
:100E00002250310939832883D7CF2091E7023091CE
:100E1000E802232B41F42091020230910302309327
:100E2000E8022093E702209100023091010221158F
:100E3000310541F42DB73EB74091040250910502AF
:100E4000241B350BE091E702F091E802E217F3076B
:100E5000A0F42E1B3F0B2817390778F0AC014E5F2A
:100E60005F4F2417350748F04E0F5F1F5093E8027D
:100E70004093E702819391939FCFF0E0E0E09CCF15
:100E8000CF93DF930097E9F0FC013297138212822F
:100E9000A091E902B091EA02ED0130E020E0109764
:100EA000A1F420813181820F931F2091E7023091BC
:100EB000E8022817390709F061C0F093E802E093CF
:100EC000E702DF91CF910895EA01CE17DF07E8F539
:100ED0004A815B819E0141155105B1F7E901FB8310
:100EE000EA8349915991C40FD51FEC17FD0761F4AE
:100EF000808191810296840F951FE90199838883EF
:100F0000828193819B838A83F0E0E0E012968D9149
:100F10009C9113970097B9F52D913C911197CD01B4
:100F20000296820F931F2091E7023091E802281762
:100F3000390739F6309751F51092EA021092E9021A
:100F4000B093E802A093E702BCCFD383C283408171
:100F50005181840F951FC817D90761F44E5F5F4F09
:100F600088819981480F591F518340838A819B81D1
:100F7000938382832115310509F0B0CFF093EA0203
:100F8000E093E9029ECFFD01DC01C0CF1382128203
:100F9000D7CF4F925F926F927F928F929F92AF9234
:100FA000BF92CF92DF92EF92FF920F931F93CF9356
:100FB000DF938C01009799F4CB01DF91CF911F91C2
:100FC0000F91FF90EF90DF90CF90BF90AF909F90E8
:100FD0008F907F906F905F904F900C94A406FC01CF
:100FE000E60FF71F9C0122503109E217F30708F4BE
:100FF000AEC0D901CD91DC911197C617D70720F16A
:10100000C530D10578F0CE0104978617970750F0C8
:10101000C61BD70B2297C193D1936D937C93CF01BD
:101020000E944007C801DF91CF911F910F91FF905F
:10103000EF90DF90CF90BF90AF909F908F907F9078
:101040006F905F904F9008955B01AC1ABD0A4C0100
:101050008C0E9D1EA091E902B091EA02512C412C08
:10106000F12CE12C109731F58091E7029091E80284
:101070008815990509F05CC04616570608F058C057
:101080008091000290910102009741F48DB79EB7C4
:101090004091040250910502841B950BE817F90753
:1010A00008F055C0F093E802E093E702F90171837C
:1010B0006083B8CF8D919C91119712966C90129786
:1010C00013967C901397A815B90559F56C0142E069
:1010D000C40ED11CCA14DB0420F1AC014A195B090F
:1010E000DA011296159780F06282738251834083F1
:1010F000D9016D937C93E114F10471F0D70113963B
:10110000FC93EE9312978ECF22968C0F9D1FF901C0
:1011100091838083F301EFCFF093EA02E093E90239
:1011200081CF4816590608F42C017D01D3019ACFCE
:10113000CB010E94A4067C01009749F0AE01B801E2
:101140000E94AA08C8010E94400787016BCF10E0E7
:1011500000E068CFFB01DC0102C001900D9241501C
:101160005040D8F70895FB01DC0101900D9200205A
:08117000E1F70895F894FFCFA8
:101178000000EB028000000000008C01B600E300D4
:10118800D9015401F20046010D0A0044616D652041
:101198000058005900456C20726573756C74616461
:0A11A8006F2065733A200044000038
:00000001FF
